{"contracts/src/FundingPool.sol":{"FundingPool":{"abi":[{"inputs":[{"internalType":"address","name":"_organizationAddress","type":"address"}],"stateMutability":"nonpayable","type":"constructor"},{"inputs":[{"internalType":"address","name":"owner","type":"address"}],"name":"OwnableInvalidOwner","type":"error"},{"inputs":[{"internalType":"address","name":"account","type":"address"}],"name":"OwnableUnauthorizedAccount","type":"error"},{"anonymous":false,"inputs":[{"indexed":false,"internalType":"uint256","name":"campaignId","type":"uint256"}],"name":"CampaignCancelled","type":"event"},{"anonymous":false,"inputs":[{"indexed":false,"internalType":"uint256","name":"campaignId","type":"uint256"}],"name":"CampaignCompleted","type":"event"},{"anonymous":false,"inputs":[{"indexed":false,"internalType":"uint256","name":"campaignId","type":"uint256"},{"indexed":false,"internalType":"string","name":"name","type":"string"},{"indexed":false,"internalType":"uint256","name":"goal","type":"uint256"},{"indexed":false,"internalType":"address","name":"organization","type":"address"}],"name":"CampaignCreated","type":"event"},{"anonymous":false,"inputs":[{"indexed":false,"internalType":"uint256","name":"campaignId","type":"uint256"},{"indexed":false,"internalType":"address","name":"contributor","type":"address"},{"indexed":false,"internalType":"uint256","name":"amount","type":"uint256"}],"name":"FundsContributed","type":"event"},{"anonymous":false,"inputs":[{"indexed":true,"internalType":"address","name":"previousOwner","type":"address"},{"indexed":true,"internalType":"address","name":"newOwner","type":"address"}],"name":"OwnershipTransferred","type":"event"},{"inputs":[],"name":"campaignCount","outputs":[{"internalType":"uint256","name":"","type":"uint256"}],"stateMutability":"view","type":"function"},{"inputs":[{"internalType":"uint256","name":"","type":"uint256"}],"name":"campaigns","outputs":[{"internalType":"string","name":"name","type":"string"},{"internalType":"string","name":"description","type":"string"},{"internalType":"uint256","name":"goal","type":"uint256"},{"internalType":"uint256","name":"collected","type":"uint256"},{"internalType":"uint256","name":"deadline","type":"uint256"},{"internalType":"enum FundingPool.FundingType","name":"fundingType","type":"uint8"},{"internalType":"enum FundingPool.FundingStatus","name":"status","type":"uint8"},{"internalType":"address","name":"organization","type":"address"}],"stateMutability":"view","type":"function"},{"inputs":[{"internalType":"uint256","name":"campaignId","type":"uint256"}],"name":"cancelCampaign","outputs":[],"stateMutability":"nonpayable","type":"function"},{"inputs":[{"internalType":"uint256","name":"campaignId","type":"uint256"}],"name":"contribute","outputs":[],"stateMutability":"payable","type":"function"},{"inputs":[{"internalType":"uint256","name":"","type":"uint256"},{"internalType":"address","name":"","type":"address"}],"name":"contributions","outputs":[{"internalType":"uint256","name":"","type":"uint256"}],"stateMutability":"view","type":"function"},{"inputs":[{"internalType":"string","name":"name","type":"string"},{"internalType":"string","name":"description","type":"string"},{"internalType":"uint256","name":"goal","type":"uint256"},{"internalType":"uint256","name":"deadline","type":"uint256"},{"internalType":"enum FundingPool.FundingType","name":"fundingType","type":"uint8"},{"internalType":"string[]","name":"expenseItems","type":"string[]"},{"internalType":"uint256[]","name":"expenseAmounts","type":"uint256[]"}],"name":"createCampaign","outputs":[{"internalType":"uint256","name":"","type":"uint256"}],"stateMutability":"nonpayable","type":"function"},{"inputs":[{"internalType":"uint256","name":"campaignId","type":"uint256"}],"name":"getCampaignDetails","outputs":[{"internalType":"string","name":"name","type":"string"},{"internalType":"string","name":"description","type":"string"},{"internalType":"uint256","name":"goal","type":"uint256"},{"internalType":"uint256","name":"collected","type":"uint256"},{"internalType":"uint256","name":"deadline","type":"uint256"},{"internalType":"enum FundingPool.FundingType","name":"fundingType","type":"uint8"},{"internalType":"enum FundingPool.FundingStatus","name":"status","type":"uint8"}],"stateMutability":"view","type":"function"},{"inputs":[{"internalType":"uint256","name":"campaignId","type":"uint256"},{"internalType":"address","name":"contributor","type":"address"}],"name":"getContribution","outputs":[{"internalType":"uint256","name":"","type":"uint256"}],"stateMutability":"view","type":"function"},{"inputs":[{"internalType":"uint256","name":"campaignId","type":"uint256"}],"name":"getExpenseItems","outputs":[{"internalType":"string[]","name":"","type":"string[]"},{"internalType":"uint256[]","name":"","type":"uint256[]"}],"stateMutability":"view","type":"function"},{"inputs":[],"name":"organizationContract","outputs":[{"internalType":"contract IOrganization","name":"","type":"address"}],"stateMutability":"view","type":"function"},{"inputs":[],"name":"owner","outputs":[{"internalType":"address","name":"","type":"address"}],"stateMutability":"view","type":"function"},{"inputs":[],"name":"renounceOwnership","outputs":[],"stateMutability":"nonpayable","type":"function"},{"inputs":[{"internalType":"address","name":"newOwner","type":"address"}],"name":"transferOwnership","outputs":[],"stateMutability":"nonpayable","type":"function"},{"inputs":[{"internalType":"uint256","name":"campaignId","type":"uint256"},{"internalType":"address payable","name":"recipient","type":"address"},{"internalType":"uint256","name":"amount","type":"uint256"}],"name":"withdrawFunds","outputs":[],"stateMutability":"nonpayable","type":"function"}],"evm":{"bytecode":{"linkReferences":{},"object":"608060405234801561001057600080fd5b50604051612bbe380380612bbe83398181016040528101906100329190610223565b33600073ffffffffffffffffffffffffffffffffffffffff168173ffffffffffffffffffffffffffffffffffffffff16036100a55760006040517f1e4fbdf700000000000000000000000000000000000000000000000000000000815260040161009c919061025f565b60405180910390fd5b6100b4816100fc60201b60201c565b5080600460006101000a81548173ffffffffffffffffffffffffffffffffffffffff021916908373ffffffffffffffffffffffffffffffffffffffff1602179055505061027a565b60008060009054906101000a900473ffffffffffffffffffffffffffffffffffffffff169050816000806101000a81548173ffffffffffffffffffffffffffffffffffffffff021916908373ffffffffffffffffffffffffffffffffffffffff1602179055508173ffffffffffffffffffffffffffffffffffffffff168173ffffffffffffffffffffffffffffffffffffffff167f8be0079c531659141344cd1fd0a4f28419497f9722a3daafe3b4186f6b6457e060405160405180910390a35050565b600080fd5b600073ffffffffffffffffffffffffffffffffffffffff82169050919050565b60006101f0826101c5565b9050919050565b610200816101e5565b811461020b57600080fd5b50565b60008151905061021d816101f7565b92915050565b600060208284031215610239576102386101c0565b5b60006102478482850161020e565b91505092915050565b610259816101e5565b82525050565b60006020820190506102746000830184610250565b92915050565b612935806102896000396000f3fe6080604052600436106100dd5760003560e01c80638135f3cc1161007f578063d993de6211610059578063d993de62146102bb578063e081dbf9146102fe578063f2fde38b1461033b578063f8f34cde14610364576100dd565b80638135f3cc146102365780638da5cb5b14610274578063c1cbbca71461029f576100dd565b80633d891f59116100bb5780633d891f591461018e57806345598b4a146101cb578063715018a6146101f45780637274e30d1461020b576100dd565b80630b5c2cbd146100e2578063141961bc1461011f57806336abac2914610163575b600080fd5b3480156100ee57600080fd5b5061010960048036038101906101049190611895565b61038d565b60405161011691906119b6565b60405180910390f35b34801561012b57600080fd5b50610146600480360381019061014191906119d1565b610696565b60405161015a989796959493929190611b7d565b60405180910390f35b34801561016f57600080fd5b50610178610828565b6040516101859190611c68565b60405180910390f35b34801561019a57600080fd5b506101b560048036038101906101b09190611caf565b61084e565b6040516101c291906119b6565b60405180910390f35b3480156101d757600080fd5b506101f260048036038101906101ed91906119d1565b610873565b005b34801561020057600080fd5b50610209610a45565b005b34801561021757600080fd5b50610220610a59565b60405161022d91906119b6565b60405180910390f35b34801561024257600080fd5b5061025d600480360381019061025891906119d1565b610a5f565b60405161026b929190611eb9565b60405180910390f35b34801561028057600080fd5b50610289610bb0565b6040516102969190611ef0565b60405180910390f35b6102b960048036038101906102b491906119d1565b610bd9565b005b3480156102c757600080fd5b506102e260048036038101906102dd91906119d1565b610e35565b6040516102f59796959493929190611f0b565b60405180910390f35b34801561030a57600080fd5b5061032560048036038101906103209190611caf565b610fc3565b60405161033291906119b6565b60405180910390f35b34801561034757600080fd5b50610362600480360381019061035d9190611f88565b61101e565b005b34801561037057600080fd5b5061038b60048036038101906103869190611ff3565b6110a4565b005b6000600460009054906101000a900473ffffffffffffffffffffffffffffffffffffffff1673ffffffffffffffffffffffffffffffffffffffff1663cc0d50e6336040518263ffffffff1660e01b81526004016103ea9190611ef0565b602060405180830381865afa158015610407573d6000803e3d6000fd5b505050506040513d601f19601f8201168201806040525081019061042b919061207e565b61046a576040517f08c379a00000000000000000000000000000000000000000000000000000000081526004016104619061211d565b60405180910390fd5b60006003600081548092919061047f9061216c565b9190505590506040518061014001604052808a8152602001898152602001888152602001600081526020018781526020018660028111156104c3576104c2611a7d565b5b8152602001600060028111156104dc576104db611a7d565b5b81526020013373ffffffffffffffffffffffffffffffffffffffff1681526020018581526020018481525060016000838152602001908152602001600020600082015181600001908161052f91906123b6565b50602082015181600101908161054591906123b6565b5060408201518160020155606082015181600301556080820151816004015560a08201518160050160006101000a81548160ff0219169083600281111561058f5761058e611a7d565b5b021790555060c08201518160050160016101000a81548160ff021916908360028111156105bf576105be611a7d565b5b021790555060e08201518160050160026101000a81548173ffffffffffffffffffffffffffffffffffffffff021916908373ffffffffffffffffffffffffffffffffffffffff160217905550610100820151816006019080519060200190610628929190611410565b50610120820151816007019080519060200190610646929190611469565b509050507f6fc7a1de3ccfc251acab8f2f41819123cd49f5da653ad8e7d5ca2f5e8ff76572818a893360405161067f9493929190612488565b60405180910390a180915050979650505050505050565b60016020528060005260406000206000915090508060000180546106b9906121e3565b80601f01602080910402602001604051908101604052809291908181526020018280546106e5906121e3565b80156107325780601f1061070757610100808354040283529160200191610732565b820191906000526020600020905b81548152906001019060200180831161071557829003601f168201915b505050505090806001018054610747906121e3565b80601f0160208091040260200160405190810160405280929190818152602001828054610773906121e3565b80156107c05780601f10610795576101008083540402835291602001916107c0565b820191906000526020600020905b8154815290600101906020018083116107a357829003601f168201915b5050505050908060020154908060030154908060040154908060050160009054906101000a900460ff16908060050160019054906101000a900460ff16908060050160029054906101000a900473ffffffffffffffffffffffffffffffffffffffff16905088565b600460009054906101000a900473ffffffffffffffffffffffffffffffffffffffff1681565b6002602052816000526040600020602052806000526040600020600091509150505481565b6000600160008381526020019081526020016000209050600460009054906101000a900473ffffffffffffffffffffffffffffffffffffffff1673ffffffffffffffffffffffffffffffffffffffff1663cc0d50e6336040518263ffffffff1660e01b81526004016108e59190611ef0565b602060405180830381865afa158015610902573d6000803e3d6000fd5b505050506040513d601f19601f82011682018060405250810190610926919061207e565b610965576040517f08c379a000000000000000000000000000000000000000000000000000000000815260040161095c90612546565b60405180910390fd5b6000600281111561097957610978611a7d565b5b8160050160019054906101000a900460ff16600281111561099d5761099c611a7d565b5b146109dd576040517f08c379a00000000000000000000000000000000000000000000000000000000081526004016109d4906125b2565b60405180910390fd5b60028160050160016101000a81548160ff02191690836002811115610a0557610a04611a7d565b5b02179055507f403b6718db13878ac16c27decb08f09d3a10f116c7c25af575ff5bfbc11ae9e682604051610a3991906119b6565b60405180910390a15050565b610a4d6112bd565b610a576000611344565b565b60035481565b6060806000600160008581526020019081526020016000209050806006018160070181805480602002602001604051908101604052809291908181526020016000905b82821015610b4e578382906000526020600020018054610ac1906121e3565b80601f0160208091040260200160405190810160405280929190818152602001828054610aed906121e3565b8015610b3a5780601f10610b0f57610100808354040283529160200191610b3a565b820191906000526020600020905b815481529060010190602001808311610b1d57829003601f168201915b505050505081526020019060010190610aa2565b50505050915080805480602002602001604051908101604052809291908181526020018280548015610b9f57602002820191906000526020600020905b815481526020019060010190808311610b8b575b505050505090509250925050915091565b60008060009054906101000a900473ffffffffffffffffffffffffffffffffffffffff16905090565b600060016000838152602001908152602001600020905060006002811115610c0457610c03611a7d565b5b8160050160019054906101000a900460ff166002811115610c2857610c27611a7d565b5b14610c68576040517f08c379a0000000000000000000000000000000000000000000000000000000008152600401610c5f906125b2565b60405180910390fd5b8060040154421080610c7e575060008160040154145b610cbd576040517f08c379a0000000000000000000000000000000000000000000000000000000008152600401610cb49061261e565b60405180910390fd5b60003411610d00576040517f08c379a0000000000000000000000000000000000000000000000000000000008152600401610cf7906126b0565b60405180910390fd5b34816003016000828254610d1491906126d0565b92505081905550346002600084815260200190815260200160002060003373ffffffffffffffffffffffffffffffffffffffff1673ffffffffffffffffffffffffffffffffffffffff1681526020019081526020016000206000828254610d7b91906126d0565b925050819055507fb5c5ea1a898780d7e2fa7e4b8ec6d8ba4fdcf3be360bb5e76ae40e4769053a19823334604051610db593929190612704565b60405180910390a18060020154816003015410610e315760018160050160016101000a81548160ff02191690836002811115610df457610df3611a7d565b5b02179055507fbdef6a2e3aa892961a2dab48272f72f2bc1c7121eb1c0ed7e4a58e081c1e4be082604051610e2891906119b6565b60405180910390a15b5050565b606080600080600080600080600160008a8152602001908152602001600020905080600001816001018260020154836003015484600401548560050160009054906101000a900460ff168660050160019054906101000a900460ff16868054610e9d906121e3565b80601f0160208091040260200160405190810160405280929190818152602001828054610ec9906121e3565b8015610f165780601f10610eeb57610100808354040283529160200191610f16565b820191906000526020600020905b815481529060010190602001808311610ef957829003601f168201915b50505050509650858054610f29906121e3565b80601f0160208091040260200160405190810160405280929190818152602001828054610f55906121e3565b8015610fa25780601f10610f7757610100808354040283529160200191610fa2565b820191906000526020600020905b815481529060010190602001808311610f8557829003601f168201915b50505050509550975097509750975097509750975050919395979092949650565b60006002600084815260200190815260200160002060008373ffffffffffffffffffffffffffffffffffffffff1673ffffffffffffffffffffffffffffffffffffffff16815260200190815260200160002054905092915050565b6110266112bd565b600073ffffffffffffffffffffffffffffffffffffffff168173ffffffffffffffffffffffffffffffffffffffff16036110985760006040517f1e4fbdf700000000000000000000000000000000000000000000000000000000815260040161108f9190611ef0565b60405180910390fd5b6110a181611344565b50565b6000600160008581526020019081526020016000209050600460009054906101000a900473ffffffffffffffffffffffffffffffffffffffff1673ffffffffffffffffffffffffffffffffffffffff1663cc0d50e6336040518263ffffffff1660e01b81526004016111169190611ef0565b602060405180830381865afa158015611133573d6000803e3d6000fd5b505050506040513d601f19601f82011682018060405250810190611157919061207e565b611196576040517f08c379a000000000000000000000000000000000000000000000000000000000815260040161118d906127ad565b60405180910390fd5b600160028111156111aa576111a9611a7d565b5b8160050160019054906101000a900460ff1660028111156111ce576111cd611a7d565b5b1461120e576040517f08c379a000000000000000000000000000000000000000000000000000000000815260040161120590612819565b60405180910390fd5b8060030154821115611255576040517f08c379a000000000000000000000000000000000000000000000000000000000815260040161124c906128ab565b60405180910390fd5b8181600301600082825461126991906128cb565b925050819055508273ffffffffffffffffffffffffffffffffffffffff166108fc839081150290604051600060405180830381858888f193505050501580156112b6573d6000803e3d6000fd5b5050505050565b6112c5611408565b73ffffffffffffffffffffffffffffffffffffffff166112e3610bb0565b73ffffffffffffffffffffffffffffffffffffffff161461134257611306611408565b6040517f118cdaa70000000000000000000000000000000000000000000000000000000081526004016113399190611ef0565b60405180910390fd5b565b60008060009054906101000a900473ffffffffffffffffffffffffffffffffffffffff169050816000806101000a81548173ffffffffffffffffffffffffffffffffffffffff021916908373ffffffffffffffffffffffffffffffffffffffff1602179055508173ffffffffffffffffffffffffffffffffffffffff168173ffffffffffffffffffffffffffffffffffffffff167f8be0079c531659141344cd1fd0a4f28419497f9722a3daafe3b4186f6b6457e060405160405180910390a35050565b600033905090565b828054828255906000526020600020908101928215611458579160200282015b8281111561145757825182908161144791906123b6565b5091602001919060010190611430565b5b50905061146591906114b6565b5090565b8280548282559060005260206000209081019282156114a5579160200282015b828111156114a4578251825591602001919060010190611489565b5b5090506114b291906114da565b5090565b5b808211156114d657600081816114cd91906114f7565b506001016114b7565b5090565b5b808211156114f35760008160009055506001016114db565b5090565b508054611503906121e3565b6000825580601f106115155750611534565b601f01602090049060005260206000209081019061153391906114da565b5b50565b6000604051905090565b600080fd5b600080fd5b600080fd5b600080fd5b6000601f19601f8301169050919050565b7f4e487b7100000000000000000000000000000000000000000000000000000000600052604160045260246000fd5b61159e82611555565b810181811067ffffffffffffffff821117156115bd576115bc611566565b5b80604052505050565b60006115d0611537565b90506115dc8282611595565b919050565b600067ffffffffffffffff8211156115fc576115fb611566565b5b61160582611555565b9050602081019050919050565b82818337600083830152505050565b600061163461162f846115e1565b6115c6565b9050828152602081018484840111156116505761164f611550565b5b61165b848285611612565b509392505050565b600082601f8301126116785761167761154b565b5b8135611688848260208601611621565b91505092915050565b6000819050919050565b6116a481611691565b81146116af57600080fd5b50565b6000813590506116c18161169b565b92915050565b600381106116d457600080fd5b50565b6000813590506116e6816116c7565b92915050565b600067ffffffffffffffff82111561170757611706611566565b5b602082029050602081019050919050565b600080fd5b600061173061172b846116ec565b6115c6565b9050808382526020820190506020840283018581111561175357611752611718565b5b835b8181101561179a57803567ffffffffffffffff8111156117785761177761154b565b5b8086016117858982611663565b85526020850194505050602081019050611755565b5050509392505050565b600082601f8301126117b9576117b861154b565b5b81356117c984826020860161171d565b91505092915050565b600067ffffffffffffffff8211156117ed576117ec611566565b5b602082029050602081019050919050565b600061181161180c846117d2565b6115c6565b9050808382526020820190506020840283018581111561183457611833611718565b5b835b8181101561185d578061184988826116b2565b845260208401935050602081019050611836565b5050509392505050565b600082601f83011261187c5761187b61154b565b5b813561188c8482602086016117fe565b91505092915050565b600080600080600080600060e0888a0312156118b4576118b3611541565b5b600088013567ffffffffffffffff8111156118d2576118d1611546565b5b6118de8a828b01611663565b975050602088013567ffffffffffffffff8111156118ff576118fe611546565b5b61190b8a828b01611663565b965050604061191c8a828b016116b2565b955050606061192d8a828b016116b2565b945050608061193e8a828b016116d7565b93505060a088013567ffffffffffffffff81111561195f5761195e611546565b5b61196b8a828b016117a4565b92505060c088013567ffffffffffffffff81111561198c5761198b611546565b5b6119988a828b01611867565b91505092959891949750929550565b6119b081611691565b82525050565b60006020820190506119cb60008301846119a7565b92915050565b6000602082840312156119e7576119e6611541565b5b60006119f5848285016116b2565b91505092915050565b600081519050919050565b600082825260208201905092915050565b60005b83811015611a38578082015181840152602081019050611a1d565b60008484015250505050565b6000611a4f826119fe565b611a598185611a09565b9350611a69818560208601611a1a565b611a7281611555565b840191505092915050565b7f4e487b7100000000000000000000000000000000000000000000000000000000600052602160045260246000fd5b60038110611abd57611abc611a7d565b5b50565b6000819050611ace82611aac565b919050565b6000611ade82611ac0565b9050919050565b611aee81611ad3565b82525050565b60038110611b0557611b04611a7d565b5b50565b6000819050611b1682611af4565b919050565b6000611b2682611b08565b9050919050565b611b3681611b1b565b82525050565b600073ffffffffffffffffffffffffffffffffffffffff82169050919050565b6000611b6782611b3c565b9050919050565b611b7781611b5c565b82525050565b6000610100820190508181036000830152611b98818b611a44565b90508181036020830152611bac818a611a44565b9050611bbb60408301896119a7565b611bc860608301886119a7565b611bd560808301876119a7565b611be260a0830186611ae5565b611bef60c0830185611b2d565b611bfc60e0830184611b6e565b9998505050505050505050565b6000819050919050565b6000611c2e611c29611c2484611b3c565b611c09565b611b3c565b9050919050565b6000611c4082611c13565b9050919050565b6000611c5282611c35565b9050919050565b611c6281611c47565b82525050565b6000602082019050611c7d6000830184611c59565b92915050565b611c8c81611b5c565b8114611c9757600080fd5b50565b600081359050611ca981611c83565b92915050565b60008060408385031215611cc657611cc5611541565b5b6000611cd4858286016116b2565b9250506020611ce585828601611c9a565b9150509250929050565b600081519050919050565b600082825260208201905092915050565b6000819050602082019050919050565b600082825260208201905092915050565b6000611d37826119fe565b611d418185611d1b565b9350611d51818560208601611a1a565b611d5a81611555565b840191505092915050565b6000611d718383611d2c565b905092915050565b6000602082019050919050565b6000611d9182611cef565b611d9b8185611cfa565b935083602082028501611dad85611d0b565b8060005b85811015611de95784840389528151611dca8582611d65565b9450611dd583611d79565b925060208a01995050600181019050611db1565b50829750879550505050505092915050565b600081519050919050565b600082825260208201905092915050565b6000819050602082019050919050565b611e3081611691565b82525050565b6000611e428383611e27565b60208301905092915050565b6000602082019050919050565b6000611e6682611dfb565b611e708185611e06565b9350611e7b83611e17565b8060005b83811015611eac578151611e938882611e36565b9750611e9e83611e4e565b925050600181019050611e7f565b5085935050505092915050565b60006040820190508181036000830152611ed38185611d86565b90508181036020830152611ee78184611e5b565b90509392505050565b6000602082019050611f056000830184611b6e565b92915050565b600060e0820190508181036000830152611f25818a611a44565b90508181036020830152611f398189611a44565b9050611f4860408301886119a7565b611f5560608301876119a7565b611f6260808301866119a7565b611f6f60a0830185611ae5565b611f7c60c0830184611b2d565b98975050505050505050565b600060208284031215611f9e57611f9d611541565b5b6000611fac84828501611c9a565b91505092915050565b6000611fc082611b3c565b9050919050565b611fd081611fb5565b8114611fdb57600080fd5b50565b600081359050611fed81611fc7565b92915050565b60008060006060848603121561200c5761200b611541565b5b600061201a868287016116b2565b935050602061202b86828701611fde565b925050604061203c868287016116b2565b9150509250925092565b60008115159050919050565b61205b81612046565b811461206657600080fd5b50565b60008151905061207881612052565b92915050565b60006020828403121561209457612093611541565b5b60006120a284828501612069565b91505092915050565b7f4f6e6c7920747265617375726572732063616e206372656174652063616d706160008201527f69676e7300000000000000000000000000000000000000000000000000000000602082015250565b6000612107602483611a09565b9150612112826120ab565b604082019050919050565b60006020820190508181036000830152612136816120fa565b9050919050565b7f4e487b7100000000000000000000000000000000000000000000000000000000600052601160045260246000fd5b600061217782611691565b91507fffffffffffffffffffffffffffffffffffffffffffffffffffffffffffffffff82036121a9576121a861213d565b5b600182019050919050565b7f4e487b7100000000000000000000000000000000000000000000000000000000600052602260045260246000fd5b600060028204905060018216806121fb57607f821691505b60208210810361220e5761220d6121b4565b5b50919050565b60008190508160005260206000209050919050565b60006020601f8301049050919050565b600082821b905092915050565b6000600883026122767fffffffffffffffffffffffffffffffffffffffffffffffffffffffffffffffff82612239565b6122808683612239565b95508019841693508086168417925050509392505050565b60006122b36122ae6122a984611691565b611c09565b611691565b9050919050565b6000819050919050565b6122cd83612298565b6122e16122d9826122ba565b848454612246565b825550505050565b600090565b6122f66122e9565b6123018184846122c4565b505050565b5b818110156123255761231a6000826122ee565b600181019050612307565b5050565b601f82111561236a5761233b81612214565b61234484612229565b81016020851015612353578190505b61236761235f85612229565b830182612306565b50505b505050565b600082821c905092915050565b600061238d6000198460080261236f565b1980831691505092915050565b60006123a6838361237c565b9150826002028217905092915050565b6123bf826119fe565b67ffffffffffffffff8111156123d8576123d7611566565b5b6123e282546121e3565b6123ed828285612329565b600060209050601f831160018114612420576000841561240e578287015190505b612418858261239a565b865550612480565b601f19841661242e86612214565b60005b8281101561245657848901518255600182019150602085019450602081019050612431565b86831015612473578489015161246f601f89168261237c565b8355505b6001600288020188555050505b505050505050565b600060808201905061249d60008301876119a7565b81810360208301526124af8186611a44565b90506124be60408301856119a7565b6124cb6060830184611b6e565b95945050505050565b7f4f6e6c7920747265617375726572732063616e2063616e63656c2063616d706160008201527f69676e7300000000000000000000000000000000000000000000000000000000602082015250565b6000612530602483611a09565b915061253b826124d4565b604082019050919050565b6000602082019050818103600083015261255f81612523565b9050919050565b7f43616d706169676e206973206e6f742061637469766500000000000000000000600082015250565b600061259c601683611a09565b91506125a782612566565b602082019050919050565b600060208201905081810360008301526125cb8161258f565b9050919050565b7f43616d706169676e20646561646c696e65206861732070617373656400000000600082015250565b6000612608601c83611a09565b9150612613826125d2565b602082019050919050565b60006020820190508181036000830152612637816125fb565b9050919050565b7f436f6e747269627574696f6e206d75737420626520677265617465722074686160008201527f6e20300000000000000000000000000000000000000000000000000000000000602082015250565b600061269a602383611a09565b91506126a58261263e565b604082019050919050565b600060208201905081810360008301526126c98161268d565b9050919050565b60006126db82611691565b91506126e683611691565b92508282019050808211156126fe576126fd61213d565b5b92915050565b600060608201905061271960008301866119a7565b6127266020830185611b6e565b61273360408301846119a7565b949350505050565b7f4f6e6c7920747265617375726572732063616e2077697468647261772066756e60008201527f6473000000000000000000000000000000000000000000000000000000000000602082015250565b6000612797602283611a09565b91506127a28261273b565b604082019050919050565b600060208201905081810360008301526127c68161278a565b9050919050565b7f43616d706169676e206d75737420626520636f6d706c65746564000000000000600082015250565b6000612803601a83611a09565b915061280e826127cd565b602082019050919050565b60006020820190508181036000830152612832816127f6565b9050919050565b7f43616e6e6f74207769746864726177206d6f7265207468616e20636f6c6c656360008201527f7465640000000000000000000000000000000000000000000000000000000000602082015250565b6000612895602383611a09565b91506128a082612839565b604082019050919050565b600060208201905081810360008301526128c481612888565b9050919050565b60006128d682611691565b91506128e183611691565b92508282039050818111156128f9576128f861213d565b5b9291505056fea2646970667358221220d9eb9490181b989aff4e0be50047af78a1c1f9d0c0df3ba9a4ea2db6a37b57ce64736f6c634300081c0033","opcodes":"PUSH1 0x80 PUSH1 0x40 MSTORE CALLVALUE DUP1 ISZERO PUSH2 0x10 JUMPI PUSH1 0x0 DUP1 REVERT JUMPDEST POP PUSH1 0x40 MLOAD PUSH2 0x2BBE CODESIZE SUB DUP1 PUSH2 0x2BBE DUP4 CODECOPY DUP2 DUP2 ADD PUSH1 0x40 MSTORE DUP2 ADD SWAP1 PUSH2 0x32 SWAP2 SWAP1 PUSH2 0x223 JUMP JUMPDEST CALLER PUSH1 0x0 PUSH20 0xFFFFFFFFFFFFFFFFFFFFFFFFFFFFFFFFFFFFFFFF AND DUP2 PUSH20 0xFFFFFFFFFFFFFFFFFFFFFFFFFFFFFFFFFFFFFFFF AND SUB PUSH2 0xA5 JUMPI PUSH1 0x0 PUSH1 0x40 MLOAD PUSH32 0x1E4FBDF700000000000000000000000000000000000000000000000000000000 DUP2 MSTORE PUSH1 0x4 ADD PUSH2 0x9C SWAP2 SWAP1 PUSH2 0x25F JUMP JUMPDEST PUSH1 0x40 MLOAD DUP1 SWAP2 SUB SWAP1 REVERT JUMPDEST PUSH2 0xB4 DUP2 PUSH2 0xFC PUSH1 0x20 SHL PUSH1 0x20 SHR JUMP JUMPDEST POP DUP1 PUSH1 0x4 PUSH1 0x0 PUSH2 0x100 EXP DUP2 SLOAD DUP2 PUSH20 0xFFFFFFFFFFFFFFFFFFFFFFFFFFFFFFFFFFFFFFFF MUL NOT AND SWAP1 DUP4 PUSH20 0xFFFFFFFFFFFFFFFFFFFFFFFFFFFFFFFFFFFFFFFF AND MUL OR SWAP1 SSTORE POP POP PUSH2 0x27A JUMP JUMPDEST PUSH1 0x0 DUP1 PUSH1 0x0 SWAP1 SLOAD SWAP1 PUSH2 0x100 EXP SWAP1 DIV PUSH20 0xFFFFFFFFFFFFFFFFFFFFFFFFFFFFFFFFFFFFFFFF AND SWAP1 POP DUP2 PUSH1 0x0 DUP1 PUSH2 0x100 EXP DUP2 SLOAD DUP2 PUSH20 0xFFFFFFFFFFFFFFFFFFFFFFFFFFFFFFFFFFFFFFFF MUL NOT AND SWAP1 DUP4 PUSH20 0xFFFFFFFFFFFFFFFFFFFFFFFFFFFFFFFFFFFFFFFF AND MUL OR SWAP1 SSTORE POP DUP2 PUSH20 0xFFFFFFFFFFFFFFFFFFFFFFFFFFFFFFFFFFFFFFFF AND DUP2 PUSH20 0xFFFFFFFFFFFFFFFFFFFFFFFFFFFFFFFFFFFFFFFF AND PUSH32 0x8BE0079C531659141344CD1FD0A4F28419497F9722A3DAAFE3B4186F6B6457E0 PUSH1 0x40 MLOAD PUSH1 0x40 MLOAD DUP1 SWAP2 SUB SWAP1 LOG3 POP POP JUMP JUMPDEST PUSH1 0x0 DUP1 REVERT JUMPDEST PUSH1 0x0 PUSH20 0xFFFFFFFFFFFFFFFFFFFFFFFFFFFFFFFFFFFFFFFF DUP3 AND SWAP1 POP SWAP2 SWAP1 POP JUMP JUMPDEST PUSH1 0x0 PUSH2 0x1F0 DUP3 PUSH2 0x1C5 JUMP JUMPDEST SWAP1 POP SWAP2 SWAP1 POP JUMP JUMPDEST PUSH2 0x200 DUP2 PUSH2 0x1E5 JUMP JUMPDEST DUP2 EQ PUSH2 0x20B JUMPI PUSH1 0x0 DUP1 REVERT JUMPDEST POP JUMP JUMPDEST PUSH1 0x0 DUP2 MLOAD SWAP1 POP PUSH2 0x21D DUP2 PUSH2 0x1F7 JUMP JUMPDEST SWAP3 SWAP2 POP POP JUMP JUMPDEST PUSH1 0x0 PUSH1 0x20 DUP3 DUP5 SUB SLT ISZERO PUSH2 0x239 JUMPI PUSH2 0x238 PUSH2 0x1C0 JUMP JUMPDEST JUMPDEST PUSH1 0x0 PUSH2 0x247 DUP5 DUP3 DUP6 ADD PUSH2 0x20E JUMP JUMPDEST SWAP2 POP POP SWAP3 SWAP2 POP POP JUMP JUMPDEST PUSH2 0x259 DUP2 PUSH2 0x1E5 JUMP JUMPDEST DUP3 MSTORE POP POP JUMP JUMPDEST PUSH1 0x0 PUSH1 0x20 DUP3 ADD SWAP1 POP PUSH2 0x274 PUSH1 0x0 DUP4 ADD DUP5 PUSH2 0x250 JUMP JUMPDEST SWAP3 SWAP2 POP POP JUMP JUMPDEST PUSH2 0x2935 DUP1 PUSH2 0x289 PUSH1 0x0 CODECOPY PUSH1 0x0 RETURN INVALID PUSH1 0x80 PUSH1 0x40 MSTORE PUSH1 0x4 CALLDATASIZE LT PUSH2 0xDD JUMPI PUSH1 0x0 CALLDATALOAD PUSH1 0xE0 SHR DUP1 PUSH4 0x8135F3CC GT PUSH2 0x7F JUMPI DUP1 PUSH4 0xD993DE62 GT PUSH2 0x59 JUMPI DUP1 PUSH4 0xD993DE62 EQ PUSH2 0x2BB JUMPI DUP1 PUSH4 0xE081DBF9 EQ PUSH2 0x2FE JUMPI DUP1 PUSH4 0xF2FDE38B EQ PUSH2 0x33B JUMPI DUP1 PUSH4 0xF8F34CDE EQ PUSH2 0x364 JUMPI PUSH2 0xDD JUMP JUMPDEST DUP1 PUSH4 0x8135F3CC EQ PUSH2 0x236 JUMPI DUP1 PUSH4 0x8DA5CB5B EQ PUSH2 0x274 JUMPI DUP1 PUSH4 0xC1CBBCA7 EQ PUSH2 0x29F JUMPI PUSH2 0xDD JUMP JUMPDEST DUP1 PUSH4 0x3D891F59 GT PUSH2 0xBB JUMPI DUP1 PUSH4 0x3D891F59 EQ PUSH2 0x18E JUMPI DUP1 PUSH4 0x45598B4A EQ PUSH2 0x1CB JUMPI DUP1 PUSH4 0x715018A6 EQ PUSH2 0x1F4 JUMPI DUP1 PUSH4 0x7274E30D EQ PUSH2 0x20B JUMPI PUSH2 0xDD JUMP JUMPDEST DUP1 PUSH4 0xB5C2CBD EQ PUSH2 0xE2 JUMPI DUP1 PUSH4 0x141961BC EQ PUSH2 0x11F JUMPI DUP1 PUSH4 0x36ABAC29 EQ PUSH2 0x163 JUMPI JUMPDEST PUSH1 0x0 DUP1 REVERT JUMPDEST CALLVALUE DUP1 ISZERO PUSH2 0xEE JUMPI PUSH1 0x0 DUP1 REVERT JUMPDEST POP PUSH2 0x109 PUSH1 0x4 DUP1 CALLDATASIZE SUB DUP2 ADD SWAP1 PUSH2 0x104 SWAP2 SWAP1 PUSH2 0x1895 JUMP JUMPDEST PUSH2 0x38D JUMP JUMPDEST PUSH1 0x40 MLOAD PUSH2 0x116 SWAP2 SWAP1 PUSH2 0x19B6 JUMP JUMPDEST PUSH1 0x40 MLOAD DUP1 SWAP2 SUB SWAP1 RETURN JUMPDEST CALLVALUE DUP1 ISZERO PUSH2 0x12B JUMPI PUSH1 0x0 DUP1 REVERT JUMPDEST POP PUSH2 0x146 PUSH1 0x4 DUP1 CALLDATASIZE SUB DUP2 ADD SWAP1 PUSH2 0x141 SWAP2 SWAP1 PUSH2 0x19D1 JUMP JUMPDEST PUSH2 0x696 JUMP JUMPDEST PUSH1 0x40 MLOAD PUSH2 0x15A SWAP9 SWAP8 SWAP7 SWAP6 SWAP5 SWAP4 SWAP3 SWAP2 SWAP1 PUSH2 0x1B7D JUMP JUMPDEST PUSH1 0x40 MLOAD DUP1 SWAP2 SUB SWAP1 RETURN JUMPDEST CALLVALUE DUP1 ISZERO PUSH2 0x16F JUMPI PUSH1 0x0 DUP1 REVERT JUMPDEST POP PUSH2 0x178 PUSH2 0x828 JUMP JUMPDEST PUSH1 0x40 MLOAD PUSH2 0x185 SWAP2 SWAP1 PUSH2 0x1C68 JUMP JUMPDEST PUSH1 0x40 MLOAD DUP1 SWAP2 SUB SWAP1 RETURN JUMPDEST CALLVALUE DUP1 ISZERO PUSH2 0x19A JUMPI PUSH1 0x0 DUP1 REVERT JUMPDEST POP PUSH2 0x1B5 PUSH1 0x4 DUP1 CALLDATASIZE SUB DUP2 ADD SWAP1 PUSH2 0x1B0 SWAP2 SWAP1 PUSH2 0x1CAF JUMP JUMPDEST PUSH2 0x84E JUMP JUMPDEST PUSH1 0x40 MLOAD PUSH2 0x1C2 SWAP2 SWAP1 PUSH2 0x19B6 JUMP JUMPDEST PUSH1 0x40 MLOAD DUP1 SWAP2 SUB SWAP1 RETURN JUMPDEST CALLVALUE DUP1 ISZERO PUSH2 0x1D7 JUMPI PUSH1 0x0 DUP1 REVERT JUMPDEST POP PUSH2 0x1F2 PUSH1 0x4 DUP1 CALLDATASIZE SUB DUP2 ADD SWAP1 PUSH2 0x1ED SWAP2 SWAP1 PUSH2 0x19D1 JUMP JUMPDEST PUSH2 0x873 JUMP JUMPDEST STOP JUMPDEST CALLVALUE DUP1 ISZERO PUSH2 0x200 JUMPI PUSH1 0x0 DUP1 REVERT JUMPDEST POP PUSH2 0x209 PUSH2 0xA45 JUMP JUMPDEST STOP JUMPDEST CALLVALUE DUP1 ISZERO PUSH2 0x217 JUMPI PUSH1 0x0 DUP1 REVERT JUMPDEST POP PUSH2 0x220 PUSH2 0xA59 JUMP JUMPDEST PUSH1 0x40 MLOAD PUSH2 0x22D SWAP2 SWAP1 PUSH2 0x19B6 JUMP JUMPDEST PUSH1 0x40 MLOAD DUP1 SWAP2 SUB SWAP1 RETURN JUMPDEST CALLVALUE DUP1 ISZERO PUSH2 0x242 JUMPI PUSH1 0x0 DUP1 REVERT JUMPDEST POP PUSH2 0x25D PUSH1 0x4 DUP1 CALLDATASIZE SUB DUP2 ADD SWAP1 PUSH2 0x258 SWAP2 SWAP1 PUSH2 0x19D1 JUMP JUMPDEST PUSH2 0xA5F JUMP JUMPDEST PUSH1 0x40 MLOAD PUSH2 0x26B SWAP3 SWAP2 SWAP1 PUSH2 0x1EB9 JUMP JUMPDEST PUSH1 0x40 MLOAD DUP1 SWAP2 SUB SWAP1 RETURN JUMPDEST CALLVALUE DUP1 ISZERO PUSH2 0x280 JUMPI PUSH1 0x0 DUP1 REVERT JUMPDEST POP PUSH2 0x289 PUSH2 0xBB0 JUMP JUMPDEST PUSH1 0x40 MLOAD PUSH2 0x296 SWAP2 SWAP1 PUSH2 0x1EF0 JUMP JUMPDEST PUSH1 0x40 MLOAD DUP1 SWAP2 SUB SWAP1 RETURN JUMPDEST PUSH2 0x2B9 PUSH1 0x4 DUP1 CALLDATASIZE SUB DUP2 ADD SWAP1 PUSH2 0x2B4 SWAP2 SWAP1 PUSH2 0x19D1 JUMP JUMPDEST PUSH2 0xBD9 JUMP JUMPDEST STOP JUMPDEST CALLVALUE DUP1 ISZERO PUSH2 0x2C7 JUMPI PUSH1 0x0 DUP1 REVERT JUMPDEST POP PUSH2 0x2E2 PUSH1 0x4 DUP1 CALLDATASIZE SUB DUP2 ADD SWAP1 PUSH2 0x2DD SWAP2 SWAP1 PUSH2 0x19D1 JUMP JUMPDEST PUSH2 0xE35 JUMP JUMPDEST PUSH1 0x40 MLOAD PUSH2 0x2F5 SWAP8 SWAP7 SWAP6 SWAP5 SWAP4 SWAP3 SWAP2 SWAP1 PUSH2 0x1F0B JUMP JUMPDEST PUSH1 0x40 MLOAD DUP1 SWAP2 SUB SWAP1 RETURN JUMPDEST CALLVALUE DUP1 ISZERO PUSH2 0x30A JUMPI PUSH1 0x0 DUP1 REVERT JUMPDEST POP PUSH2 0x325 PUSH1 0x4 DUP1 CALLDATASIZE SUB DUP2 ADD SWAP1 PUSH2 0x320 SWAP2 SWAP1 PUSH2 0x1CAF JUMP JUMPDEST PUSH2 0xFC3 JUMP JUMPDEST PUSH1 0x40 MLOAD PUSH2 0x332 SWAP2 SWAP1 PUSH2 0x19B6 JUMP JUMPDEST PUSH1 0x40 MLOAD DUP1 SWAP2 SUB SWAP1 RETURN JUMPDEST CALLVALUE DUP1 ISZERO PUSH2 0x347 JUMPI PUSH1 0x0 DUP1 REVERT JUMPDEST POP PUSH2 0x362 PUSH1 0x4 DUP1 CALLDATASIZE SUB DUP2 ADD SWAP1 PUSH2 0x35D SWAP2 SWAP1 PUSH2 0x1F88 JUMP JUMPDEST PUSH2 0x101E JUMP JUMPDEST STOP JUMPDEST CALLVALUE DUP1 ISZERO PUSH2 0x370 JUMPI PUSH1 0x0 DUP1 REVERT JUMPDEST POP PUSH2 0x38B PUSH1 0x4 DUP1 CALLDATASIZE SUB DUP2 ADD SWAP1 PUSH2 0x386 SWAP2 SWAP1 PUSH2 0x1FF3 JUMP JUMPDEST PUSH2 0x10A4 JUMP JUMPDEST STOP JUMPDEST PUSH1 0x0 PUSH1 0x4 PUSH1 0x0 SWAP1 SLOAD SWAP1 PUSH2 0x100 EXP SWAP1 DIV PUSH20 0xFFFFFFFFFFFFFFFFFFFFFFFFFFFFFFFFFFFFFFFF AND PUSH20 0xFFFFFFFFFFFFFFFFFFFFFFFFFFFFFFFFFFFFFFFF AND PUSH4 0xCC0D50E6 CALLER PUSH1 0x40 MLOAD DUP3 PUSH4 0xFFFFFFFF AND PUSH1 0xE0 SHL DUP2 MSTORE PUSH1 0x4 ADD PUSH2 0x3EA SWAP2 SWAP1 PUSH2 0x1EF0 JUMP JUMPDEST PUSH1 0x20 PUSH1 0x40 MLOAD DUP1 DUP4 SUB DUP2 DUP7 GAS STATICCALL ISZERO DUP1 ISZERO PUSH2 0x407 JUMPI RETURNDATASIZE PUSH1 0x0 DUP1 RETURNDATACOPY RETURNDATASIZE PUSH1 0x0 REVERT JUMPDEST POP POP POP POP PUSH1 0x40 MLOAD RETURNDATASIZE PUSH1 0x1F NOT PUSH1 0x1F DUP3 ADD AND DUP3 ADD DUP1 PUSH1 0x40 MSTORE POP DUP2 ADD SWAP1 PUSH2 0x42B SWAP2 SWAP1 PUSH2 0x207E JUMP JUMPDEST PUSH2 0x46A JUMPI PUSH1 0x40 MLOAD PUSH32 0x8C379A000000000000000000000000000000000000000000000000000000000 DUP2 MSTORE PUSH1 0x4 ADD PUSH2 0x461 SWAP1 PUSH2 0x211D JUMP JUMPDEST PUSH1 0x40 MLOAD DUP1 SWAP2 SUB SWAP1 REVERT JUMPDEST PUSH1 0x0 PUSH1 0x3 PUSH1 0x0 DUP2 SLOAD DUP1 SWAP3 SWAP2 SWAP1 PUSH2 0x47F SWAP1 PUSH2 0x216C JUMP JUMPDEST SWAP2 SWAP1 POP SSTORE SWAP1 POP PUSH1 0x40 MLOAD DUP1 PUSH2 0x140 ADD PUSH1 0x40 MSTORE DUP1 DUP11 DUP2 MSTORE PUSH1 0x20 ADD DUP10 DUP2 MSTORE PUSH1 0x20 ADD DUP9 DUP2 MSTORE PUSH1 0x20 ADD PUSH1 0x0 DUP2 MSTORE PUSH1 0x20 ADD DUP8 DUP2 MSTORE PUSH1 0x20 ADD DUP7 PUSH1 0x2 DUP2 GT ISZERO PUSH2 0x4C3 JUMPI PUSH2 0x4C2 PUSH2 0x1A7D JUMP JUMPDEST JUMPDEST DUP2 MSTORE PUSH1 0x20 ADD PUSH1 0x0 PUSH1 0x2 DUP2 GT ISZERO PUSH2 0x4DC JUMPI PUSH2 0x4DB PUSH2 0x1A7D JUMP JUMPDEST JUMPDEST DUP2 MSTORE PUSH1 0x20 ADD CALLER PUSH20 0xFFFFFFFFFFFFFFFFFFFFFFFFFFFFFFFFFFFFFFFF AND DUP2 MSTORE PUSH1 0x20 ADD DUP6 DUP2 MSTORE PUSH1 0x20 ADD DUP5 DUP2 MSTORE POP PUSH1 0x1 PUSH1 0x0 DUP4 DUP2 MSTORE PUSH1 0x20 ADD SWAP1 DUP2 MSTORE PUSH1 0x20 ADD PUSH1 0x0 KECCAK256 PUSH1 0x0 DUP3 ADD MLOAD DUP2 PUSH1 0x0 ADD SWAP1 DUP2 PUSH2 0x52F SWAP2 SWAP1 PUSH2 0x23B6 JUMP JUMPDEST POP PUSH1 0x20 DUP3 ADD MLOAD DUP2 PUSH1 0x1 ADD SWAP1 DUP2 PUSH2 0x545 SWAP2 SWAP1 PUSH2 0x23B6 JUMP JUMPDEST POP PUSH1 0x40 DUP3 ADD MLOAD DUP2 PUSH1 0x2 ADD SSTORE PUSH1 0x60 DUP3 ADD MLOAD DUP2 PUSH1 0x3 ADD SSTORE PUSH1 0x80 DUP3 ADD MLOAD DUP2 PUSH1 0x4 ADD SSTORE PUSH1 0xA0 DUP3 ADD MLOAD DUP2 PUSH1 0x5 ADD PUSH1 0x0 PUSH2 0x100 EXP DUP2 SLOAD DUP2 PUSH1 0xFF MUL NOT AND SWAP1 DUP4 PUSH1 0x2 DUP2 GT ISZERO PUSH2 0x58F JUMPI PUSH2 0x58E PUSH2 0x1A7D JUMP JUMPDEST JUMPDEST MUL OR SWAP1 SSTORE POP PUSH1 0xC0 DUP3 ADD MLOAD DUP2 PUSH1 0x5 ADD PUSH1 0x1 PUSH2 0x100 EXP DUP2 SLOAD DUP2 PUSH1 0xFF MUL NOT AND SWAP1 DUP4 PUSH1 0x2 DUP2 GT ISZERO PUSH2 0x5BF JUMPI PUSH2 0x5BE PUSH2 0x1A7D JUMP JUMPDEST JUMPDEST MUL OR SWAP1 SSTORE POP PUSH1 0xE0 DUP3 ADD MLOAD DUP2 PUSH1 0x5 ADD PUSH1 0x2 PUSH2 0x100 EXP DUP2 SLOAD DUP2 PUSH20 0xFFFFFFFFFFFFFFFFFFFFFFFFFFFFFFFFFFFFFFFF MUL NOT AND SWAP1 DUP4 PUSH20 0xFFFFFFFFFFFFFFFFFFFFFFFFFFFFFFFFFFFFFFFF AND MUL OR SWAP1 SSTORE POP PUSH2 0x100 DUP3 ADD MLOAD DUP2 PUSH1 0x6 ADD SWAP1 DUP1 MLOAD SWAP1 PUSH1 0x20 ADD SWAP1 PUSH2 0x628 SWAP3 SWAP2 SWAP1 PUSH2 0x1410 JUMP JUMPDEST POP PUSH2 0x120 DUP3 ADD MLOAD DUP2 PUSH1 0x7 ADD SWAP1 DUP1 MLOAD SWAP1 PUSH1 0x20 ADD SWAP1 PUSH2 0x646 SWAP3 SWAP2 SWAP1 PUSH2 0x1469 JUMP JUMPDEST POP SWAP1 POP POP PUSH32 0x6FC7A1DE3CCFC251ACAB8F2F41819123CD49F5DA653AD8E7D5CA2F5E8FF76572 DUP2 DUP11 DUP10 CALLER PUSH1 0x40 MLOAD PUSH2 0x67F SWAP5 SWAP4 SWAP3 SWAP2 SWAP1 PUSH2 0x2488 JUMP JUMPDEST PUSH1 0x40 MLOAD DUP1 SWAP2 SUB SWAP1 LOG1 DUP1 SWAP2 POP POP SWAP8 SWAP7 POP POP POP POP POP POP POP JUMP JUMPDEST PUSH1 0x1 PUSH1 0x20 MSTORE DUP1 PUSH1 0x0 MSTORE PUSH1 0x40 PUSH1 0x0 KECCAK256 PUSH1 0x0 SWAP2 POP SWAP1 POP DUP1 PUSH1 0x0 ADD DUP1 SLOAD PUSH2 0x6B9 SWAP1 PUSH2 0x21E3 JUMP JUMPDEST DUP1 PUSH1 0x1F ADD PUSH1 0x20 DUP1 SWAP2 DIV MUL PUSH1 0x20 ADD PUSH1 0x40 MLOAD SWAP1 DUP2 ADD PUSH1 0x40 MSTORE DUP1 SWAP3 SWAP2 SWAP1 DUP2 DUP2 MSTORE PUSH1 0x20 ADD DUP3 DUP1 SLOAD PUSH2 0x6E5 SWAP1 PUSH2 0x21E3 JUMP JUMPDEST DUP1 ISZERO PUSH2 0x732 JUMPI DUP1 PUSH1 0x1F LT PUSH2 0x707 JUMPI PUSH2 0x100 DUP1 DUP4 SLOAD DIV MUL DUP4 MSTORE SWAP2 PUSH1 0x20 ADD SWAP2 PUSH2 0x732 JUMP JUMPDEST DUP3 ADD SWAP2 SWAP1 PUSH1 0x0 MSTORE PUSH1 0x20 PUSH1 0x0 KECCAK256 SWAP1 JUMPDEST DUP2 SLOAD DUP2 MSTORE SWAP1 PUSH1 0x1 ADD SWAP1 PUSH1 0x20 ADD DUP1 DUP4 GT PUSH2 0x715 JUMPI DUP3 SWAP1 SUB PUSH1 0x1F AND DUP3 ADD SWAP2 JUMPDEST POP POP POP POP POP SWAP1 DUP1 PUSH1 0x1 ADD DUP1 SLOAD PUSH2 0x747 SWAP1 PUSH2 0x21E3 JUMP JUMPDEST DUP1 PUSH1 0x1F ADD PUSH1 0x20 DUP1 SWAP2 DIV MUL PUSH1 0x20 ADD PUSH1 0x40 MLOAD SWAP1 DUP2 ADD PUSH1 0x40 MSTORE DUP1 SWAP3 SWAP2 SWAP1 DUP2 DUP2 MSTORE PUSH1 0x20 ADD DUP3 DUP1 SLOAD PUSH2 0x773 SWAP1 PUSH2 0x21E3 JUMP JUMPDEST DUP1 ISZERO PUSH2 0x7C0 JUMPI DUP1 PUSH1 0x1F LT PUSH2 0x795 JUMPI PUSH2 0x100 DUP1 DUP4 SLOAD DIV MUL DUP4 MSTORE SWAP2 PUSH1 0x20 ADD SWAP2 PUSH2 0x7C0 JUMP JUMPDEST DUP3 ADD SWAP2 SWAP1 PUSH1 0x0 MSTORE PUSH1 0x20 PUSH1 0x0 KECCAK256 SWAP1 JUMPDEST DUP2 SLOAD DUP2 MSTORE SWAP1 PUSH1 0x1 ADD SWAP1 PUSH1 0x20 ADD DUP1 DUP4 GT PUSH2 0x7A3 JUMPI DUP3 SWAP1 SUB PUSH1 0x1F AND DUP3 ADD SWAP2 JUMPDEST POP POP POP POP POP SWAP1 DUP1 PUSH1 0x2 ADD SLOAD SWAP1 DUP1 PUSH1 0x3 ADD SLOAD SWAP1 DUP1 PUSH1 0x4 ADD SLOAD SWAP1 DUP1 PUSH1 0x5 ADD PUSH1 0x0 SWAP1 SLOAD SWAP1 PUSH2 0x100 EXP SWAP1 DIV PUSH1 0xFF AND SWAP1 DUP1 PUSH1 0x5 ADD PUSH1 0x1 SWAP1 SLOAD SWAP1 PUSH2 0x100 EXP SWAP1 DIV PUSH1 0xFF AND SWAP1 DUP1 PUSH1 0x5 ADD PUSH1 0x2 SWAP1 SLOAD SWAP1 PUSH2 0x100 EXP SWAP1 DIV PUSH20 0xFFFFFFFFFFFFFFFFFFFFFFFFFFFFFFFFFFFFFFFF AND SWAP1 POP DUP9 JUMP JUMPDEST PUSH1 0x4 PUSH1 0x0 SWAP1 SLOAD SWAP1 PUSH2 0x100 EXP SWAP1 DIV PUSH20 0xFFFFFFFFFFFFFFFFFFFFFFFFFFFFFFFFFFFFFFFF AND DUP2 JUMP JUMPDEST PUSH1 0x2 PUSH1 0x20 MSTORE DUP2 PUSH1 0x0 MSTORE PUSH1 0x40 PUSH1 0x0 KECCAK256 PUSH1 0x20 MSTORE DUP1 PUSH1 0x0 MSTORE PUSH1 0x40 PUSH1 0x0 KECCAK256 PUSH1 0x0 SWAP2 POP SWAP2 POP POP SLOAD DUP2 JUMP JUMPDEST PUSH1 0x0 PUSH1 0x1 PUSH1 0x0 DUP4 DUP2 MSTORE PUSH1 0x20 ADD SWAP1 DUP2 MSTORE PUSH1 0x20 ADD PUSH1 0x0 KECCAK256 SWAP1 POP PUSH1 0x4 PUSH1 0x0 SWAP1 SLOAD SWAP1 PUSH2 0x100 EXP SWAP1 DIV PUSH20 0xFFFFFFFFFFFFFFFFFFFFFFFFFFFFFFFFFFFFFFFF AND PUSH20 0xFFFFFFFFFFFFFFFFFFFFFFFFFFFFFFFFFFFFFFFF AND PUSH4 0xCC0D50E6 CALLER PUSH1 0x40 MLOAD DUP3 PUSH4 0xFFFFFFFF AND PUSH1 0xE0 SHL DUP2 MSTORE PUSH1 0x4 ADD PUSH2 0x8E5 SWAP2 SWAP1 PUSH2 0x1EF0 JUMP JUMPDEST PUSH1 0x20 PUSH1 0x40 MLOAD DUP1 DUP4 SUB DUP2 DUP7 GAS STATICCALL ISZERO DUP1 ISZERO PUSH2 0x902 JUMPI RETURNDATASIZE PUSH1 0x0 DUP1 RETURNDATACOPY RETURNDATASIZE PUSH1 0x0 REVERT JUMPDEST POP POP POP POP PUSH1 0x40 MLOAD RETURNDATASIZE PUSH1 0x1F NOT PUSH1 0x1F DUP3 ADD AND DUP3 ADD DUP1 PUSH1 0x40 MSTORE POP DUP2 ADD SWAP1 PUSH2 0x926 SWAP2 SWAP1 PUSH2 0x207E JUMP JUMPDEST PUSH2 0x965 JUMPI PUSH1 0x40 MLOAD PUSH32 0x8C379A000000000000000000000000000000000000000000000000000000000 DUP2 MSTORE PUSH1 0x4 ADD PUSH2 0x95C SWAP1 PUSH2 0x2546 JUMP JUMPDEST PUSH1 0x40 MLOAD DUP1 SWAP2 SUB SWAP1 REVERT JUMPDEST PUSH1 0x0 PUSH1 0x2 DUP2 GT ISZERO PUSH2 0x979 JUMPI PUSH2 0x978 PUSH2 0x1A7D JUMP JUMPDEST JUMPDEST DUP2 PUSH1 0x5 ADD PUSH1 0x1 SWAP1 SLOAD SWAP1 PUSH2 0x100 EXP SWAP1 DIV PUSH1 0xFF AND PUSH1 0x2 DUP2 GT ISZERO PUSH2 0x99D JUMPI PUSH2 0x99C PUSH2 0x1A7D JUMP JUMPDEST JUMPDEST EQ PUSH2 0x9DD JUMPI PUSH1 0x40 MLOAD PUSH32 0x8C379A000000000000000000000000000000000000000000000000000000000 DUP2 MSTORE PUSH1 0x4 ADD PUSH2 0x9D4 SWAP1 PUSH2 0x25B2 JUMP JUMPDEST PUSH1 0x40 MLOAD DUP1 SWAP2 SUB SWAP1 REVERT JUMPDEST PUSH1 0x2 DUP2 PUSH1 0x5 ADD PUSH1 0x1 PUSH2 0x100 EXP DUP2 SLOAD DUP2 PUSH1 0xFF MUL NOT AND SWAP1 DUP4 PUSH1 0x2 DUP2 GT ISZERO PUSH2 0xA05 JUMPI PUSH2 0xA04 PUSH2 0x1A7D JUMP JUMPDEST JUMPDEST MUL OR SWAP1 SSTORE POP PUSH32 0x403B6718DB13878AC16C27DECB08F09D3A10F116C7C25AF575FF5BFBC11AE9E6 DUP3 PUSH1 0x40 MLOAD PUSH2 0xA39 SWAP2 SWAP1 PUSH2 0x19B6 JUMP JUMPDEST PUSH1 0x40 MLOAD DUP1 SWAP2 SUB SWAP1 LOG1 POP POP JUMP JUMPDEST PUSH2 0xA4D PUSH2 0x12BD JUMP JUMPDEST PUSH2 0xA57 PUSH1 0x0 PUSH2 0x1344 JUMP JUMPDEST JUMP JUMPDEST PUSH1 0x3 SLOAD DUP2 JUMP JUMPDEST PUSH1 0x60 DUP1 PUSH1 0x0 PUSH1 0x1 PUSH1 0x0 DUP6 DUP2 MSTORE PUSH1 0x20 ADD SWAP1 DUP2 MSTORE PUSH1 0x20 ADD PUSH1 0x0 KECCAK256 SWAP1 POP DUP1 PUSH1 0x6 ADD DUP2 PUSH1 0x7 ADD DUP2 DUP1 SLOAD DUP1 PUSH1 0x20 MUL PUSH1 0x20 ADD PUSH1 0x40 MLOAD SWAP1 DUP2 ADD PUSH1 0x40 MSTORE DUP1 SWAP3 SWAP2 SWAP1 DUP2 DUP2 MSTORE PUSH1 0x20 ADD PUSH1 0x0 SWAP1 JUMPDEST DUP3 DUP3 LT ISZERO PUSH2 0xB4E JUMPI DUP4 DUP3 SWAP1 PUSH1 0x0 MSTORE PUSH1 0x20 PUSH1 0x0 KECCAK256 ADD DUP1 SLOAD PUSH2 0xAC1 SWAP1 PUSH2 0x21E3 JUMP JUMPDEST DUP1 PUSH1 0x1F ADD PUSH1 0x20 DUP1 SWAP2 DIV MUL PUSH1 0x20 ADD PUSH1 0x40 MLOAD SWAP1 DUP2 ADD PUSH1 0x40 MSTORE DUP1 SWAP3 SWAP2 SWAP1 DUP2 DUP2 MSTORE PUSH1 0x20 ADD DUP3 DUP1 SLOAD PUSH2 0xAED SWAP1 PUSH2 0x21E3 JUMP JUMPDEST DUP1 ISZERO PUSH2 0xB3A JUMPI DUP1 PUSH1 0x1F LT PUSH2 0xB0F JUMPI PUSH2 0x100 DUP1 DUP4 SLOAD DIV MUL DUP4 MSTORE SWAP2 PUSH1 0x20 ADD SWAP2 PUSH2 0xB3A JUMP JUMPDEST DUP3 ADD SWAP2 SWAP1 PUSH1 0x0 MSTORE PUSH1 0x20 PUSH1 0x0 KECCAK256 SWAP1 JUMPDEST DUP2 SLOAD DUP2 MSTORE SWAP1 PUSH1 0x1 ADD SWAP1 PUSH1 0x20 ADD DUP1 DUP4 GT PUSH2 0xB1D JUMPI DUP3 SWAP1 SUB PUSH1 0x1F AND DUP3 ADD SWAP2 JUMPDEST POP POP POP POP POP DUP2 MSTORE PUSH1 0x20 ADD SWAP1 PUSH1 0x1 ADD SWAP1 PUSH2 0xAA2 JUMP JUMPDEST POP POP POP POP SWAP2 POP DUP1 DUP1 SLOAD DUP1 PUSH1 0x20 MUL PUSH1 0x20 ADD PUSH1 0x40 MLOAD SWAP1 DUP2 ADD PUSH1 0x40 MSTORE DUP1 SWAP3 SWAP2 SWAP1 DUP2 DUP2 MSTORE PUSH1 0x20 ADD DUP3 DUP1 SLOAD DUP1 ISZERO PUSH2 0xB9F JUMPI PUSH1 0x20 MUL DUP3 ADD SWAP2 SWAP1 PUSH1 0x0 MSTORE PUSH1 0x20 PUSH1 0x0 KECCAK256 SWAP1 JUMPDEST DUP2 SLOAD DUP2 MSTORE PUSH1 0x20 ADD SWAP1 PUSH1 0x1 ADD SWAP1 DUP1 DUP4 GT PUSH2 0xB8B JUMPI JUMPDEST POP POP POP POP POP SWAP1 POP SWAP3 POP SWAP3 POP POP SWAP2 POP SWAP2 JUMP JUMPDEST PUSH1 0x0 DUP1 PUSH1 0x0 SWAP1 SLOAD SWAP1 PUSH2 0x100 EXP SWAP1 DIV PUSH20 0xFFFFFFFFFFFFFFFFFFFFFFFFFFFFFFFFFFFFFFFF AND SWAP1 POP SWAP1 JUMP JUMPDEST PUSH1 0x0 PUSH1 0x1 PUSH1 0x0 DUP4 DUP2 MSTORE PUSH1 0x20 ADD SWAP1 DUP2 MSTORE PUSH1 0x20 ADD PUSH1 0x0 KECCAK256 SWAP1 POP PUSH1 0x0 PUSH1 0x2 DUP2 GT ISZERO PUSH2 0xC04 JUMPI PUSH2 0xC03 PUSH2 0x1A7D JUMP JUMPDEST JUMPDEST DUP2 PUSH1 0x5 ADD PUSH1 0x1 SWAP1 SLOAD SWAP1 PUSH2 0x100 EXP SWAP1 DIV PUSH1 0xFF AND PUSH1 0x2 DUP2 GT ISZERO PUSH2 0xC28 JUMPI PUSH2 0xC27 PUSH2 0x1A7D JUMP JUMPDEST JUMPDEST EQ PUSH2 0xC68 JUMPI PUSH1 0x40 MLOAD PUSH32 0x8C379A000000000000000000000000000000000000000000000000000000000 DUP2 MSTORE PUSH1 0x4 ADD PUSH2 0xC5F SWAP1 PUSH2 0x25B2 JUMP JUMPDEST PUSH1 0x40 MLOAD DUP1 SWAP2 SUB SWAP1 REVERT JUMPDEST DUP1 PUSH1 0x4 ADD SLOAD TIMESTAMP LT DUP1 PUSH2 0xC7E JUMPI POP PUSH1 0x0 DUP2 PUSH1 0x4 ADD SLOAD EQ JUMPDEST PUSH2 0xCBD JUMPI PUSH1 0x40 MLOAD PUSH32 0x8C379A000000000000000000000000000000000000000000000000000000000 DUP2 MSTORE PUSH1 0x4 ADD PUSH2 0xCB4 SWAP1 PUSH2 0x261E JUMP JUMPDEST PUSH1 0x40 MLOAD DUP1 SWAP2 SUB SWAP1 REVERT JUMPDEST PUSH1 0x0 CALLVALUE GT PUSH2 0xD00 JUMPI PUSH1 0x40 MLOAD PUSH32 0x8C379A000000000000000000000000000000000000000000000000000000000 DUP2 MSTORE PUSH1 0x4 ADD PUSH2 0xCF7 SWAP1 PUSH2 0x26B0 JUMP JUMPDEST PUSH1 0x40 MLOAD DUP1 SWAP2 SUB SWAP1 REVERT JUMPDEST CALLVALUE DUP2 PUSH1 0x3 ADD PUSH1 0x0 DUP3 DUP3 SLOAD PUSH2 0xD14 SWAP2 SWAP1 PUSH2 0x26D0 JUMP JUMPDEST SWAP3 POP POP DUP2 SWAP1 SSTORE POP CALLVALUE PUSH1 0x2 PUSH1 0x0 DUP5 DUP2 MSTORE PUSH1 0x20 ADD SWAP1 DUP2 MSTORE PUSH1 0x20 ADD PUSH1 0x0 KECCAK256 PUSH1 0x0 CALLER PUSH20 0xFFFFFFFFFFFFFFFFFFFFFFFFFFFFFFFFFFFFFFFF AND PUSH20 0xFFFFFFFFFFFFFFFFFFFFFFFFFFFFFFFFFFFFFFFF AND DUP2 MSTORE PUSH1 0x20 ADD SWAP1 DUP2 MSTORE PUSH1 0x20 ADD PUSH1 0x0 KECCAK256 PUSH1 0x0 DUP3 DUP3 SLOAD PUSH2 0xD7B SWAP2 SWAP1 PUSH2 0x26D0 JUMP JUMPDEST SWAP3 POP POP DUP2 SWAP1 SSTORE POP PUSH32 0xB5C5EA1A898780D7E2FA7E4B8EC6D8BA4FDCF3BE360BB5E76AE40E4769053A19 DUP3 CALLER CALLVALUE PUSH1 0x40 MLOAD PUSH2 0xDB5 SWAP4 SWAP3 SWAP2 SWAP1 PUSH2 0x2704 JUMP JUMPDEST PUSH1 0x40 MLOAD DUP1 SWAP2 SUB SWAP1 LOG1 DUP1 PUSH1 0x2 ADD SLOAD DUP2 PUSH1 0x3 ADD SLOAD LT PUSH2 0xE31 JUMPI PUSH1 0x1 DUP2 PUSH1 0x5 ADD PUSH1 0x1 PUSH2 0x100 EXP DUP2 SLOAD DUP2 PUSH1 0xFF MUL NOT AND SWAP1 DUP4 PUSH1 0x2 DUP2 GT ISZERO PUSH2 0xDF4 JUMPI PUSH2 0xDF3 PUSH2 0x1A7D JUMP JUMPDEST JUMPDEST MUL OR SWAP1 SSTORE POP PUSH32 0xBDEF6A2E3AA892961A2DAB48272F72F2BC1C7121EB1C0ED7E4A58E081C1E4BE0 DUP3 PUSH1 0x40 MLOAD PUSH2 0xE28 SWAP2 SWAP1 PUSH2 0x19B6 JUMP JUMPDEST PUSH1 0x40 MLOAD DUP1 SWAP2 SUB SWAP1 LOG1 JUMPDEST POP POP JUMP JUMPDEST PUSH1 0x60 DUP1 PUSH1 0x0 DUP1 PUSH1 0x0 DUP1 PUSH1 0x0 DUP1 PUSH1 0x1 PUSH1 0x0 DUP11 DUP2 MSTORE PUSH1 0x20 ADD SWAP1 DUP2 MSTORE PUSH1 0x20 ADD PUSH1 0x0 KECCAK256 SWAP1 POP DUP1 PUSH1 0x0 ADD DUP2 PUSH1 0x1 ADD DUP3 PUSH1 0x2 ADD SLOAD DUP4 PUSH1 0x3 ADD SLOAD DUP5 PUSH1 0x4 ADD SLOAD DUP6 PUSH1 0x5 ADD PUSH1 0x0 SWAP1 SLOAD SWAP1 PUSH2 0x100 EXP SWAP1 DIV PUSH1 0xFF AND DUP7 PUSH1 0x5 ADD PUSH1 0x1 SWAP1 SLOAD SWAP1 PUSH2 0x100 EXP SWAP1 DIV PUSH1 0xFF AND DUP7 DUP1 SLOAD PUSH2 0xE9D SWAP1 PUSH2 0x21E3 JUMP JUMPDEST DUP1 PUSH1 0x1F ADD PUSH1 0x20 DUP1 SWAP2 DIV MUL PUSH1 0x20 ADD PUSH1 0x40 MLOAD SWAP1 DUP2 ADD PUSH1 0x40 MSTORE DUP1 SWAP3 SWAP2 SWAP1 DUP2 DUP2 MSTORE PUSH1 0x20 ADD DUP3 DUP1 SLOAD PUSH2 0xEC9 SWAP1 PUSH2 0x21E3 JUMP JUMPDEST DUP1 ISZERO PUSH2 0xF16 JUMPI DUP1 PUSH1 0x1F LT PUSH2 0xEEB JUMPI PUSH2 0x100 DUP1 DUP4 SLOAD DIV MUL DUP4 MSTORE SWAP2 PUSH1 0x20 ADD SWAP2 PUSH2 0xF16 JUMP JUMPDEST DUP3 ADD SWAP2 SWAP1 PUSH1 0x0 MSTORE PUSH1 0x20 PUSH1 0x0 KECCAK256 SWAP1 JUMPDEST DUP2 SLOAD DUP2 MSTORE SWAP1 PUSH1 0x1 ADD SWAP1 PUSH1 0x20 ADD DUP1 DUP4 GT PUSH2 0xEF9 JUMPI DUP3 SWAP1 SUB PUSH1 0x1F AND DUP3 ADD SWAP2 JUMPDEST POP POP POP POP POP SWAP7 POP DUP6 DUP1 SLOAD PUSH2 0xF29 SWAP1 PUSH2 0x21E3 JUMP JUMPDEST DUP1 PUSH1 0x1F ADD PUSH1 0x20 DUP1 SWAP2 DIV MUL PUSH1 0x20 ADD PUSH1 0x40 MLOAD SWAP1 DUP2 ADD PUSH1 0x40 MSTORE DUP1 SWAP3 SWAP2 SWAP1 DUP2 DUP2 MSTORE PUSH1 0x20 ADD DUP3 DUP1 SLOAD PUSH2 0xF55 SWAP1 PUSH2 0x21E3 JUMP JUMPDEST DUP1 ISZERO PUSH2 0xFA2 JUMPI DUP1 PUSH1 0x1F LT PUSH2 0xF77 JUMPI PUSH2 0x100 DUP1 DUP4 SLOAD DIV MUL DUP4 MSTORE SWAP2 PUSH1 0x20 ADD SWAP2 PUSH2 0xFA2 JUMP JUMPDEST DUP3 ADD SWAP2 SWAP1 PUSH1 0x0 MSTORE PUSH1 0x20 PUSH1 0x0 KECCAK256 SWAP1 JUMPDEST DUP2 SLOAD DUP2 MSTORE SWAP1 PUSH1 0x1 ADD SWAP1 PUSH1 0x20 ADD DUP1 DUP4 GT PUSH2 0xF85 JUMPI DUP3 SWAP1 SUB PUSH1 0x1F AND DUP3 ADD SWAP2 JUMPDEST POP POP POP POP POP SWAP6 POP SWAP8 POP SWAP8 POP SWAP8 POP SWAP8 POP SWAP8 POP SWAP8 POP SWAP8 POP POP SWAP2 SWAP4 SWAP6 SWAP8 SWAP1 SWAP3 SWAP5 SWAP7 POP JUMP JUMPDEST PUSH1 0x0 PUSH1 0x2 PUSH1 0x0 DUP5 DUP2 MSTORE PUSH1 0x20 ADD SWAP1 DUP2 MSTORE PUSH1 0x20 ADD PUSH1 0x0 KECCAK256 PUSH1 0x0 DUP4 PUSH20 0xFFFFFFFFFFFFFFFFFFFFFFFFFFFFFFFFFFFFFFFF AND PUSH20 0xFFFFFFFFFFFFFFFFFFFFFFFFFFFFFFFFFFFFFFFF AND DUP2 MSTORE PUSH1 0x20 ADD SWAP1 DUP2 MSTORE PUSH1 0x20 ADD PUSH1 0x0 KECCAK256 SLOAD SWAP1 POP SWAP3 SWAP2 POP POP JUMP JUMPDEST PUSH2 0x1026 PUSH2 0x12BD JUMP JUMPDEST PUSH1 0x0 PUSH20 0xFFFFFFFFFFFFFFFFFFFFFFFFFFFFFFFFFFFFFFFF AND DUP2 PUSH20 0xFFFFFFFFFFFFFFFFFFFFFFFFFFFFFFFFFFFFFFFF AND SUB PUSH2 0x1098 JUMPI PUSH1 0x0 PUSH1 0x40 MLOAD PUSH32 0x1E4FBDF700000000000000000000000000000000000000000000000000000000 DUP2 MSTORE PUSH1 0x4 ADD PUSH2 0x108F SWAP2 SWAP1 PUSH2 0x1EF0 JUMP JUMPDEST PUSH1 0x40 MLOAD DUP1 SWAP2 SUB SWAP1 REVERT JUMPDEST PUSH2 0x10A1 DUP2 PUSH2 0x1344 JUMP JUMPDEST POP JUMP JUMPDEST PUSH1 0x0 PUSH1 0x1 PUSH1 0x0 DUP6 DUP2 MSTORE PUSH1 0x20 ADD SWAP1 DUP2 MSTORE PUSH1 0x20 ADD PUSH1 0x0 KECCAK256 SWAP1 POP PUSH1 0x4 PUSH1 0x0 SWAP1 SLOAD SWAP1 PUSH2 0x100 EXP SWAP1 DIV PUSH20 0xFFFFFFFFFFFFFFFFFFFFFFFFFFFFFFFFFFFFFFFF AND PUSH20 0xFFFFFFFFFFFFFFFFFFFFFFFFFFFFFFFFFFFFFFFF AND PUSH4 0xCC0D50E6 CALLER PUSH1 0x40 MLOAD DUP3 PUSH4 0xFFFFFFFF AND PUSH1 0xE0 SHL DUP2 MSTORE PUSH1 0x4 ADD PUSH2 0x1116 SWAP2 SWAP1 PUSH2 0x1EF0 JUMP JUMPDEST PUSH1 0x20 PUSH1 0x40 MLOAD DUP1 DUP4 SUB DUP2 DUP7 GAS STATICCALL ISZERO DUP1 ISZERO PUSH2 0x1133 JUMPI RETURNDATASIZE PUSH1 0x0 DUP1 RETURNDATACOPY RETURNDATASIZE PUSH1 0x0 REVERT JUMPDEST POP POP POP POP PUSH1 0x40 MLOAD RETURNDATASIZE PUSH1 0x1F NOT PUSH1 0x1F DUP3 ADD AND DUP3 ADD DUP1 PUSH1 0x40 MSTORE POP DUP2 ADD SWAP1 PUSH2 0x1157 SWAP2 SWAP1 PUSH2 0x207E JUMP JUMPDEST PUSH2 0x1196 JUMPI PUSH1 0x40 MLOAD PUSH32 0x8C379A000000000000000000000000000000000000000000000000000000000 DUP2 MSTORE PUSH1 0x4 ADD PUSH2 0x118D SWAP1 PUSH2 0x27AD JUMP JUMPDEST PUSH1 0x40 MLOAD DUP1 SWAP2 SUB SWAP1 REVERT JUMPDEST PUSH1 0x1 PUSH1 0x2 DUP2 GT ISZERO PUSH2 0x11AA JUMPI PUSH2 0x11A9 PUSH2 0x1A7D JUMP JUMPDEST JUMPDEST DUP2 PUSH1 0x5 ADD PUSH1 0x1 SWAP1 SLOAD SWAP1 PUSH2 0x100 EXP SWAP1 DIV PUSH1 0xFF AND PUSH1 0x2 DUP2 GT ISZERO PUSH2 0x11CE JUMPI PUSH2 0x11CD PUSH2 0x1A7D JUMP JUMPDEST JUMPDEST EQ PUSH2 0x120E JUMPI PUSH1 0x40 MLOAD PUSH32 0x8C379A000000000000000000000000000000000000000000000000000000000 DUP2 MSTORE PUSH1 0x4 ADD PUSH2 0x1205 SWAP1 PUSH2 0x2819 JUMP JUMPDEST PUSH1 0x40 MLOAD DUP1 SWAP2 SUB SWAP1 REVERT JUMPDEST DUP1 PUSH1 0x3 ADD SLOAD DUP3 GT ISZERO PUSH2 0x1255 JUMPI PUSH1 0x40 MLOAD PUSH32 0x8C379A000000000000000000000000000000000000000000000000000000000 DUP2 MSTORE PUSH1 0x4 ADD PUSH2 0x124C SWAP1 PUSH2 0x28AB JUMP JUMPDEST PUSH1 0x40 MLOAD DUP1 SWAP2 SUB SWAP1 REVERT JUMPDEST DUP2 DUP2 PUSH1 0x3 ADD PUSH1 0x0 DUP3 DUP3 SLOAD PUSH2 0x1269 SWAP2 SWAP1 PUSH2 0x28CB JUMP JUMPDEST SWAP3 POP POP DUP2 SWAP1 SSTORE POP DUP3 PUSH20 0xFFFFFFFFFFFFFFFFFFFFFFFFFFFFFFFFFFFFFFFF AND PUSH2 0x8FC DUP4 SWAP1 DUP2 ISZERO MUL SWAP1 PUSH1 0x40 MLOAD PUSH1 0x0 PUSH1 0x40 MLOAD DUP1 DUP4 SUB DUP2 DUP6 DUP9 DUP9 CALL SWAP4 POP POP POP POP ISZERO DUP1 ISZERO PUSH2 0x12B6 JUMPI RETURNDATASIZE PUSH1 0x0 DUP1 RETURNDATACOPY RETURNDATASIZE PUSH1 0x0 REVERT JUMPDEST POP POP POP POP POP JUMP JUMPDEST PUSH2 0x12C5 PUSH2 0x1408 JUMP JUMPDEST PUSH20 0xFFFFFFFFFFFFFFFFFFFFFFFFFFFFFFFFFFFFFFFF AND PUSH2 0x12E3 PUSH2 0xBB0 JUMP JUMPDEST PUSH20 0xFFFFFFFFFFFFFFFFFFFFFFFFFFFFFFFFFFFFFFFF AND EQ PUSH2 0x1342 JUMPI PUSH2 0x1306 PUSH2 0x1408 JUMP JUMPDEST PUSH1 0x40 MLOAD PUSH32 0x118CDAA700000000000000000000000000000000000000000000000000000000 DUP2 MSTORE PUSH1 0x4 ADD PUSH2 0x1339 SWAP2 SWAP1 PUSH2 0x1EF0 JUMP JUMPDEST PUSH1 0x40 MLOAD DUP1 SWAP2 SUB SWAP1 REVERT JUMPDEST JUMP JUMPDEST PUSH1 0x0 DUP1 PUSH1 0x0 SWAP1 SLOAD SWAP1 PUSH2 0x100 EXP SWAP1 DIV PUSH20 0xFFFFFFFFFFFFFFFFFFFFFFFFFFFFFFFFFFFFFFFF AND SWAP1 POP DUP2 PUSH1 0x0 DUP1 PUSH2 0x100 EXP DUP2 SLOAD DUP2 PUSH20 0xFFFFFFFFFFFFFFFFFFFFFFFFFFFFFFFFFFFFFFFF MUL NOT AND SWAP1 DUP4 PUSH20 0xFFFFFFFFFFFFFFFFFFFFFFFFFFFFFFFFFFFFFFFF AND MUL OR SWAP1 SSTORE POP DUP2 PUSH20 0xFFFFFFFFFFFFFFFFFFFFFFFFFFFFFFFFFFFFFFFF AND DUP2 PUSH20 0xFFFFFFFFFFFFFFFFFFFFFFFFFFFFFFFFFFFFFFFF AND PUSH32 0x8BE0079C531659141344CD1FD0A4F28419497F9722A3DAAFE3B4186F6B6457E0 PUSH1 0x40 MLOAD PUSH1 0x40 MLOAD DUP1 SWAP2 SUB SWAP1 LOG3 POP POP JUMP JUMPDEST PUSH1 0x0 CALLER SWAP1 POP SWAP1 JUMP JUMPDEST DUP3 DUP1 SLOAD DUP3 DUP3 SSTORE SWAP1 PUSH1 0x0 MSTORE PUSH1 0x20 PUSH1 0x0 KECCAK256 SWAP1 DUP2 ADD SWAP3 DUP3 ISZERO PUSH2 0x1458 JUMPI SWAP2 PUSH1 0x20 MUL DUP3 ADD JUMPDEST DUP3 DUP2 GT ISZERO PUSH2 0x1457 JUMPI DUP3 MLOAD DUP3 SWAP1 DUP2 PUSH2 0x1447 SWAP2 SWAP1 PUSH2 0x23B6 JUMP JUMPDEST POP SWAP2 PUSH1 0x20 ADD SWAP2 SWAP1 PUSH1 0x1 ADD SWAP1 PUSH2 0x1430 JUMP JUMPDEST JUMPDEST POP SWAP1 POP PUSH2 0x1465 SWAP2 SWAP1 PUSH2 0x14B6 JUMP JUMPDEST POP SWAP1 JUMP JUMPDEST DUP3 DUP1 SLOAD DUP3 DUP3 SSTORE SWAP1 PUSH1 0x0 MSTORE PUSH1 0x20 PUSH1 0x0 KECCAK256 SWAP1 DUP2 ADD SWAP3 DUP3 ISZERO PUSH2 0x14A5 JUMPI SWAP2 PUSH1 0x20 MUL DUP3 ADD JUMPDEST DUP3 DUP2 GT ISZERO PUSH2 0x14A4 JUMPI DUP3 MLOAD DUP3 SSTORE SWAP2 PUSH1 0x20 ADD SWAP2 SWAP1 PUSH1 0x1 ADD SWAP1 PUSH2 0x1489 JUMP JUMPDEST JUMPDEST POP SWAP1 POP PUSH2 0x14B2 SWAP2 SWAP1 PUSH2 0x14DA JUMP JUMPDEST POP SWAP1 JUMP JUMPDEST JUMPDEST DUP1 DUP3 GT ISZERO PUSH2 0x14D6 JUMPI PUSH1 0x0 DUP2 DUP2 PUSH2 0x14CD SWAP2 SWAP1 PUSH2 0x14F7 JUMP JUMPDEST POP PUSH1 0x1 ADD PUSH2 0x14B7 JUMP JUMPDEST POP SWAP1 JUMP JUMPDEST JUMPDEST DUP1 DUP3 GT ISZERO PUSH2 0x14F3 JUMPI PUSH1 0x0 DUP2 PUSH1 0x0 SWAP1 SSTORE POP PUSH1 0x1 ADD PUSH2 0x14DB JUMP JUMPDEST POP SWAP1 JUMP JUMPDEST POP DUP1 SLOAD PUSH2 0x1503 SWAP1 PUSH2 0x21E3 JUMP JUMPDEST PUSH1 0x0 DUP3 SSTORE DUP1 PUSH1 0x1F LT PUSH2 0x1515 JUMPI POP PUSH2 0x1534 JUMP JUMPDEST PUSH1 0x1F ADD PUSH1 0x20 SWAP1 DIV SWAP1 PUSH1 0x0 MSTORE PUSH1 0x20 PUSH1 0x0 KECCAK256 SWAP1 DUP2 ADD SWAP1 PUSH2 0x1533 SWAP2 SWAP1 PUSH2 0x14DA JUMP JUMPDEST JUMPDEST POP JUMP JUMPDEST PUSH1 0x0 PUSH1 0x40 MLOAD SWAP1 POP SWAP1 JUMP JUMPDEST PUSH1 0x0 DUP1 REVERT JUMPDEST PUSH1 0x0 DUP1 REVERT JUMPDEST PUSH1 0x0 DUP1 REVERT JUMPDEST PUSH1 0x0 DUP1 REVERT JUMPDEST PUSH1 0x0 PUSH1 0x1F NOT PUSH1 0x1F DUP4 ADD AND SWAP1 POP SWAP2 SWAP1 POP JUMP JUMPDEST PUSH32 0x4E487B7100000000000000000000000000000000000000000000000000000000 PUSH1 0x0 MSTORE PUSH1 0x41 PUSH1 0x4 MSTORE PUSH1 0x24 PUSH1 0x0 REVERT JUMPDEST PUSH2 0x159E DUP3 PUSH2 0x1555 JUMP JUMPDEST DUP2 ADD DUP2 DUP2 LT PUSH8 0xFFFFFFFFFFFFFFFF DUP3 GT OR ISZERO PUSH2 0x15BD JUMPI PUSH2 0x15BC PUSH2 0x1566 JUMP JUMPDEST JUMPDEST DUP1 PUSH1 0x40 MSTORE POP POP POP JUMP JUMPDEST PUSH1 0x0 PUSH2 0x15D0 PUSH2 0x1537 JUMP JUMPDEST SWAP1 POP PUSH2 0x15DC DUP3 DUP3 PUSH2 0x1595 JUMP JUMPDEST SWAP2 SWAP1 POP JUMP JUMPDEST PUSH1 0x0 PUSH8 0xFFFFFFFFFFFFFFFF DUP3 GT ISZERO PUSH2 0x15FC JUMPI PUSH2 0x15FB PUSH2 0x1566 JUMP JUMPDEST JUMPDEST PUSH2 0x1605 DUP3 PUSH2 0x1555 JUMP JUMPDEST SWAP1 POP PUSH1 0x20 DUP2 ADD SWAP1 POP SWAP2 SWAP1 POP JUMP JUMPDEST DUP3 DUP2 DUP4 CALLDATACOPY PUSH1 0x0 DUP4 DUP4 ADD MSTORE POP POP POP JUMP JUMPDEST PUSH1 0x0 PUSH2 0x1634 PUSH2 0x162F DUP5 PUSH2 0x15E1 JUMP JUMPDEST PUSH2 0x15C6 JUMP JUMPDEST SWAP1 POP DUP3 DUP2 MSTORE PUSH1 0x20 DUP2 ADD DUP5 DUP5 DUP5 ADD GT ISZERO PUSH2 0x1650 JUMPI PUSH2 0x164F PUSH2 0x1550 JUMP JUMPDEST JUMPDEST PUSH2 0x165B DUP5 DUP3 DUP6 PUSH2 0x1612 JUMP JUMPDEST POP SWAP4 SWAP3 POP POP POP JUMP JUMPDEST PUSH1 0x0 DUP3 PUSH1 0x1F DUP4 ADD SLT PUSH2 0x1678 JUMPI PUSH2 0x1677 PUSH2 0x154B JUMP JUMPDEST JUMPDEST DUP2 CALLDATALOAD PUSH2 0x1688 DUP5 DUP3 PUSH1 0x20 DUP7 ADD PUSH2 0x1621 JUMP JUMPDEST SWAP2 POP POP SWAP3 SWAP2 POP POP JUMP JUMPDEST PUSH1 0x0 DUP2 SWAP1 POP SWAP2 SWAP1 POP JUMP JUMPDEST PUSH2 0x16A4 DUP2 PUSH2 0x1691 JUMP JUMPDEST DUP2 EQ PUSH2 0x16AF JUMPI PUSH1 0x0 DUP1 REVERT JUMPDEST POP JUMP JUMPDEST PUSH1 0x0 DUP2 CALLDATALOAD SWAP1 POP PUSH2 0x16C1 DUP2 PUSH2 0x169B JUMP JUMPDEST SWAP3 SWAP2 POP POP JUMP JUMPDEST PUSH1 0x3 DUP2 LT PUSH2 0x16D4 JUMPI PUSH1 0x0 DUP1 REVERT JUMPDEST POP JUMP JUMPDEST PUSH1 0x0 DUP2 CALLDATALOAD SWAP1 POP PUSH2 0x16E6 DUP2 PUSH2 0x16C7 JUMP JUMPDEST SWAP3 SWAP2 POP POP JUMP JUMPDEST PUSH1 0x0 PUSH8 0xFFFFFFFFFFFFFFFF DUP3 GT ISZERO PUSH2 0x1707 JUMPI PUSH2 0x1706 PUSH2 0x1566 JUMP JUMPDEST JUMPDEST PUSH1 0x20 DUP3 MUL SWAP1 POP PUSH1 0x20 DUP2 ADD SWAP1 POP SWAP2 SWAP1 POP JUMP JUMPDEST PUSH1 0x0 DUP1 REVERT JUMPDEST PUSH1 0x0 PUSH2 0x1730 PUSH2 0x172B DUP5 PUSH2 0x16EC JUMP JUMPDEST PUSH2 0x15C6 JUMP JUMPDEST SWAP1 POP DUP1 DUP4 DUP3 MSTORE PUSH1 0x20 DUP3 ADD SWAP1 POP PUSH1 0x20 DUP5 MUL DUP4 ADD DUP6 DUP2 GT ISZERO PUSH2 0x1753 JUMPI PUSH2 0x1752 PUSH2 0x1718 JUMP JUMPDEST JUMPDEST DUP4 JUMPDEST DUP2 DUP2 LT ISZERO PUSH2 0x179A JUMPI DUP1 CALLDATALOAD PUSH8 0xFFFFFFFFFFFFFFFF DUP2 GT ISZERO PUSH2 0x1778 JUMPI PUSH2 0x1777 PUSH2 0x154B JUMP JUMPDEST JUMPDEST DUP1 DUP7 ADD PUSH2 0x1785 DUP10 DUP3 PUSH2 0x1663 JUMP JUMPDEST DUP6 MSTORE PUSH1 0x20 DUP6 ADD SWAP5 POP POP POP PUSH1 0x20 DUP2 ADD SWAP1 POP PUSH2 0x1755 JUMP JUMPDEST POP POP POP SWAP4 SWAP3 POP POP POP JUMP JUMPDEST PUSH1 0x0 DUP3 PUSH1 0x1F DUP4 ADD SLT PUSH2 0x17B9 JUMPI PUSH2 0x17B8 PUSH2 0x154B JUMP JUMPDEST JUMPDEST DUP2 CALLDATALOAD PUSH2 0x17C9 DUP5 DUP3 PUSH1 0x20 DUP7 ADD PUSH2 0x171D JUMP JUMPDEST SWAP2 POP POP SWAP3 SWAP2 POP POP JUMP JUMPDEST PUSH1 0x0 PUSH8 0xFFFFFFFFFFFFFFFF DUP3 GT ISZERO PUSH2 0x17ED JUMPI PUSH2 0x17EC PUSH2 0x1566 JUMP JUMPDEST JUMPDEST PUSH1 0x20 DUP3 MUL SWAP1 POP PUSH1 0x20 DUP2 ADD SWAP1 POP SWAP2 SWAP1 POP JUMP JUMPDEST PUSH1 0x0 PUSH2 0x1811 PUSH2 0x180C DUP5 PUSH2 0x17D2 JUMP JUMPDEST PUSH2 0x15C6 JUMP JUMPDEST SWAP1 POP DUP1 DUP4 DUP3 MSTORE PUSH1 0x20 DUP3 ADD SWAP1 POP PUSH1 0x20 DUP5 MUL DUP4 ADD DUP6 DUP2 GT ISZERO PUSH2 0x1834 JUMPI PUSH2 0x1833 PUSH2 0x1718 JUMP JUMPDEST JUMPDEST DUP4 JUMPDEST DUP2 DUP2 LT ISZERO PUSH2 0x185D JUMPI DUP1 PUSH2 0x1849 DUP9 DUP3 PUSH2 0x16B2 JUMP JUMPDEST DUP5 MSTORE PUSH1 0x20 DUP5 ADD SWAP4 POP POP PUSH1 0x20 DUP2 ADD SWAP1 POP PUSH2 0x1836 JUMP JUMPDEST POP POP POP SWAP4 SWAP3 POP POP POP JUMP JUMPDEST PUSH1 0x0 DUP3 PUSH1 0x1F DUP4 ADD SLT PUSH2 0x187C JUMPI PUSH2 0x187B PUSH2 0x154B JUMP JUMPDEST JUMPDEST DUP2 CALLDATALOAD PUSH2 0x188C DUP5 DUP3 PUSH1 0x20 DUP7 ADD PUSH2 0x17FE JUMP JUMPDEST SWAP2 POP POP SWAP3 SWAP2 POP POP JUMP JUMPDEST PUSH1 0x0 DUP1 PUSH1 0x0 DUP1 PUSH1 0x0 DUP1 PUSH1 0x0 PUSH1 0xE0 DUP9 DUP11 SUB SLT ISZERO PUSH2 0x18B4 JUMPI PUSH2 0x18B3 PUSH2 0x1541 JUMP JUMPDEST JUMPDEST PUSH1 0x0 DUP9 ADD CALLDATALOAD PUSH8 0xFFFFFFFFFFFFFFFF DUP2 GT ISZERO PUSH2 0x18D2 JUMPI PUSH2 0x18D1 PUSH2 0x1546 JUMP JUMPDEST JUMPDEST PUSH2 0x18DE DUP11 DUP3 DUP12 ADD PUSH2 0x1663 JUMP JUMPDEST SWAP8 POP POP PUSH1 0x20 DUP9 ADD CALLDATALOAD PUSH8 0xFFFFFFFFFFFFFFFF DUP2 GT ISZERO PUSH2 0x18FF JUMPI PUSH2 0x18FE PUSH2 0x1546 JUMP JUMPDEST JUMPDEST PUSH2 0x190B DUP11 DUP3 DUP12 ADD PUSH2 0x1663 JUMP JUMPDEST SWAP7 POP POP PUSH1 0x40 PUSH2 0x191C DUP11 DUP3 DUP12 ADD PUSH2 0x16B2 JUMP JUMPDEST SWAP6 POP POP PUSH1 0x60 PUSH2 0x192D DUP11 DUP3 DUP12 ADD PUSH2 0x16B2 JUMP JUMPDEST SWAP5 POP POP PUSH1 0x80 PUSH2 0x193E DUP11 DUP3 DUP12 ADD PUSH2 0x16D7 JUMP JUMPDEST SWAP4 POP POP PUSH1 0xA0 DUP9 ADD CALLDATALOAD PUSH8 0xFFFFFFFFFFFFFFFF DUP2 GT ISZERO PUSH2 0x195F JUMPI PUSH2 0x195E PUSH2 0x1546 JUMP JUMPDEST JUMPDEST PUSH2 0x196B DUP11 DUP3 DUP12 ADD PUSH2 0x17A4 JUMP JUMPDEST SWAP3 POP POP PUSH1 0xC0 DUP9 ADD CALLDATALOAD PUSH8 0xFFFFFFFFFFFFFFFF DUP2 GT ISZERO PUSH2 0x198C JUMPI PUSH2 0x198B PUSH2 0x1546 JUMP JUMPDEST JUMPDEST PUSH2 0x1998 DUP11 DUP3 DUP12 ADD PUSH2 0x1867 JUMP JUMPDEST SWAP2 POP POP SWAP3 SWAP6 SWAP9 SWAP2 SWAP5 SWAP8 POP SWAP3 SWAP6 POP JUMP JUMPDEST PUSH2 0x19B0 DUP2 PUSH2 0x1691 JUMP JUMPDEST DUP3 MSTORE POP POP JUMP JUMPDEST PUSH1 0x0 PUSH1 0x20 DUP3 ADD SWAP1 POP PUSH2 0x19CB PUSH1 0x0 DUP4 ADD DUP5 PUSH2 0x19A7 JUMP JUMPDEST SWAP3 SWAP2 POP POP JUMP JUMPDEST PUSH1 0x0 PUSH1 0x20 DUP3 DUP5 SUB SLT ISZERO PUSH2 0x19E7 JUMPI PUSH2 0x19E6 PUSH2 0x1541 JUMP JUMPDEST JUMPDEST PUSH1 0x0 PUSH2 0x19F5 DUP5 DUP3 DUP6 ADD PUSH2 0x16B2 JUMP JUMPDEST SWAP2 POP POP SWAP3 SWAP2 POP POP JUMP JUMPDEST PUSH1 0x0 DUP2 MLOAD SWAP1 POP SWAP2 SWAP1 POP JUMP JUMPDEST PUSH1 0x0 DUP3 DUP3 MSTORE PUSH1 0x20 DUP3 ADD SWAP1 POP SWAP3 SWAP2 POP POP JUMP JUMPDEST PUSH1 0x0 JUMPDEST DUP4 DUP2 LT ISZERO PUSH2 0x1A38 JUMPI DUP1 DUP3 ADD MLOAD DUP2 DUP5 ADD MSTORE PUSH1 0x20 DUP2 ADD SWAP1 POP PUSH2 0x1A1D JUMP JUMPDEST PUSH1 0x0 DUP5 DUP5 ADD MSTORE POP POP POP POP JUMP JUMPDEST PUSH1 0x0 PUSH2 0x1A4F DUP3 PUSH2 0x19FE JUMP JUMPDEST PUSH2 0x1A59 DUP2 DUP6 PUSH2 0x1A09 JUMP JUMPDEST SWAP4 POP PUSH2 0x1A69 DUP2 DUP6 PUSH1 0x20 DUP7 ADD PUSH2 0x1A1A JUMP JUMPDEST PUSH2 0x1A72 DUP2 PUSH2 0x1555 JUMP JUMPDEST DUP5 ADD SWAP2 POP POP SWAP3 SWAP2 POP POP JUMP JUMPDEST PUSH32 0x4E487B7100000000000000000000000000000000000000000000000000000000 PUSH1 0x0 MSTORE PUSH1 0x21 PUSH1 0x4 MSTORE PUSH1 0x24 PUSH1 0x0 REVERT JUMPDEST PUSH1 0x3 DUP2 LT PUSH2 0x1ABD JUMPI PUSH2 0x1ABC PUSH2 0x1A7D JUMP JUMPDEST JUMPDEST POP JUMP JUMPDEST PUSH1 0x0 DUP2 SWAP1 POP PUSH2 0x1ACE DUP3 PUSH2 0x1AAC JUMP JUMPDEST SWAP2 SWAP1 POP JUMP JUMPDEST PUSH1 0x0 PUSH2 0x1ADE DUP3 PUSH2 0x1AC0 JUMP JUMPDEST SWAP1 POP SWAP2 SWAP1 POP JUMP JUMPDEST PUSH2 0x1AEE DUP2 PUSH2 0x1AD3 JUMP JUMPDEST DUP3 MSTORE POP POP JUMP JUMPDEST PUSH1 0x3 DUP2 LT PUSH2 0x1B05 JUMPI PUSH2 0x1B04 PUSH2 0x1A7D JUMP JUMPDEST JUMPDEST POP JUMP JUMPDEST PUSH1 0x0 DUP2 SWAP1 POP PUSH2 0x1B16 DUP3 PUSH2 0x1AF4 JUMP JUMPDEST SWAP2 SWAP1 POP JUMP JUMPDEST PUSH1 0x0 PUSH2 0x1B26 DUP3 PUSH2 0x1B08 JUMP JUMPDEST SWAP1 POP SWAP2 SWAP1 POP JUMP JUMPDEST PUSH2 0x1B36 DUP2 PUSH2 0x1B1B JUMP JUMPDEST DUP3 MSTORE POP POP JUMP JUMPDEST PUSH1 0x0 PUSH20 0xFFFFFFFFFFFFFFFFFFFFFFFFFFFFFFFFFFFFFFFF DUP3 AND SWAP1 POP SWAP2 SWAP1 POP JUMP JUMPDEST PUSH1 0x0 PUSH2 0x1B67 DUP3 PUSH2 0x1B3C JUMP JUMPDEST SWAP1 POP SWAP2 SWAP1 POP JUMP JUMPDEST PUSH2 0x1B77 DUP2 PUSH2 0x1B5C JUMP JUMPDEST DUP3 MSTORE POP POP JUMP JUMPDEST PUSH1 0x0 PUSH2 0x100 DUP3 ADD SWAP1 POP DUP2 DUP2 SUB PUSH1 0x0 DUP4 ADD MSTORE PUSH2 0x1B98 DUP2 DUP12 PUSH2 0x1A44 JUMP JUMPDEST SWAP1 POP DUP2 DUP2 SUB PUSH1 0x20 DUP4 ADD MSTORE PUSH2 0x1BAC DUP2 DUP11 PUSH2 0x1A44 JUMP JUMPDEST SWAP1 POP PUSH2 0x1BBB PUSH1 0x40 DUP4 ADD DUP10 PUSH2 0x19A7 JUMP JUMPDEST PUSH2 0x1BC8 PUSH1 0x60 DUP4 ADD DUP9 PUSH2 0x19A7 JUMP JUMPDEST PUSH2 0x1BD5 PUSH1 0x80 DUP4 ADD DUP8 PUSH2 0x19A7 JUMP JUMPDEST PUSH2 0x1BE2 PUSH1 0xA0 DUP4 ADD DUP7 PUSH2 0x1AE5 JUMP JUMPDEST PUSH2 0x1BEF PUSH1 0xC0 DUP4 ADD DUP6 PUSH2 0x1B2D JUMP JUMPDEST PUSH2 0x1BFC PUSH1 0xE0 DUP4 ADD DUP5 PUSH2 0x1B6E JUMP JUMPDEST SWAP10 SWAP9 POP POP POP POP POP POP POP POP POP JUMP JUMPDEST PUSH1 0x0 DUP2 SWAP1 POP SWAP2 SWAP1 POP JUMP JUMPDEST PUSH1 0x0 PUSH2 0x1C2E PUSH2 0x1C29 PUSH2 0x1C24 DUP5 PUSH2 0x1B3C JUMP JUMPDEST PUSH2 0x1C09 JUMP JUMPDEST PUSH2 0x1B3C JUMP JUMPDEST SWAP1 POP SWAP2 SWAP1 POP JUMP JUMPDEST PUSH1 0x0 PUSH2 0x1C40 DUP3 PUSH2 0x1C13 JUMP JUMPDEST SWAP1 POP SWAP2 SWAP1 POP JUMP JUMPDEST PUSH1 0x0 PUSH2 0x1C52 DUP3 PUSH2 0x1C35 JUMP JUMPDEST SWAP1 POP SWAP2 SWAP1 POP JUMP JUMPDEST PUSH2 0x1C62 DUP2 PUSH2 0x1C47 JUMP JUMPDEST DUP3 MSTORE POP POP JUMP JUMPDEST PUSH1 0x0 PUSH1 0x20 DUP3 ADD SWAP1 POP PUSH2 0x1C7D PUSH1 0x0 DUP4 ADD DUP5 PUSH2 0x1C59 JUMP JUMPDEST SWAP3 SWAP2 POP POP JUMP JUMPDEST PUSH2 0x1C8C DUP2 PUSH2 0x1B5C JUMP JUMPDEST DUP2 EQ PUSH2 0x1C97 JUMPI PUSH1 0x0 DUP1 REVERT JUMPDEST POP JUMP JUMPDEST PUSH1 0x0 DUP2 CALLDATALOAD SWAP1 POP PUSH2 0x1CA9 DUP2 PUSH2 0x1C83 JUMP JUMPDEST SWAP3 SWAP2 POP POP JUMP JUMPDEST PUSH1 0x0 DUP1 PUSH1 0x40 DUP4 DUP6 SUB SLT ISZERO PUSH2 0x1CC6 JUMPI PUSH2 0x1CC5 PUSH2 0x1541 JUMP JUMPDEST JUMPDEST PUSH1 0x0 PUSH2 0x1CD4 DUP6 DUP3 DUP7 ADD PUSH2 0x16B2 JUMP JUMPDEST SWAP3 POP POP PUSH1 0x20 PUSH2 0x1CE5 DUP6 DUP3 DUP7 ADD PUSH2 0x1C9A JUMP JUMPDEST SWAP2 POP POP SWAP3 POP SWAP3 SWAP1 POP JUMP JUMPDEST PUSH1 0x0 DUP2 MLOAD SWAP1 POP SWAP2 SWAP1 POP JUMP JUMPDEST PUSH1 0x0 DUP3 DUP3 MSTORE PUSH1 0x20 DUP3 ADD SWAP1 POP SWAP3 SWAP2 POP POP JUMP JUMPDEST PUSH1 0x0 DUP2 SWAP1 POP PUSH1 0x20 DUP3 ADD SWAP1 POP SWAP2 SWAP1 POP JUMP JUMPDEST PUSH1 0x0 DUP3 DUP3 MSTORE PUSH1 0x20 DUP3 ADD SWAP1 POP SWAP3 SWAP2 POP POP JUMP JUMPDEST PUSH1 0x0 PUSH2 0x1D37 DUP3 PUSH2 0x19FE JUMP JUMPDEST PUSH2 0x1D41 DUP2 DUP6 PUSH2 0x1D1B JUMP JUMPDEST SWAP4 POP PUSH2 0x1D51 DUP2 DUP6 PUSH1 0x20 DUP7 ADD PUSH2 0x1A1A JUMP JUMPDEST PUSH2 0x1D5A DUP2 PUSH2 0x1555 JUMP JUMPDEST DUP5 ADD SWAP2 POP POP SWAP3 SWAP2 POP POP JUMP JUMPDEST PUSH1 0x0 PUSH2 0x1D71 DUP4 DUP4 PUSH2 0x1D2C JUMP JUMPDEST SWAP1 POP SWAP3 SWAP2 POP POP JUMP JUMPDEST PUSH1 0x0 PUSH1 0x20 DUP3 ADD SWAP1 POP SWAP2 SWAP1 POP JUMP JUMPDEST PUSH1 0x0 PUSH2 0x1D91 DUP3 PUSH2 0x1CEF JUMP JUMPDEST PUSH2 0x1D9B DUP2 DUP6 PUSH2 0x1CFA JUMP JUMPDEST SWAP4 POP DUP4 PUSH1 0x20 DUP3 MUL DUP6 ADD PUSH2 0x1DAD DUP6 PUSH2 0x1D0B JUMP JUMPDEST DUP1 PUSH1 0x0 JUMPDEST DUP6 DUP2 LT ISZERO PUSH2 0x1DE9 JUMPI DUP5 DUP5 SUB DUP10 MSTORE DUP2 MLOAD PUSH2 0x1DCA DUP6 DUP3 PUSH2 0x1D65 JUMP JUMPDEST SWAP5 POP PUSH2 0x1DD5 DUP4 PUSH2 0x1D79 JUMP JUMPDEST SWAP3 POP PUSH1 0x20 DUP11 ADD SWAP10 POP POP PUSH1 0x1 DUP2 ADD SWAP1 POP PUSH2 0x1DB1 JUMP JUMPDEST POP DUP3 SWAP8 POP DUP8 SWAP6 POP POP POP POP POP POP SWAP3 SWAP2 POP POP JUMP JUMPDEST PUSH1 0x0 DUP2 MLOAD SWAP1 POP SWAP2 SWAP1 POP JUMP JUMPDEST PUSH1 0x0 DUP3 DUP3 MSTORE PUSH1 0x20 DUP3 ADD SWAP1 POP SWAP3 SWAP2 POP POP JUMP JUMPDEST PUSH1 0x0 DUP2 SWAP1 POP PUSH1 0x20 DUP3 ADD SWAP1 POP SWAP2 SWAP1 POP JUMP JUMPDEST PUSH2 0x1E30 DUP2 PUSH2 0x1691 JUMP JUMPDEST DUP3 MSTORE POP POP JUMP JUMPDEST PUSH1 0x0 PUSH2 0x1E42 DUP4 DUP4 PUSH2 0x1E27 JUMP JUMPDEST PUSH1 0x20 DUP4 ADD SWAP1 POP SWAP3 SWAP2 POP POP JUMP JUMPDEST PUSH1 0x0 PUSH1 0x20 DUP3 ADD SWAP1 POP SWAP2 SWAP1 POP JUMP JUMPDEST PUSH1 0x0 PUSH2 0x1E66 DUP3 PUSH2 0x1DFB JUMP JUMPDEST PUSH2 0x1E70 DUP2 DUP6 PUSH2 0x1E06 JUMP JUMPDEST SWAP4 POP PUSH2 0x1E7B DUP4 PUSH2 0x1E17 JUMP JUMPDEST DUP1 PUSH1 0x0 JUMPDEST DUP4 DUP2 LT ISZERO PUSH2 0x1EAC JUMPI DUP2 MLOAD PUSH2 0x1E93 DUP9 DUP3 PUSH2 0x1E36 JUMP JUMPDEST SWAP8 POP PUSH2 0x1E9E DUP4 PUSH2 0x1E4E JUMP JUMPDEST SWAP3 POP POP PUSH1 0x1 DUP2 ADD SWAP1 POP PUSH2 0x1E7F JUMP JUMPDEST POP DUP6 SWAP4 POP POP POP POP SWAP3 SWAP2 POP POP JUMP JUMPDEST PUSH1 0x0 PUSH1 0x40 DUP3 ADD SWAP1 POP DUP2 DUP2 SUB PUSH1 0x0 DUP4 ADD MSTORE PUSH2 0x1ED3 DUP2 DUP6 PUSH2 0x1D86 JUMP JUMPDEST SWAP1 POP DUP2 DUP2 SUB PUSH1 0x20 DUP4 ADD MSTORE PUSH2 0x1EE7 DUP2 DUP5 PUSH2 0x1E5B JUMP JUMPDEST SWAP1 POP SWAP4 SWAP3 POP POP POP JUMP JUMPDEST PUSH1 0x0 PUSH1 0x20 DUP3 ADD SWAP1 POP PUSH2 0x1F05 PUSH1 0x0 DUP4 ADD DUP5 PUSH2 0x1B6E JUMP JUMPDEST SWAP3 SWAP2 POP POP JUMP JUMPDEST PUSH1 0x0 PUSH1 0xE0 DUP3 ADD SWAP1 POP DUP2 DUP2 SUB PUSH1 0x0 DUP4 ADD MSTORE PUSH2 0x1F25 DUP2 DUP11 PUSH2 0x1A44 JUMP JUMPDEST SWAP1 POP DUP2 DUP2 SUB PUSH1 0x20 DUP4 ADD MSTORE PUSH2 0x1F39 DUP2 DUP10 PUSH2 0x1A44 JUMP JUMPDEST SWAP1 POP PUSH2 0x1F48 PUSH1 0x40 DUP4 ADD DUP9 PUSH2 0x19A7 JUMP JUMPDEST PUSH2 0x1F55 PUSH1 0x60 DUP4 ADD DUP8 PUSH2 0x19A7 JUMP JUMPDEST PUSH2 0x1F62 PUSH1 0x80 DUP4 ADD DUP7 PUSH2 0x19A7 JUMP JUMPDEST PUSH2 0x1F6F PUSH1 0xA0 DUP4 ADD DUP6 PUSH2 0x1AE5 JUMP JUMPDEST PUSH2 0x1F7C PUSH1 0xC0 DUP4 ADD DUP5 PUSH2 0x1B2D JUMP JUMPDEST SWAP9 SWAP8 POP POP POP POP POP POP POP POP JUMP JUMPDEST PUSH1 0x0 PUSH1 0x20 DUP3 DUP5 SUB SLT ISZERO PUSH2 0x1F9E JUMPI PUSH2 0x1F9D PUSH2 0x1541 JUMP JUMPDEST JUMPDEST PUSH1 0x0 PUSH2 0x1FAC DUP5 DUP3 DUP6 ADD PUSH2 0x1C9A JUMP JUMPDEST SWAP2 POP POP SWAP3 SWAP2 POP POP JUMP JUMPDEST PUSH1 0x0 PUSH2 0x1FC0 DUP3 PUSH2 0x1B3C JUMP JUMPDEST SWAP1 POP SWAP2 SWAP1 POP JUMP JUMPDEST PUSH2 0x1FD0 DUP2 PUSH2 0x1FB5 JUMP JUMPDEST DUP2 EQ PUSH2 0x1FDB JUMPI PUSH1 0x0 DUP1 REVERT JUMPDEST POP JUMP JUMPDEST PUSH1 0x0 DUP2 CALLDATALOAD SWAP1 POP PUSH2 0x1FED DUP2 PUSH2 0x1FC7 JUMP JUMPDEST SWAP3 SWAP2 POP POP JUMP JUMPDEST PUSH1 0x0 DUP1 PUSH1 0x0 PUSH1 0x60 DUP5 DUP7 SUB SLT ISZERO PUSH2 0x200C JUMPI PUSH2 0x200B PUSH2 0x1541 JUMP JUMPDEST JUMPDEST PUSH1 0x0 PUSH2 0x201A DUP7 DUP3 DUP8 ADD PUSH2 0x16B2 JUMP JUMPDEST SWAP4 POP POP PUSH1 0x20 PUSH2 0x202B DUP7 DUP3 DUP8 ADD PUSH2 0x1FDE JUMP JUMPDEST SWAP3 POP POP PUSH1 0x40 PUSH2 0x203C DUP7 DUP3 DUP8 ADD PUSH2 0x16B2 JUMP JUMPDEST SWAP2 POP POP SWAP3 POP SWAP3 POP SWAP3 JUMP JUMPDEST PUSH1 0x0 DUP2 ISZERO ISZERO SWAP1 POP SWAP2 SWAP1 POP JUMP JUMPDEST PUSH2 0x205B DUP2 PUSH2 0x2046 JUMP JUMPDEST DUP2 EQ PUSH2 0x2066 JUMPI PUSH1 0x0 DUP1 REVERT JUMPDEST POP JUMP JUMPDEST PUSH1 0x0 DUP2 MLOAD SWAP1 POP PUSH2 0x2078 DUP2 PUSH2 0x2052 JUMP JUMPDEST SWAP3 SWAP2 POP POP JUMP JUMPDEST PUSH1 0x0 PUSH1 0x20 DUP3 DUP5 SUB SLT ISZERO PUSH2 0x2094 JUMPI PUSH2 0x2093 PUSH2 0x1541 JUMP JUMPDEST JUMPDEST PUSH1 0x0 PUSH2 0x20A2 DUP5 DUP3 DUP6 ADD PUSH2 0x2069 JUMP JUMPDEST SWAP2 POP POP SWAP3 SWAP2 POP POP JUMP JUMPDEST PUSH32 0x4F6E6C7920747265617375726572732063616E206372656174652063616D7061 PUSH1 0x0 DUP3 ADD MSTORE PUSH32 0x69676E7300000000000000000000000000000000000000000000000000000000 PUSH1 0x20 DUP3 ADD MSTORE POP JUMP JUMPDEST PUSH1 0x0 PUSH2 0x2107 PUSH1 0x24 DUP4 PUSH2 0x1A09 JUMP JUMPDEST SWAP2 POP PUSH2 0x2112 DUP3 PUSH2 0x20AB JUMP JUMPDEST PUSH1 0x40 DUP3 ADD SWAP1 POP SWAP2 SWAP1 POP JUMP JUMPDEST PUSH1 0x0 PUSH1 0x20 DUP3 ADD SWAP1 POP DUP2 DUP2 SUB PUSH1 0x0 DUP4 ADD MSTORE PUSH2 0x2136 DUP2 PUSH2 0x20FA JUMP JUMPDEST SWAP1 POP SWAP2 SWAP1 POP JUMP JUMPDEST PUSH32 0x4E487B7100000000000000000000000000000000000000000000000000000000 PUSH1 0x0 MSTORE PUSH1 0x11 PUSH1 0x4 MSTORE PUSH1 0x24 PUSH1 0x0 REVERT JUMPDEST PUSH1 0x0 PUSH2 0x2177 DUP3 PUSH2 0x1691 JUMP JUMPDEST SWAP2 POP PUSH32 0xFFFFFFFFFFFFFFFFFFFFFFFFFFFFFFFFFFFFFFFFFFFFFFFFFFFFFFFFFFFFFFFF DUP3 SUB PUSH2 0x21A9 JUMPI PUSH2 0x21A8 PUSH2 0x213D JUMP JUMPDEST JUMPDEST PUSH1 0x1 DUP3 ADD SWAP1 POP SWAP2 SWAP1 POP JUMP JUMPDEST PUSH32 0x4E487B7100000000000000000000000000000000000000000000000000000000 PUSH1 0x0 MSTORE PUSH1 0x22 PUSH1 0x4 MSTORE PUSH1 0x24 PUSH1 0x0 REVERT JUMPDEST PUSH1 0x0 PUSH1 0x2 DUP3 DIV SWAP1 POP PUSH1 0x1 DUP3 AND DUP1 PUSH2 0x21FB JUMPI PUSH1 0x7F DUP3 AND SWAP2 POP JUMPDEST PUSH1 0x20 DUP3 LT DUP2 SUB PUSH2 0x220E JUMPI PUSH2 0x220D PUSH2 0x21B4 JUMP JUMPDEST JUMPDEST POP SWAP2 SWAP1 POP JUMP JUMPDEST PUSH1 0x0 DUP2 SWAP1 POP DUP2 PUSH1 0x0 MSTORE PUSH1 0x20 PUSH1 0x0 KECCAK256 SWAP1 POP SWAP2 SWAP1 POP JUMP JUMPDEST PUSH1 0x0 PUSH1 0x20 PUSH1 0x1F DUP4 ADD DIV SWAP1 POP SWAP2 SWAP1 POP JUMP JUMPDEST PUSH1 0x0 DUP3 DUP3 SHL SWAP1 POP SWAP3 SWAP2 POP POP JUMP JUMPDEST PUSH1 0x0 PUSH1 0x8 DUP4 MUL PUSH2 0x2276 PUSH32 0xFFFFFFFFFFFFFFFFFFFFFFFFFFFFFFFFFFFFFFFFFFFFFFFFFFFFFFFFFFFFFFFF DUP3 PUSH2 0x2239 JUMP JUMPDEST PUSH2 0x2280 DUP7 DUP4 PUSH2 0x2239 JUMP JUMPDEST SWAP6 POP DUP1 NOT DUP5 AND SWAP4 POP DUP1 DUP7 AND DUP5 OR SWAP3 POP POP POP SWAP4 SWAP3 POP POP POP JUMP JUMPDEST PUSH1 0x0 PUSH2 0x22B3 PUSH2 0x22AE PUSH2 0x22A9 DUP5 PUSH2 0x1691 JUMP JUMPDEST PUSH2 0x1C09 JUMP JUMPDEST PUSH2 0x1691 JUMP JUMPDEST SWAP1 POP SWAP2 SWAP1 POP JUMP JUMPDEST PUSH1 0x0 DUP2 SWAP1 POP SWAP2 SWAP1 POP JUMP JUMPDEST PUSH2 0x22CD DUP4 PUSH2 0x2298 JUMP JUMPDEST PUSH2 0x22E1 PUSH2 0x22D9 DUP3 PUSH2 0x22BA JUMP JUMPDEST DUP5 DUP5 SLOAD PUSH2 0x2246 JUMP JUMPDEST DUP3 SSTORE POP POP POP POP JUMP JUMPDEST PUSH1 0x0 SWAP1 JUMP JUMPDEST PUSH2 0x22F6 PUSH2 0x22E9 JUMP JUMPDEST PUSH2 0x2301 DUP2 DUP5 DUP5 PUSH2 0x22C4 JUMP JUMPDEST POP POP POP JUMP JUMPDEST JUMPDEST DUP2 DUP2 LT ISZERO PUSH2 0x2325 JUMPI PUSH2 0x231A PUSH1 0x0 DUP3 PUSH2 0x22EE JUMP JUMPDEST PUSH1 0x1 DUP2 ADD SWAP1 POP PUSH2 0x2307 JUMP JUMPDEST POP POP JUMP JUMPDEST PUSH1 0x1F DUP3 GT ISZERO PUSH2 0x236A JUMPI PUSH2 0x233B DUP2 PUSH2 0x2214 JUMP JUMPDEST PUSH2 0x2344 DUP5 PUSH2 0x2229 JUMP JUMPDEST DUP2 ADD PUSH1 0x20 DUP6 LT ISZERO PUSH2 0x2353 JUMPI DUP2 SWAP1 POP JUMPDEST PUSH2 0x2367 PUSH2 0x235F DUP6 PUSH2 0x2229 JUMP JUMPDEST DUP4 ADD DUP3 PUSH2 0x2306 JUMP JUMPDEST POP POP JUMPDEST POP POP POP JUMP JUMPDEST PUSH1 0x0 DUP3 DUP3 SHR SWAP1 POP SWAP3 SWAP2 POP POP JUMP JUMPDEST PUSH1 0x0 PUSH2 0x238D PUSH1 0x0 NOT DUP5 PUSH1 0x8 MUL PUSH2 0x236F JUMP JUMPDEST NOT DUP1 DUP4 AND SWAP2 POP POP SWAP3 SWAP2 POP POP JUMP JUMPDEST PUSH1 0x0 PUSH2 0x23A6 DUP4 DUP4 PUSH2 0x237C JUMP JUMPDEST SWAP2 POP DUP3 PUSH1 0x2 MUL DUP3 OR SWAP1 POP SWAP3 SWAP2 POP POP JUMP JUMPDEST PUSH2 0x23BF DUP3 PUSH2 0x19FE JUMP JUMPDEST PUSH8 0xFFFFFFFFFFFFFFFF DUP2 GT ISZERO PUSH2 0x23D8 JUMPI PUSH2 0x23D7 PUSH2 0x1566 JUMP JUMPDEST JUMPDEST PUSH2 0x23E2 DUP3 SLOAD PUSH2 0x21E3 JUMP JUMPDEST PUSH2 0x23ED DUP3 DUP3 DUP6 PUSH2 0x2329 JUMP JUMPDEST PUSH1 0x0 PUSH1 0x20 SWAP1 POP PUSH1 0x1F DUP4 GT PUSH1 0x1 DUP2 EQ PUSH2 0x2420 JUMPI PUSH1 0x0 DUP5 ISZERO PUSH2 0x240E JUMPI DUP3 DUP8 ADD MLOAD SWAP1 POP JUMPDEST PUSH2 0x2418 DUP6 DUP3 PUSH2 0x239A JUMP JUMPDEST DUP7 SSTORE POP PUSH2 0x2480 JUMP JUMPDEST PUSH1 0x1F NOT DUP5 AND PUSH2 0x242E DUP7 PUSH2 0x2214 JUMP JUMPDEST PUSH1 0x0 JUMPDEST DUP3 DUP2 LT ISZERO PUSH2 0x2456 JUMPI DUP5 DUP10 ADD MLOAD DUP3 SSTORE PUSH1 0x1 DUP3 ADD SWAP2 POP PUSH1 0x20 DUP6 ADD SWAP5 POP PUSH1 0x20 DUP2 ADD SWAP1 POP PUSH2 0x2431 JUMP JUMPDEST DUP7 DUP4 LT ISZERO PUSH2 0x2473 JUMPI DUP5 DUP10 ADD MLOAD PUSH2 0x246F PUSH1 0x1F DUP10 AND DUP3 PUSH2 0x237C JUMP JUMPDEST DUP4 SSTORE POP JUMPDEST PUSH1 0x1 PUSH1 0x2 DUP9 MUL ADD DUP9 SSTORE POP POP POP JUMPDEST POP POP POP POP POP POP JUMP JUMPDEST PUSH1 0x0 PUSH1 0x80 DUP3 ADD SWAP1 POP PUSH2 0x249D PUSH1 0x0 DUP4 ADD DUP8 PUSH2 0x19A7 JUMP JUMPDEST DUP2 DUP2 SUB PUSH1 0x20 DUP4 ADD MSTORE PUSH2 0x24AF DUP2 DUP7 PUSH2 0x1A44 JUMP JUMPDEST SWAP1 POP PUSH2 0x24BE PUSH1 0x40 DUP4 ADD DUP6 PUSH2 0x19A7 JUMP JUMPDEST PUSH2 0x24CB PUSH1 0x60 DUP4 ADD DUP5 PUSH2 0x1B6E JUMP JUMPDEST SWAP6 SWAP5 POP POP POP POP POP JUMP JUMPDEST PUSH32 0x4F6E6C7920747265617375726572732063616E2063616E63656C2063616D7061 PUSH1 0x0 DUP3 ADD MSTORE PUSH32 0x69676E7300000000000000000000000000000000000000000000000000000000 PUSH1 0x20 DUP3 ADD MSTORE POP JUMP JUMPDEST PUSH1 0x0 PUSH2 0x2530 PUSH1 0x24 DUP4 PUSH2 0x1A09 JUMP JUMPDEST SWAP2 POP PUSH2 0x253B DUP3 PUSH2 0x24D4 JUMP JUMPDEST PUSH1 0x40 DUP3 ADD SWAP1 POP SWAP2 SWAP1 POP JUMP JUMPDEST PUSH1 0x0 PUSH1 0x20 DUP3 ADD SWAP1 POP DUP2 DUP2 SUB PUSH1 0x0 DUP4 ADD MSTORE PUSH2 0x255F DUP2 PUSH2 0x2523 JUMP JUMPDEST SWAP1 POP SWAP2 SWAP1 POP JUMP JUMPDEST PUSH32 0x43616D706169676E206973206E6F742061637469766500000000000000000000 PUSH1 0x0 DUP3 ADD MSTORE POP JUMP JUMPDEST PUSH1 0x0 PUSH2 0x259C PUSH1 0x16 DUP4 PUSH2 0x1A09 JUMP JUMPDEST SWAP2 POP PUSH2 0x25A7 DUP3 PUSH2 0x2566 JUMP JUMPDEST PUSH1 0x20 DUP3 ADD SWAP1 POP SWAP2 SWAP1 POP JUMP JUMPDEST PUSH1 0x0 PUSH1 0x20 DUP3 ADD SWAP1 POP DUP2 DUP2 SUB PUSH1 0x0 DUP4 ADD MSTORE PUSH2 0x25CB DUP2 PUSH2 0x258F JUMP JUMPDEST SWAP1 POP SWAP2 SWAP1 POP JUMP JUMPDEST PUSH32 0x43616D706169676E20646561646C696E65206861732070617373656400000000 PUSH1 0x0 DUP3 ADD MSTORE POP JUMP JUMPDEST PUSH1 0x0 PUSH2 0x2608 PUSH1 0x1C DUP4 PUSH2 0x1A09 JUMP JUMPDEST SWAP2 POP PUSH2 0x2613 DUP3 PUSH2 0x25D2 JUMP JUMPDEST PUSH1 0x20 DUP3 ADD SWAP1 POP SWAP2 SWAP1 POP JUMP JUMPDEST PUSH1 0x0 PUSH1 0x20 DUP3 ADD SWAP1 POP DUP2 DUP2 SUB PUSH1 0x0 DUP4 ADD MSTORE PUSH2 0x2637 DUP2 PUSH2 0x25FB JUMP JUMPDEST SWAP1 POP SWAP2 SWAP1 POP JUMP JUMPDEST PUSH32 0x436F6E747269627574696F6E206D757374206265206772656174657220746861 PUSH1 0x0 DUP3 ADD MSTORE PUSH32 0x6E20300000000000000000000000000000000000000000000000000000000000 PUSH1 0x20 DUP3 ADD MSTORE POP JUMP JUMPDEST PUSH1 0x0 PUSH2 0x269A PUSH1 0x23 DUP4 PUSH2 0x1A09 JUMP JUMPDEST SWAP2 POP PUSH2 0x26A5 DUP3 PUSH2 0x263E JUMP JUMPDEST PUSH1 0x40 DUP3 ADD SWAP1 POP SWAP2 SWAP1 POP JUMP JUMPDEST PUSH1 0x0 PUSH1 0x20 DUP3 ADD SWAP1 POP DUP2 DUP2 SUB PUSH1 0x0 DUP4 ADD MSTORE PUSH2 0x26C9 DUP2 PUSH2 0x268D JUMP JUMPDEST SWAP1 POP SWAP2 SWAP1 POP JUMP JUMPDEST PUSH1 0x0 PUSH2 0x26DB DUP3 PUSH2 0x1691 JUMP JUMPDEST SWAP2 POP PUSH2 0x26E6 DUP4 PUSH2 0x1691 JUMP JUMPDEST SWAP3 POP DUP3 DUP3 ADD SWAP1 POP DUP1 DUP3 GT ISZERO PUSH2 0x26FE JUMPI PUSH2 0x26FD PUSH2 0x213D JUMP JUMPDEST JUMPDEST SWAP3 SWAP2 POP POP JUMP JUMPDEST PUSH1 0x0 PUSH1 0x60 DUP3 ADD SWAP1 POP PUSH2 0x2719 PUSH1 0x0 DUP4 ADD DUP7 PUSH2 0x19A7 JUMP JUMPDEST PUSH2 0x2726 PUSH1 0x20 DUP4 ADD DUP6 PUSH2 0x1B6E JUMP JUMPDEST PUSH2 0x2733 PUSH1 0x40 DUP4 ADD DUP5 PUSH2 0x19A7 JUMP JUMPDEST SWAP5 SWAP4 POP POP POP POP JUMP JUMPDEST PUSH32 0x4F6E6C7920747265617375726572732063616E2077697468647261772066756E PUSH1 0x0 DUP3 ADD MSTORE PUSH32 0x6473000000000000000000000000000000000000000000000000000000000000 PUSH1 0x20 DUP3 ADD MSTORE POP JUMP JUMPDEST PUSH1 0x0 PUSH2 0x2797 PUSH1 0x22 DUP4 PUSH2 0x1A09 JUMP JUMPDEST SWAP2 POP PUSH2 0x27A2 DUP3 PUSH2 0x273B JUMP JUMPDEST PUSH1 0x40 DUP3 ADD SWAP1 POP SWAP2 SWAP1 POP JUMP JUMPDEST PUSH1 0x0 PUSH1 0x20 DUP3 ADD SWAP1 POP DUP2 DUP2 SUB PUSH1 0x0 DUP4 ADD MSTORE PUSH2 0x27C6 DUP2 PUSH2 0x278A JUMP JUMPDEST SWAP1 POP SWAP2 SWAP1 POP JUMP JUMPDEST PUSH32 0x43616D706169676E206D75737420626520636F6D706C65746564000000000000 PUSH1 0x0 DUP3 ADD MSTORE POP JUMP JUMPDEST PUSH1 0x0 PUSH2 0x2803 PUSH1 0x1A DUP4 PUSH2 0x1A09 JUMP JUMPDEST SWAP2 POP PUSH2 0x280E DUP3 PUSH2 0x27CD JUMP JUMPDEST PUSH1 0x20 DUP3 ADD SWAP1 POP SWAP2 SWAP1 POP JUMP JUMPDEST PUSH1 0x0 PUSH1 0x20 DUP3 ADD SWAP1 POP DUP2 DUP2 SUB PUSH1 0x0 DUP4 ADD MSTORE PUSH2 0x2832 DUP2 PUSH2 0x27F6 JUMP JUMPDEST SWAP1 POP SWAP2 SWAP1 POP JUMP JUMPDEST PUSH32 0x43616E6E6F74207769746864726177206D6F7265207468616E20636F6C6C6563 PUSH1 0x0 DUP3 ADD MSTORE PUSH32 0x7465640000000000000000000000000000000000000000000000000000000000 PUSH1 0x20 DUP3 ADD MSTORE POP JUMP JUMPDEST PUSH1 0x0 PUSH2 0x2895 PUSH1 0x23 DUP4 PUSH2 0x1A09 JUMP JUMPDEST SWAP2 POP PUSH2 0x28A0 DUP3 PUSH2 0x2839 JUMP JUMPDEST PUSH1 0x40 DUP3 ADD SWAP1 POP SWAP2 SWAP1 POP JUMP JUMPDEST PUSH1 0x0 PUSH1 0x20 DUP3 ADD SWAP1 POP DUP2 DUP2 SUB PUSH1 0x0 DUP4 ADD MSTORE PUSH2 0x28C4 DUP2 PUSH2 0x2888 JUMP JUMPDEST SWAP1 POP SWAP2 SWAP1 POP JUMP JUMPDEST PUSH1 0x0 PUSH2 0x28D6 DUP3 PUSH2 0x1691 JUMP JUMPDEST SWAP2 POP PUSH2 0x28E1 DUP4 PUSH2 0x1691 JUMP JUMPDEST SWAP3 POP DUP3 DUP3 SUB SWAP1 POP DUP2 DUP2 GT ISZERO PUSH2 0x28F9 JUMPI PUSH2 0x28F8 PUSH2 0x213D JUMP JUMPDEST JUMPDEST SWAP3 SWAP2 POP POP JUMP INVALID LOG2 PUSH5 0x6970667358 0x22 SLT KECCAK256 0xD9 0xEB SWAP5 SWAP1 XOR SHL SWAP9 SWAP11 SELFDESTRUCT 0x4E SIGNEXTEND 0xE5 STOP SELFBALANCE 0xAF PUSH25 0xA1C1F9D0C0DF3BA9A4EA2DB6A37B57CE64736F6C634300081C STOP CALLER "},"methodIdentifiers":{"campaignCount()":"7274e30d","campaigns(uint256)":"141961bc","cancelCampaign(uint256)":"45598b4a","contribute(uint256)":"c1cbbca7","contributions(uint256,address)":"3d891f59","createCampaign(string,string,uint256,uint256,uint8,string[],uint256[])":"0b5c2cbd","getCampaignDetails(uint256)":"d993de62","getContribution(uint256,address)":"e081dbf9","getExpenseItems(uint256)":"8135f3cc","organizationContract()":"36abac29","owner()":"8da5cb5b","renounceOwnership()":"715018a6","transferOwnership(address)":"f2fde38b","withdrawFunds(uint256,address,uint256)":"f8f34cde"}}}}}