{
  "_format": "hh-sol-artifact-1",
  "contractName": "ExpenseApproval",
  "sourceName": "contracts/src/ExpenseApproval.sol",
  "abi": [
    {
      "inputs": [
        {
          "internalType": "address",
          "name": "_organizationAddress",
          "type": "address"
        }
      ],
      "stateMutability": "nonpayable",
      "type": "constructor"
    },
    {
      "inputs": [
        {
          "internalType": "address",
          "name": "owner",
          "type": "address"
        }
      ],
      "name": "OwnableInvalidOwner",
      "type": "error"
    },
    {
      "inputs": [
        {
          "internalType": "address",
          "name": "account",
          "type": "address"
        }
      ],
      "name": "OwnableUnauthorizedAccount",
      "type": "error"
    },
    {
      "anonymous": false,
      "inputs": [
        {
          "indexed": false,
          "internalType": "uint256",
          "name": "expenseId",
          "type": "uint256"
        },
        {
          "indexed": false,
          "internalType": "address",
          "name": "approver",
          "type": "address"
        }
      ],
      "name": "ExpenseApproved",
      "type": "event"
    },
    {
      "anonymous": false,
      "inputs": [
        {
          "indexed": false,
          "internalType": "uint256",
          "name": "expenseId",
          "type": "uint256"
        },
        {
          "indexed": false,
          "internalType": "address",
          "name": "recipient",
          "type": "address"
        },
        {
          "indexed": false,
          "internalType": "uint256",
          "name": "amount",
          "type": "uint256"
        }
      ],
      "name": "ExpenseReimbursed",
      "type": "event"
    },
    {
      "anonymous": false,
      "inputs": [
        {
          "indexed": false,
          "internalType": "uint256",
          "name": "expenseId",
          "type": "uint256"
        },
        {
          "indexed": false,
          "internalType": "address",
          "name": "rejecter",
          "type": "address"
        }
      ],
      "name": "ExpenseRejected",
      "type": "event"
    },
    {
      "anonymous": false,
      "inputs": [
        {
          "indexed": false,
          "internalType": "uint256",
          "name": "expenseId",
          "type": "uint256"
        },
        {
          "indexed": false,
          "internalType": "address",
          "name": "requester",
          "type": "address"
        },
        {
          "indexed": false,
          "internalType": "uint256",
          "name": "amount",
          "type": "uint256"
        }
      ],
      "name": "ExpenseSubmitted",
      "type": "event"
    },
    {
      "anonymous": false,
      "inputs": [
        {
          "indexed": true,
          "internalType": "address",
          "name": "previousOwner",
          "type": "address"
        },
        {
          "indexed": true,
          "internalType": "address",
          "name": "newOwner",
          "type": "address"
        }
      ],
      "name": "OwnershipTransferred",
      "type": "event"
    },
    {
      "inputs": [
        {
          "internalType": "uint256",
          "name": "expenseId",
          "type": "uint256"
        }
      ],
      "name": "approveExpense",
      "outputs": [],
      "stateMutability": "nonpayable",
      "type": "function"
    },
    {
      "inputs": [],
      "name": "expenseCount",
      "outputs": [
        {
          "internalType": "uint256",
          "name": "",
          "type": "uint256"
        }
      ],
      "stateMutability": "view",
      "type": "function"
    },
    {
      "inputs": [
        {
          "internalType": "uint256",
          "name": "",
          "type": "uint256"
        }
      ],
      "name": "expenses",
      "outputs": [
        {
          "internalType": "string",
          "name": "description",
          "type": "string"
        },
        {
          "internalType": "uint256",
          "name": "amount",
          "type": "uint256"
        },
        {
          "internalType": "string",
          "name": "receiptURI",
          "type": "string"
        },
        {
          "internalType": "address",
          "name": "requester",
          "type": "address"
        },
        {
          "internalType": "uint256",
          "name": "campaignId",
          "type": "uint256"
        },
        {
          "internalType": "enum ExpenseApproval.ExpenseStatus",
          "name": "status",
          "type": "uint8"
        },
        {
          "internalType": "uint256",
          "name": "submissionDate",
          "type": "uint256"
        },
        {
          "internalType": "uint256",
          "name": "requiredApprovals",
          "type": "uint256"
        },
        {
          "internalType": "uint256",
          "name": "approvalCount",
          "type": "uint256"
        }
      ],
      "stateMutability": "view",
      "type": "function"
    },
    {
      "inputs": [
        {
          "internalType": "uint256",
          "name": "expenseId",
          "type": "uint256"
        }
      ],
      "name": "getExpenseDetails",
      "outputs": [
        {
          "internalType": "string",
          "name": "description",
          "type": "string"
        },
        {
          "internalType": "uint256",
          "name": "amount",
          "type": "uint256"
        },
        {
          "internalType": "string",
          "name": "receiptURI",
          "type": "string"
        },
        {
          "internalType": "address",
          "name": "requester",
          "type": "address"
        },
        {
          "internalType": "uint256",
          "name": "campaignId",
          "type": "uint256"
        },
        {
          "internalType": "enum ExpenseApproval.ExpenseStatus",
          "name": "status",
          "type": "uint8"
        },
        {
          "internalType": "uint256",
          "name": "submissionDate",
          "type": "uint256"
        },
        {
          "internalType": "uint256",
          "name": "requiredApprovals",
          "type": "uint256"
        },
        {
          "internalType": "uint256",
          "name": "approvalCount",
          "type": "uint256"
        }
      ],
      "stateMutability": "view",
      "type": "function"
    },
    {
      "inputs": [
        {
          "internalType": "uint256",
          "name": "expenseId",
          "type": "uint256"
        }
      ],
      "name": "getExpenseStatus",
      "outputs": [
        {
          "internalType": "enum ExpenseApproval.ExpenseStatus",
          "name": "",
          "type": "uint8"
        }
      ],
      "stateMutability": "view",
      "type": "function"
    },
    {
      "inputs": [
        {
          "internalType": "uint256",
          "name": "expenseId",
          "type": "uint256"
        },
        {
          "internalType": "address",
          "name": "approver",
          "type": "address"
        }
      ],
      "name": "hasApproved",
      "outputs": [
        {
          "internalType": "bool",
          "name": "",
          "type": "bool"
        }
      ],
      "stateMutability": "view",
      "type": "function"
    },
    {
      "inputs": [],
      "name": "organizationContract",
      "outputs": [
        {
          "internalType": "contract IOrganization",
          "name": "",
          "type": "address"
        }
      ],
      "stateMutability": "view",
      "type": "function"
    },
    {
      "inputs": [],
      "name": "owner",
      "outputs": [
        {
          "internalType": "address",
          "name": "",
          "type": "address"
        }
      ],
      "stateMutability": "view",
      "type": "function"
    },
    {
      "inputs": [
        {
          "internalType": "uint256",
          "name": "expenseId",
          "type": "uint256"
        },
        {
          "internalType": "address payable",
          "name": "recipient",
          "type": "address"
        }
      ],
      "name": "reimburseExpense",
      "outputs": [],
      "stateMutability": "payable",
      "type": "function"
    },
    {
      "inputs": [
        {
          "internalType": "uint256",
          "name": "expenseId",
          "type": "uint256"
        }
      ],
      "name": "rejectExpense",
      "outputs": [],
      "stateMutability": "nonpayable",
      "type": "function"
    },
    {
      "inputs": [],
      "name": "renounceOwnership",
      "outputs": [],
      "stateMutability": "nonpayable",
      "type": "function"
    },
    {
      "inputs": [
        {
          "internalType": "string",
          "name": "description",
          "type": "string"
        },
        {
          "internalType": "uint256",
          "name": "amount",
          "type": "uint256"
        },
        {
          "internalType": "string",
          "name": "receiptURI",
          "type": "string"
        },
        {
          "internalType": "uint256",
          "name": "campaignId",
          "type": "uint256"
        },
        {
          "internalType": "uint256",
          "name": "requiredApprovals",
          "type": "uint256"
        }
      ],
      "name": "submitExpense",
      "outputs": [
        {
          "internalType": "uint256",
          "name": "",
          "type": "uint256"
        }
      ],
      "stateMutability": "nonpayable",
      "type": "function"
    },
    {
      "inputs": [
        {
          "internalType": "address",
          "name": "newOwner",
          "type": "address"
        }
      ],
      "name": "transferOwnership",
      "outputs": [],
      "stateMutability": "nonpayable",
      "type": "function"
    }
  ],
  "bytecode": "0x608060405234801561001057600080fd5b506040516125a53803806125a583398181016040528101906100329190610223565b33600073ffffffffffffffffffffffffffffffffffffffff168173ffffffffffffffffffffffffffffffffffffffff16036100a55760006040517f1e4fbdf700000000000000000000000000000000000000000000000000000000815260040161009c919061025f565b60405180910390fd5b6100b4816100fc60201b60201c565b5080600360006101000a81548173ffffffffffffffffffffffffffffffffffffffff021916908373ffffffffffffffffffffffffffffffffffffffff1602179055505061027a565b60008060009054906101000a900473ffffffffffffffffffffffffffffffffffffffff169050816000806101000a81548173ffffffffffffffffffffffffffffffffffffffff021916908373ffffffffffffffffffffffffffffffffffffffff1602179055508173ffffffffffffffffffffffffffffffffffffffff168173ffffffffffffffffffffffffffffffffffffffff167f8be0079c531659141344cd1fd0a4f28419497f9722a3daafe3b4186f6b6457e060405160405180910390a35050565b600080fd5b600073ffffffffffffffffffffffffffffffffffffffff82169050919050565b60006101f0826101c5565b9050919050565b610200816101e5565b811461020b57600080fd5b50565b60008151905061021d816101f7565b92915050565b600060208284031215610239576102386101c0565b5b60006102478482850161020e565b91505092915050565b610259816101e5565b82525050565b60006020820190506102746000830184610250565b92915050565b61231c806102896000396000f3fe6080604052600436106100c25760003560e01c80638da5cb5b1161007f578063b579e7f111610059578063b579e7f114610277578063c9a92a44146102a0578063eed034c3146102e5578063f2fde38b1461030e576100c2565b80638da5cb5b146101eb578063a4e1bf3214610216578063af4afe0a14610232576100c2565b80632358d5a8146100c757806336abac291461010457806347a2fe4d1461012f57806352e7df5d1461016c578063715018a61461019757806374203e63146101ae575b600080fd5b3480156100d357600080fd5b506100ee60048036038101906100e99190611431565b610337565b6040516100fb919061148c565b60405180910390f35b34801561011057600080fd5b506101196103a2565b6040516101269190611506565b60405180910390f35b34801561013b57600080fd5b5061015660048036038101906101519190611667565b6103c8565b6040516101639190611729565b60405180910390f35b34801561017857600080fd5b506101816105e2565b60405161018e9190611729565b60405180910390f35b3480156101a357600080fd5b506101ac6105e8565b005b3480156101ba57600080fd5b506101d560048036038101906101d09190611744565b6105fc565b6040516101e291906117e8565b60405180910390f35b3480156101f757600080fd5b50610200610629565b60405161020d9190611812565b60405180910390f35b610230600480360381019061022b919061186b565b610652565b005b34801561023e57600080fd5b5061025960048036038101906102549190611744565b610922565b60405161026e9998979695949392919061192a565b60405180910390f35b34801561028357600080fd5b5061029e60048036038101906102999190611744565b610aad565b005b3480156102ac57600080fd5b506102c760048036038101906102c29190611744565b610e26565b6040516102dc9998979695949392919061192a565b60405180910390f35b3480156102f157600080fd5b5061030c60048036038101906103079190611744565b610fdc565b005b34801561031a57600080fd5b50610335600480360381019061033091906119c5565b6111b0565b005b60006001600084815260200190815260200160002060090160008373ffffffffffffffffffffffffffffffffffffffff1673ffffffffffffffffffffffffffffffffffffffff16815260200190815260200160002060009054906101000a900460ff16905092915050565b600360009054906101000a900473ffffffffffffffffffffffffffffffffffffffff1681565b6000600360009054906101000a900473ffffffffffffffffffffffffffffffffffffffff1673ffffffffffffffffffffffffffffffffffffffff1663a230c524336040518263ffffffff1660e01b81526004016104259190611812565b602060405180830381865afa158015610442573d6000803e3d6000fd5b505050506040513d601f19601f820116820180604052508101906104669190611a1e565b6104a5576040517f08c379a000000000000000000000000000000000000000000000000000000000815260040161049c90611a97565b60405180910390fd5b6000600260008154809291906104ba90611ae6565b9190505590506000600160008381526020019081526020016000209050878160000190816104e89190611d30565b50868160010181905550858160020190816105039190611d30565b50338160030160006101000a81548173ffffffffffffffffffffffffffffffffffffffff021916908373ffffffffffffffffffffffffffffffffffffffff16021790555084816004018190555060008160050160006101000a81548160ff0219169083600381111561057857610577611771565b5b0217905550428160060181905550838160070181905550600081600801819055507fcf54acab08aeb75788c31c66af65bd97b94b33f423822ac56d4774ba948a94318233896040516105cc93929190611e02565b60405180910390a1819250505095945050505050565b60025481565b6105f0611236565b6105fa60006112bd565b565b60006001600083815260200190815260200160002060050160009054906101000a900460ff169050919050565b60008060009054906101000a900473ffffffffffffffffffffffffffffffffffffffff16905090565b6000600160008481526020019081526020016000209050600360009054906101000a900473ffffffffffffffffffffffffffffffffffffffff1673ffffffffffffffffffffffffffffffffffffffff1663cc0d50e6336040518263ffffffff1660e01b81526004016106c49190611812565b602060405180830381865afa1580156106e1573d6000803e3d6000fd5b505050506040513d601f19601f820116820180604052508101906107059190611a1e565b610744576040517f08c379a000000000000000000000000000000000000000000000000000000000815260040161073b90611eab565b60405180910390fd5b6001600381111561075857610757611771565b5b8160050160009054906101000a900460ff16600381111561077c5761077b611771565b5b146107bc576040517f08c379a00000000000000000000000000000000000000000000000000000000081526004016107b390611f17565b60405180910390fd5b8060010154341015610803576040517f08c379a00000000000000000000000000000000000000000000000000000000081526004016107fa90611fa9565b60405180910390fd5b60038160050160006101000a81548160ff0219169083600381111561082b5761082a611771565b5b02179055508173ffffffffffffffffffffffffffffffffffffffff166108fc82600101549081150290604051600060405180830381858888f1935050505015801561087a573d6000803e3d6000fd5b5080600101543411156108de573373ffffffffffffffffffffffffffffffffffffffff166108fc8260010154346108b19190611fc9565b9081150290604051600060405180830381858888f193505050501580156108dc573d6000803e3d6000fd5b505b7f367e3161f363f3d46104bbcbf74f74f8bb5bbce8e72b61fb17cd99133deb5447838383600101546040516109159392919061201e565b60405180910390a1505050565b600160205280600052604060002060009150905080600001805461094590611b5d565b80601f016020809104026020016040519081016040528092919081815260200182805461097190611b5d565b80156109be5780601f10610993576101008083540402835291602001916109be565b820191906000526020600020905b8154815290600101906020018083116109a157829003601f168201915b5050505050908060010154908060020180546109d990611b5d565b80601f0160208091040260200160405190810160405280929190818152602001828054610a0590611b5d565b8015610a525780601f10610a2757610100808354040283529160200191610a52565b820191906000526020600020905b815481529060010190602001808311610a3557829003601f168201915b5050505050908060030160009054906101000a900473ffffffffffffffffffffffffffffffffffffffff16908060040154908060050160009054906101000a900460ff16908060060154908060070154908060080154905089565b600360009054906101000a900473ffffffffffffffffffffffffffffffffffffffff1673ffffffffffffffffffffffffffffffffffffffff1663cc0d50e6336040518263ffffffff1660e01b8152600401610b089190611812565b602060405180830381865afa158015610b25573d6000803e3d6000fd5b505050506040513d601f19601f82011682018060405250810190610b499190611a1e565b610b88576040517f08c379a0000000000000000000000000000000000000000000000000000000008152600401610b7f906120c7565b60405180910390fd5b600060016000838152602001908152602001600020905060006003811115610bb357610bb2611771565b5b8160050160009054906101000a900460ff166003811115610bd757610bd6611771565b5b14610c17576040517f08c379a0000000000000000000000000000000000000000000000000000000008152600401610c0e90612133565b60405180910390fd5b8060090160003373ffffffffffffffffffffffffffffffffffffffff1673ffffffffffffffffffffffffffffffffffffffff16815260200190815260200160002060009054906101000a900460ff1615610ca6576040517f08c379a0000000000000000000000000000000000000000000000000000000008152600401610c9d9061219f565b60405180910390fd5b3373ffffffffffffffffffffffffffffffffffffffff168160030160009054906101000a900473ffffffffffffffffffffffffffffffffffffffff1673ffffffffffffffffffffffffffffffffffffffff1603610d38576040517f08c379a0000000000000000000000000000000000000000000000000000000008152600401610d2f9061220b565b60405180910390fd5b60018160090160003373ffffffffffffffffffffffffffffffffffffffff1673ffffffffffffffffffffffffffffffffffffffff16815260200190815260200160002060006101000a81548160ff021916908315150217905550806008016000815480929190610da790611ae6565b91905055507fe162d266e792d6e0f285a2273576dbe93b2fbcd9499160acece9637353977cc38233604051610ddd92919061222b565b60405180910390a18060070154816008015410610e225760018160050160006101000a81548160ff02191690836003811115610e1c57610e1b611771565b5b02179055505b5050565b6060600060606000806000806000806000600160008c81526020019081526020016000209050806000018160010154826002018360030160009054906101000a900473ffffffffffffffffffffffffffffffffffffffff1684600401548560050160009054906101000a900460ff16866006015487600701548860080154888054610eb090611b5d565b80601f0160208091040260200160405190810160405280929190818152602001828054610edc90611b5d565b8015610f295780601f10610efe57610100808354040283529160200191610f29565b820191906000526020600020905b815481529060010190602001808311610f0c57829003601f168201915b50505050509850868054610f3c90611b5d565b80601f0160208091040260200160405190810160405280929190818152602001828054610f6890611b5d565b8015610fb55780601f10610f8a57610100808354040283529160200191610fb5565b820191906000526020600020905b815481529060010190602001808311610f9857829003601f168201915b50505050509650995099509950995099509950995099509950509193959799909294969850565b600360009054906101000a900473ffffffffffffffffffffffffffffffffffffffff1673ffffffffffffffffffffffffffffffffffffffff1663cc0d50e6336040518263ffffffff1660e01b81526004016110379190611812565b602060405180830381865afa158015611054573d6000803e3d6000fd5b505050506040513d601f19601f820116820180604052508101906110789190611a1e565b6110b7576040517f08c379a00000000000000000000000000000000000000000000000000000000081526004016110ae906122c6565b60405180910390fd5b6000600160008381526020019081526020016000209050600060038111156110e2576110e1611771565b5b8160050160009054906101000a900460ff16600381111561110657611105611771565b5b14611146576040517f08c379a000000000000000000000000000000000000000000000000000000000815260040161113d90612133565b60405180910390fd5b60028160050160006101000a81548160ff0219169083600381111561116e5761116d611771565b5b02179055507f6556e22eb44697120b4eaa4dab5d6b2e429028c47f90456ab0de628698739f8e82336040516111a492919061222b565b60405180910390a15050565b6111b8611236565b600073ffffffffffffffffffffffffffffffffffffffff168173ffffffffffffffffffffffffffffffffffffffff160361122a5760006040517f1e4fbdf70000000000000000000000000000000000000000000000000000000081526004016112219190611812565b60405180910390fd5b611233816112bd565b50565b61123e611381565b73ffffffffffffffffffffffffffffffffffffffff1661125c610629565b73ffffffffffffffffffffffffffffffffffffffff16146112bb5761127f611381565b6040517f118cdaa70000000000000000000000000000000000000000000000000000000081526004016112b29190611812565b60405180910390fd5b565b60008060009054906101000a900473ffffffffffffffffffffffffffffffffffffffff169050816000806101000a81548173ffffffffffffffffffffffffffffffffffffffff021916908373ffffffffffffffffffffffffffffffffffffffff1602179055508173ffffffffffffffffffffffffffffffffffffffff168173ffffffffffffffffffffffffffffffffffffffff167f8be0079c531659141344cd1fd0a4f28419497f9722a3daafe3b4186f6b6457e060405160405180910390a35050565b600033905090565b6000604051905090565b600080fd5b600080fd5b6000819050919050565b6113b08161139d565b81146113bb57600080fd5b50565b6000813590506113cd816113a7565b92915050565b600073ffffffffffffffffffffffffffffffffffffffff82169050919050565b60006113fe826113d3565b9050919050565b61140e816113f3565b811461141957600080fd5b50565b60008135905061142b81611405565b92915050565b6000806040838503121561144857611447611393565b5b6000611456858286016113be565b92505060206114678582860161141c565b9150509250929050565b60008115159050919050565b61148681611471565b82525050565b60006020820190506114a1600083018461147d565b92915050565b6000819050919050565b60006114cc6114c76114c2846113d3565b6114a7565b6113d3565b9050919050565b60006114de826114b1565b9050919050565b60006114f0826114d3565b9050919050565b611500816114e5565b82525050565b600060208201905061151b60008301846114f7565b92915050565b600080fd5b600080fd5b6000601f19601f8301169050919050565b7f4e487b7100000000000000000000000000000000000000000000000000000000600052604160045260246000fd5b6115748261152b565b810181811067ffffffffffffffff821117156115935761159261153c565b5b80604052505050565b60006115a6611389565b90506115b2828261156b565b919050565b600067ffffffffffffffff8211156115d2576115d161153c565b5b6115db8261152b565b9050602081019050919050565b82818337600083830152505050565b600061160a611605846115b7565b61159c565b90508281526020810184848401111561162657611625611526565b5b6116318482856115e8565b509392505050565b600082601f83011261164e5761164d611521565b5b813561165e8482602086016115f7565b91505092915050565b600080600080600060a0868803121561168357611682611393565b5b600086013567ffffffffffffffff8111156116a1576116a0611398565b5b6116ad88828901611639565b95505060206116be888289016113be565b945050604086013567ffffffffffffffff8111156116df576116de611398565b5b6116eb88828901611639565b93505060606116fc888289016113be565b925050608061170d888289016113be565b9150509295509295909350565b6117238161139d565b82525050565b600060208201905061173e600083018461171a565b92915050565b60006020828403121561175a57611759611393565b5b6000611768848285016113be565b91505092915050565b7f4e487b7100000000000000000000000000000000000000000000000000000000600052602160045260246000fd5b600481106117b1576117b0611771565b5b50565b60008190506117c2826117a0565b919050565b60006117d2826117b4565b9050919050565b6117e2816117c7565b82525050565b60006020820190506117fd60008301846117d9565b92915050565b61180c816113f3565b82525050565b60006020820190506118276000830184611803565b92915050565b6000611838826113d3565b9050919050565b6118488161182d565b811461185357600080fd5b50565b6000813590506118658161183f565b92915050565b6000806040838503121561188257611881611393565b5b6000611890858286016113be565b92505060206118a185828601611856565b9150509250929050565b600081519050919050565b600082825260208201905092915050565b60005b838110156118e55780820151818401526020810190506118ca565b60008484015250505050565b60006118fc826118ab565b61190681856118b6565b93506119168185602086016118c7565b61191f8161152b565b840191505092915050565b6000610120820190508181036000830152611945818c6118f1565b9050611954602083018b61171a565b8181036040830152611966818a6118f1565b90506119756060830189611803565b611982608083018861171a565b61198f60a08301876117d9565b61199c60c083018661171a565b6119a960e083018561171a565b6119b761010083018461171a565b9a9950505050505050505050565b6000602082840312156119db576119da611393565b5b60006119e98482850161141c565b91505092915050565b6119fb81611471565b8114611a0657600080fd5b50565b600081519050611a18816119f2565b92915050565b600060208284031215611a3457611a33611393565b5b6000611a4284828501611a09565b91505092915050565b7f4f6e6c79206d656d626572732063616e207375626d697420657870656e736573600082015250565b6000611a816020836118b6565b9150611a8c82611a4b565b602082019050919050565b60006020820190508181036000830152611ab081611a74565b9050919050565b7f4e487b7100000000000000000000000000000000000000000000000000000000600052601160045260246000fd5b6000611af18261139d565b91507fffffffffffffffffffffffffffffffffffffffffffffffffffffffffffffffff8203611b2357611b22611ab7565b5b600182019050919050565b7f4e487b7100000000000000000000000000000000000000000000000000000000600052602260045260246000fd5b60006002820490506001821680611b7557607f821691505b602082108103611b8857611b87611b2e565b5b50919050565b60008190508160005260206000209050919050565b60006020601f8301049050919050565b600082821b905092915050565b600060088302611bf07fffffffffffffffffffffffffffffffffffffffffffffffffffffffffffffffff82611bb3565b611bfa8683611bb3565b95508019841693508086168417925050509392505050565b6000611c2d611c28611c238461139d565b6114a7565b61139d565b9050919050565b6000819050919050565b611c4783611c12565b611c5b611c5382611c34565b848454611bc0565b825550505050565b600090565b611c70611c63565b611c7b818484611c3e565b505050565b5b81811015611c9f57611c94600082611c68565b600181019050611c81565b5050565b601f821115611ce457611cb581611b8e565b611cbe84611ba3565b81016020851015611ccd578190505b611ce1611cd985611ba3565b830182611c80565b50505b505050565b600082821c905092915050565b6000611d0760001984600802611ce9565b1980831691505092915050565b6000611d208383611cf6565b9150826002028217905092915050565b611d39826118ab565b67ffffffffffffffff811115611d5257611d5161153c565b5b611d5c8254611b5d565b611d67828285611ca3565b600060209050601f831160018114611d9a5760008415611d88578287015190505b611d928582611d14565b865550611dfa565b601f198416611da886611b8e565b60005b82811015611dd057848901518255600182019150602085019450602081019050611dab565b86831015611ded5784890151611de9601f891682611cf6565b8355505b6001600288020188555050505b505050505050565b6000606082019050611e17600083018661171a565b611e246020830185611803565b611e31604083018461171a565b949350505050565b7f4f6e6c7920747265617375726572732063616e207265696d627572736520657860008201527f70656e7365730000000000000000000000000000000000000000000000000000602082015250565b6000611e956026836118b6565b9150611ea082611e39565b604082019050919050565b60006020820190508181036000830152611ec481611e88565b9050919050565b7f457870656e7365206d75737420626520617070726f7665640000000000000000600082015250565b6000611f016018836118b6565b9150611f0c82611ecb565b602082019050919050565b60006020820190508181036000830152611f3081611ef4565b9050919050565b7f496e73756666696369656e74207265696d62757273656d656e7420616d6f756e60008201527f7400000000000000000000000000000000000000000000000000000000000000602082015250565b6000611f936021836118b6565b9150611f9e82611f37565b604082019050919050565b60006020820190508181036000830152611fc281611f86565b9050919050565b6000611fd48261139d565b9150611fdf8361139d565b9250828203905081811115611ff757611ff6611ab7565b5b92915050565b6000612008826114d3565b9050919050565b61201881611ffd565b82525050565b6000606082019050612033600083018661171a565b612040602083018561200f565b61204d604083018461171a565b949350505050565b7f4f6e6c7920747265617375726572732063616e20617070726f7665206578706560008201527f6e73657300000000000000000000000000000000000000000000000000000000602082015250565b60006120b16024836118b6565b91506120bc82612055565b604082019050919050565b600060208201905081810360008301526120e0816120a4565b9050919050565b7f457870656e7365206973206e6f742070656e64696e6700000000000000000000600082015250565b600061211d6016836118b6565b9150612128826120e7565b602082019050919050565b6000602082019050818103600083015261214c81612110565b9050919050565b7f416c726561647920617070726f76656400000000000000000000000000000000600082015250565b60006121896010836118b6565b915061219482612153565b602082019050919050565b600060208201905081810360008301526121b88161217c565b9050919050565b7f43616e6e6f7420617070726f7665206f776e20657870656e7365000000000000600082015250565b60006121f5601a836118b6565b9150612200826121bf565b602082019050919050565b60006020820190508181036000830152612224816121e8565b9050919050565b6000604082019050612240600083018561171a565b61224d6020830184611803565b9392505050565b7f4f6e6c7920747265617375726572732063616e2072656a65637420657870656e60008201527f7365730000000000000000000000000000000000000000000000000000000000602082015250565b60006122b06023836118b6565b91506122bb82612254565b604082019050919050565b600060208201905081810360008301526122df816122a3565b905091905056fea26469706673582212209ba2467cf12021a658e5da9c9c432c86a25e6d937950a9e87c175a0078f54f7e64736f6c634300081c0033",
  "linkReferences": {},
  "deployedLinkReferences": {}
}