{
  "_format": "hh-sol-artifact-1",
  "contractName": "Organization",
  "sourceName": "contracts/src/OrganizationFactory.sol",
  "abi": [
    {
      "inputs": [
        {
          "internalType": "string",
          "name": "_name",
          "type": "string"
        },
        {
          "internalType": "string",
          "name": "_description",
          "type": "string"
        },
        {
          "internalType": "string",
          "name": "_mission",
          "type": "string"
        },
        {
          "internalType": "address",
          "name": "admin",
          "type": "address"
        }
      ],
      "stateMutability": "nonpayable",
      "type": "constructor"
    },
    {
      "inputs": [
        {
          "internalType": "address",
          "name": "owner",
          "type": "address"
        }
      ],
      "name": "OwnableInvalidOwner",
      "type": "error"
    },
    {
      "inputs": [
        {
          "internalType": "address",
          "name": "account",
          "type": "address"
        }
      ],
      "name": "OwnableUnauthorizedAccount",
      "type": "error"
    },
    {
      "anonymous": false,
      "inputs": [
        {
          "indexed": false,
          "internalType": "address",
          "name": "member",
          "type": "address"
        }
      ],
      "name": "MemberAdded",
      "type": "event"
    },
    {
      "anonymous": false,
      "inputs": [
        {
          "indexed": false,
          "internalType": "address",
          "name": "member",
          "type": "address"
        }
      ],
      "name": "MemberRemoved",
      "type": "event"
    },
    {
      "anonymous": false,
      "inputs": [
        {
          "indexed": true,
          "internalType": "address",
          "name": "previousOwner",
          "type": "address"
        },
        {
          "indexed": true,
          "internalType": "address",
          "name": "newOwner",
          "type": "address"
        }
      ],
      "name": "OwnershipTransferred",
      "type": "event"
    },
    {
      "anonymous": false,
      "inputs": [
        {
          "indexed": false,
          "internalType": "address",
          "name": "treasurer",
          "type": "address"
        }
      ],
      "name": "TreasurerAdded",
      "type": "event"
    },
    {
      "anonymous": false,
      "inputs": [
        {
          "indexed": false,
          "internalType": "address",
          "name": "treasurer",
          "type": "address"
        }
      ],
      "name": "TreasurerRemoved",
      "type": "event"
    },
    {
      "inputs": [
        {
          "internalType": "address",
          "name": "member",
          "type": "address"
        }
      ],
      "name": "addMember",
      "outputs": [],
      "stateMutability": "nonpayable",
      "type": "function"
    },
    {
      "inputs": [
        {
          "internalType": "address",
          "name": "treasurer",
          "type": "address"
        }
      ],
      "name": "addTreasurer",
      "outputs": [],
      "stateMutability": "nonpayable",
      "type": "function"
    },
    {
      "inputs": [],
      "name": "creationDate",
      "outputs": [
        {
          "internalType": "uint256",
          "name": "",
          "type": "uint256"
        }
      ],
      "stateMutability": "view",
      "type": "function"
    },
    {
      "inputs": [],
      "name": "description",
      "outputs": [
        {
          "internalType": "string",
          "name": "",
          "type": "string"
        }
      ],
      "stateMutability": "view",
      "type": "function"
    },
    {
      "inputs": [],
      "name": "getMemberCount",
      "outputs": [
        {
          "internalType": "uint256",
          "name": "",
          "type": "uint256"
        }
      ],
      "stateMutability": "view",
      "type": "function"
    },
    {
      "inputs": [
        {
          "internalType": "address",
          "name": "account",
          "type": "address"
        }
      ],
      "name": "isMember",
      "outputs": [
        {
          "internalType": "bool",
          "name": "",
          "type": "bool"
        }
      ],
      "stateMutability": "view",
      "type": "function"
    },
    {
      "inputs": [
        {
          "internalType": "address",
          "name": "account",
          "type": "address"
        }
      ],
      "name": "isTreasurer",
      "outputs": [
        {
          "internalType": "bool",
          "name": "",
          "type": "bool"
        }
      ],
      "stateMutability": "view",
      "type": "function"
    },
    {
      "inputs": [
        {
          "internalType": "uint256",
          "name": "",
          "type": "uint256"
        }
      ],
      "name": "memberArray",
      "outputs": [
        {
          "internalType": "address",
          "name": "",
          "type": "address"
        }
      ],
      "stateMutability": "view",
      "type": "function"
    },
    {
      "inputs": [
        {
          "internalType": "address",
          "name": "",
          "type": "address"
        }
      ],
      "name": "members",
      "outputs": [
        {
          "internalType": "bool",
          "name": "",
          "type": "bool"
        }
      ],
      "stateMutability": "view",
      "type": "function"
    },
    {
      "inputs": [],
      "name": "mission",
      "outputs": [
        {
          "internalType": "string",
          "name": "",
          "type": "string"
        }
      ],
      "stateMutability": "view",
      "type": "function"
    },
    {
      "inputs": [],
      "name": "name",
      "outputs": [
        {
          "internalType": "string",
          "name": "",
          "type": "string"
        }
      ],
      "stateMutability": "view",
      "type": "function"
    },
    {
      "inputs": [],
      "name": "owner",
      "outputs": [
        {
          "internalType": "address",
          "name": "",
          "type": "address"
        }
      ],
      "stateMutability": "view",
      "type": "function"
    },
    {
      "inputs": [
        {
          "internalType": "address",
          "name": "member",
          "type": "address"
        }
      ],
      "name": "removeMember",
      "outputs": [],
      "stateMutability": "nonpayable",
      "type": "function"
    },
    {
      "inputs": [
        {
          "internalType": "address",
          "name": "treasurer",
          "type": "address"
        }
      ],
      "name": "removeTreasurer",
      "outputs": [],
      "stateMutability": "nonpayable",
      "type": "function"
    },
    {
      "inputs": [],
      "name": "renounceOwnership",
      "outputs": [],
      "stateMutability": "nonpayable",
      "type": "function"
    },
    {
      "inputs": [
        {
          "internalType": "address",
          "name": "newOwner",
          "type": "address"
        }
      ],
      "name": "transferOwnership",
      "outputs": [],
      "stateMutability": "nonpayable",
      "type": "function"
    },
    {
      "inputs": [
        {
          "internalType": "address",
          "name": "",
          "type": "address"
        }
      ],
      "name": "treasurers",
      "outputs": [
        {
          "internalType": "bool",
          "name": "",
          "type": "bool"
        }
      ],
      "stateMutability": "view",
      "type": "function"
    }
  ],
  "bytecode": "0x608060405234801561001057600080fd5b50604051611d51380380611d518339818101604052810190610032919061049f565b80600073ffffffffffffffffffffffffffffffffffffffff168173ffffffffffffffffffffffffffffffffffffffff16036100a55760006040517f1e4fbdf700000000000000000000000000000000000000000000000000000000815260040161009c9190610569565b60405180910390fd5b6100b48161020860201b60201c565b5083600190816100c491906107a5565b5082600290816100d491906107a5565b5081600390816100e491906107a5565b50426004819055506001600560008373ffffffffffffffffffffffffffffffffffffffff1673ffffffffffffffffffffffffffffffffffffffff16815260200190815260200160002060006101000a81548160ff0219169083151502179055506007819080600181540180825580915050600190039060005260206000200160009091909190916101000a81548173ffffffffffffffffffffffffffffffffffffffff021916908373ffffffffffffffffffffffffffffffffffffffff1602179055506001600660008373ffffffffffffffffffffffffffffffffffffffff1673ffffffffffffffffffffffffffffffffffffffff16815260200190815260200160002060006101000a81548160ff02191690831515021790555050505050610877565b60008060009054906101000a900473ffffffffffffffffffffffffffffffffffffffff169050816000806101000a81548173ffffffffffffffffffffffffffffffffffffffff021916908373ffffffffffffffffffffffffffffffffffffffff1602179055508173ffffffffffffffffffffffffffffffffffffffff168173ffffffffffffffffffffffffffffffffffffffff167f8be0079c531659141344cd1fd0a4f28419497f9722a3daafe3b4186f6b6457e060405160405180910390a35050565b6000604051905090565b600080fd5b600080fd5b600080fd5b600080fd5b6000601f19601f8301169050919050565b7f4e487b7100000000000000000000000000000000000000000000000000000000600052604160045260246000fd5b610333826102ea565b810181811067ffffffffffffffff82111715610352576103516102fb565b5b80604052505050565b60006103656102cc565b9050610371828261032a565b919050565b600067ffffffffffffffff821115610391576103906102fb565b5b61039a826102ea565b9050602081019050919050565b60005b838110156103c55780820151818401526020810190506103aa565b60008484015250505050565b60006103e46103df84610376565b61035b565b905082815260208101848484011115610400576103ff6102e5565b5b61040b8482856103a7565b509392505050565b600082601f830112610428576104276102e0565b5b81516104388482602086016103d1565b91505092915050565b600073ffffffffffffffffffffffffffffffffffffffff82169050919050565b600061046c82610441565b9050919050565b61047c81610461565b811461048757600080fd5b50565b60008151905061049981610473565b92915050565b600080600080608085870312156104b9576104b86102d6565b5b600085015167ffffffffffffffff8111156104d7576104d66102db565b5b6104e387828801610413565b945050602085015167ffffffffffffffff811115610504576105036102db565b5b61051087828801610413565b935050604085015167ffffffffffffffff811115610531576105306102db565b5b61053d87828801610413565b925050606061054e8782880161048a565b91505092959194509250565b61056381610461565b82525050565b600060208201905061057e600083018461055a565b92915050565b600081519050919050565b7f4e487b7100000000000000000000000000000000000000000000000000000000600052602260045260246000fd5b600060028204905060018216806105d657607f821691505b6020821081036105e9576105e861058f565b5b50919050565b60008190508160005260206000209050919050565b60006020601f8301049050919050565b600082821b905092915050565b6000600883026106517fffffffffffffffffffffffffffffffffffffffffffffffffffffffffffffffff82610614565b61065b8683610614565b95508019841693508086168417925050509392505050565b6000819050919050565b6000819050919050565b60006106a261069d61069884610673565b61067d565b610673565b9050919050565b6000819050919050565b6106bc83610687565b6106d06106c8826106a9565b848454610621565b825550505050565b600090565b6106e56106d8565b6106f08184846106b3565b505050565b5b81811015610714576107096000826106dd565b6001810190506106f6565b5050565b601f8211156107595761072a816105ef565b61073384610604565b81016020851015610742578190505b61075661074e85610604565b8301826106f5565b50505b505050565b600082821c905092915050565b600061077c6000198460080261075e565b1980831691505092915050565b6000610795838361076b565b9150826002028217905092915050565b6107ae82610584565b67ffffffffffffffff8111156107c7576107c66102fb565b5b6107d182546105be565b6107dc828285610718565b600060209050601f83116001811461080f57600084156107fd578287015190505b6108078582610789565b86555061086f565b601f19841661081d866105ef565b60005b8281101561084557848901518255600182019150602085019450602081019050610820565b86831015610862578489015161085e601f89168261076b565b8355505b6001600288020188555050505b505050505050565b6114cb806108866000396000f3fe608060405234801561001057600080fd5b506004361061010b5760003560e01c80638da5cb5b116100a2578063ab56a29c11610071578063ab56a29c14610296578063c726dea8146102b2578063ca6d56dc146102e2578063cc0d50e6146102fe578063f2fde38b1461032e5761010b565b80638da5cb5b1461020e57806396f0248a1461022c578063997072f714610248578063a230c524146102665761010b565b806311f12536116100de57806311f125361461019857806317701ee6146101c8578063715018a6146101e65780637284e416146101f05761010b565b806305b344101461011057806306fdde031461012e57806308ae4b0c1461014c5780630b1ca49a1461017c575b600080fd5b61011861034a565b6040516101259190610f42565b60405180910390f35b610136610350565b6040516101439190610fed565b60405180910390f35b61016660048036038101906101619190611072565b6103de565b60405161017391906110ba565b60405180910390f35b61019660048036038101906101919190611072565b6103fe565b005b6101b260048036038101906101ad9190611072565b610720565b6040516101bf91906110ba565b60405180910390f35b6101d0610740565b6040516101dd9190610fed565b60405180910390f35b6101ee6107ce565b005b6101f86107e2565b6040516102059190610fed565b60405180910390f35b610216610870565b60405161022391906110e4565b60405180910390f35b61024660048036038101906102419190611072565b610899565b005b6102506109a8565b60405161025d9190610f42565b60405180910390f35b610280600480360381019061027b9190611072565b6109b5565b60405161028d91906110ba565b60405180910390f35b6102b060048036038101906102ab9190611072565b610a0b565b005b6102cc60048036038101906102c7919061112b565b610b31565b6040516102d991906110e4565b60405180910390f35b6102fc60048036038101906102f79190611072565b610b70565b005b61031860048036038101906103139190611072565b610cfa565b60405161032591906110ba565b60405180910390f35b61034860048036038101906103439190611072565b610d50565b005b60045481565b6001805461035d90611187565b80601f016020809104026020016040519081016040528092919081815260200182805461038990611187565b80156103d65780601f106103ab576101008083540402835291602001916103d6565b820191906000526020600020905b8154815290600101906020018083116103b957829003601f168201915b505050505081565b60056020528060005260406000206000915054906101000a900460ff1681565b610406610dd6565b600560008273ffffffffffffffffffffffffffffffffffffffff1673ffffffffffffffffffffffffffffffffffffffff16815260200190815260200160002060009054906101000a900460ff16610492576040517f08c379a000000000000000000000000000000000000000000000000000000000815260040161048990611204565b60405180910390fd5b61049a610870565b73ffffffffffffffffffffffffffffffffffffffff168173ffffffffffffffffffffffffffffffffffffffff1603610507576040517f08c379a00000000000000000000000000000000000000000000000000000000081526004016104fe90611270565b60405180910390fd5b6000600560008373ffffffffffffffffffffffffffffffffffffffff1673ffffffffffffffffffffffffffffffffffffffff16815260200190815260200160002060006101000a81548160ff02191690831515021790555060005b6007805490508110156106e5578173ffffffffffffffffffffffffffffffffffffffff166007828154811061059a57610599611290565b5b9060005260206000200160009054906101000a900473ffffffffffffffffffffffffffffffffffffffff1673ffffffffffffffffffffffffffffffffffffffff16036106d857600760016007805490506105f491906112ee565b8154811061060557610604611290565b5b9060005260206000200160009054906101000a900473ffffffffffffffffffffffffffffffffffffffff166007828154811061064457610643611290565b5b9060005260206000200160006101000a81548173ffffffffffffffffffffffffffffffffffffffff021916908373ffffffffffffffffffffffffffffffffffffffff160217905550600780548061069e5761069d611322565b5b6001900381819060005260206000200160006101000a81549073ffffffffffffffffffffffffffffffffffffffff021916905590556106e5565b8080600101915050610562565b507f6e76fb4c77256006d9c38ec7d82b45a8c8f3c27b1d6766fffc42dfb8de6844928160405161071591906110e4565b60405180910390a150565b60066020528060005260406000206000915054906101000a900460ff1681565b6003805461074d90611187565b80601f016020809104026020016040519081016040528092919081815260200182805461077990611187565b80156107c65780601f1061079b576101008083540402835291602001916107c6565b820191906000526020600020905b8154815290600101906020018083116107a957829003601f168201915b505050505081565b6107d6610dd6565b6107e06000610e5d565b565b600280546107ef90611187565b80601f016020809104026020016040519081016040528092919081815260200182805461081b90611187565b80156108685780601f1061083d57610100808354040283529160200191610868565b820191906000526020600020905b81548152906001019060200180831161084b57829003601f168201915b505050505081565b60008060009054906101000a900473ffffffffffffffffffffffffffffffffffffffff16905090565b6108a1610dd6565b6108a9610870565b73ffffffffffffffffffffffffffffffffffffffff168173ffffffffffffffffffffffffffffffffffffffff1603610916576040517f08c379a000000000000000000000000000000000000000000000000000000000815260040161090d9061139d565b60405180910390fd5b6000600660008373ffffffffffffffffffffffffffffffffffffffff1673ffffffffffffffffffffffffffffffffffffffff16815260200190815260200160002060006101000a81548160ff0219169083151502179055507ffde0077ce013732f55b20a58418bed5fb0e385d4d3c5751099cc6ad1b96f87a38160405161099d91906110e4565b60405180910390a150565b6000600780549050905090565b6000600560008373ffffffffffffffffffffffffffffffffffffffff1673ffffffffffffffffffffffffffffffffffffffff16815260200190815260200160002060009054906101000a900460ff169050919050565b610a13610dd6565b600560008273ffffffffffffffffffffffffffffffffffffffff1673ffffffffffffffffffffffffffffffffffffffff16815260200190815260200160002060009054906101000a900460ff16610a9f576040517f08c379a0000000000000000000000000000000000000000000000000000000008152600401610a9690611409565b60405180910390fd5b6001600660008373ffffffffffffffffffffffffffffffffffffffff1673ffffffffffffffffffffffffffffffffffffffff16815260200190815260200160002060006101000a81548160ff0219169083151502179055507f2393e866bbe309c483802f9f50d0bd152952a8aeb6fca8419721af65e2f3c74b81604051610b2691906110e4565b60405180910390a150565b60078181548110610b4157600080fd5b906000526020600020016000915054906101000a900473ffffffffffffffffffffffffffffffffffffffff1681565b610b78610dd6565b600560008273ffffffffffffffffffffffffffffffffffffffff1673ffffffffffffffffffffffffffffffffffffffff16815260200190815260200160002060009054906101000a900460ff1615610c05576040517f08c379a0000000000000000000000000000000000000000000000000000000008152600401610bfc90611475565b60405180910390fd5b6001600560008373ffffffffffffffffffffffffffffffffffffffff1673ffffffffffffffffffffffffffffffffffffffff16815260200190815260200160002060006101000a81548160ff0219169083151502179055506007819080600181540180825580915050600190039060005260206000200160009091909190916101000a81548173ffffffffffffffffffffffffffffffffffffffff021916908373ffffffffffffffffffffffffffffffffffffffff1602179055507fb251eb052afc73ffd02ffe85ad79990a8b3fed60d76dbc2fa2fdd7123dffd91481604051610cef91906110e4565b60405180910390a150565b6000600660008373ffffffffffffffffffffffffffffffffffffffff1673ffffffffffffffffffffffffffffffffffffffff16815260200190815260200160002060009054906101000a900460ff169050919050565b610d58610dd6565b600073ffffffffffffffffffffffffffffffffffffffff168173ffffffffffffffffffffffffffffffffffffffff1603610dca5760006040517f1e4fbdf7000000000000000000000000000000000000000000000000000000008152600401610dc191906110e4565b60405180910390fd5b610dd381610e5d565b50565b610dde610f21565b73ffffffffffffffffffffffffffffffffffffffff16610dfc610870565b73ffffffffffffffffffffffffffffffffffffffff1614610e5b57610e1f610f21565b6040517f118cdaa7000000000000000000000000000000000000000000000000000000008152600401610e5291906110e4565b60405180910390fd5b565b60008060009054906101000a900473ffffffffffffffffffffffffffffffffffffffff169050816000806101000a81548173ffffffffffffffffffffffffffffffffffffffff021916908373ffffffffffffffffffffffffffffffffffffffff1602179055508173ffffffffffffffffffffffffffffffffffffffff168173ffffffffffffffffffffffffffffffffffffffff167f8be0079c531659141344cd1fd0a4f28419497f9722a3daafe3b4186f6b6457e060405160405180910390a35050565b600033905090565b6000819050919050565b610f3c81610f29565b82525050565b6000602082019050610f576000830184610f33565b92915050565b600081519050919050565b600082825260208201905092915050565b60005b83811015610f97578082015181840152602081019050610f7c565b60008484015250505050565b6000601f19601f8301169050919050565b6000610fbf82610f5d565b610fc98185610f68565b9350610fd9818560208601610f79565b610fe281610fa3565b840191505092915050565b600060208201905081810360008301526110078184610fb4565b905092915050565b600080fd5b600073ffffffffffffffffffffffffffffffffffffffff82169050919050565b600061103f82611014565b9050919050565b61104f81611034565b811461105a57600080fd5b50565b60008135905061106c81611046565b92915050565b6000602082840312156110885761108761100f565b5b60006110968482850161105d565b91505092915050565b60008115159050919050565b6110b48161109f565b82525050565b60006020820190506110cf60008301846110ab565b92915050565b6110de81611034565b82525050565b60006020820190506110f960008301846110d5565b92915050565b61110881610f29565b811461111357600080fd5b50565b600081359050611125816110ff565b92915050565b6000602082840312156111415761114061100f565b5b600061114f84828501611116565b91505092915050565b7f4e487b7100000000000000000000000000000000000000000000000000000000600052602260045260246000fd5b6000600282049050600182168061119f57607f821691505b6020821081036111b2576111b1611158565b5b50919050565b7f4e6f742061206d656d6265720000000000000000000000000000000000000000600082015250565b60006111ee600c83610f68565b91506111f9826111b8565b602082019050919050565b6000602082019050818103600083015261121d816111e1565b9050919050565b7f43616e6e6f742072656d6f76652061646d696e00000000000000000000000000600082015250565b600061125a601383610f68565b915061126582611224565b602082019050919050565b600060208201905081810360008301526112898161124d565b9050919050565b7f4e487b7100000000000000000000000000000000000000000000000000000000600052603260045260246000fd5b7f4e487b7100000000000000000000000000000000000000000000000000000000600052601160045260246000fd5b60006112f982610f29565b915061130483610f29565b925082820390508181111561131c5761131b6112bf565b5b92915050565b7f4e487b7100000000000000000000000000000000000000000000000000000000600052603160045260246000fd5b7f43616e6e6f742072656d6f76652061646d696e20617320747265617375726572600082015250565b6000611387602083610f68565b915061139282611351565b602082019050919050565b600060208201905081810360008301526113b68161137a565b9050919050565b7f4d7573742062652061206d656d62657220666972737400000000000000000000600082015250565b60006113f3601683610f68565b91506113fe826113bd565b602082019050919050565b60006020820190508181036000830152611422816113e6565b9050919050565b7f416c72656164792061206d656d62657200000000000000000000000000000000600082015250565b600061145f601083610f68565b915061146a82611429565b602082019050919050565b6000602082019050818103600083015261148e81611452565b905091905056fea26469706673582212201539a3d8489db8bb9800bcdd9c08e18419915939bd94a7ccdf878acc9a34425864736f6c634300081c0033",
  "linkReferences": {},
  "deployedLinkReferences": {}
}