{
  "_format": "hh-sol-artifact-1",
  "contractName": "FundingPool",
  "sourceName": "contracts/src/FundingPool.sol",
  "abi": [
    {
      "inputs": [
        {
          "internalType": "address",
          "name": "_organizationAddress",
          "type": "address"
        }
      ],
      "stateMutability": "nonpayable",
      "type": "constructor"
    },
    {
      "inputs": [
        {
          "internalType": "address",
          "name": "owner",
          "type": "address"
        }
      ],
      "name": "OwnableInvalidOwner",
      "type": "error"
    },
    {
      "inputs": [
        {
          "internalType": "address",
          "name": "account",
          "type": "address"
        }
      ],
      "name": "OwnableUnauthorizedAccount",
      "type": "error"
    },
    {
      "anonymous": false,
      "inputs": [
        {
          "indexed": false,
          "internalType": "uint256",
          "name": "campaignId",
          "type": "uint256"
        }
      ],
      "name": "CampaignCancelled",
      "type": "event"
    },
    {
      "anonymous": false,
      "inputs": [
        {
          "indexed": false,
          "internalType": "uint256",
          "name": "campaignId",
          "type": "uint256"
        }
      ],
      "name": "CampaignCompleted",
      "type": "event"
    },
    {
      "anonymous": false,
      "inputs": [
        {
          "indexed": false,
          "internalType": "uint256",
          "name": "campaignId",
          "type": "uint256"
        },
        {
          "indexed": false,
          "internalType": "string",
          "name": "name",
          "type": "string"
        },
        {
          "indexed": false,
          "internalType": "uint256",
          "name": "goal",
          "type": "uint256"
        },
        {
          "indexed": false,
          "internalType": "address",
          "name": "organization",
          "type": "address"
        }
      ],
      "name": "CampaignCreated",
      "type": "event"
    },
    {
      "anonymous": false,
      "inputs": [
        {
          "indexed": false,
          "internalType": "uint256",
          "name": "campaignId",
          "type": "uint256"
        },
        {
          "indexed": false,
          "internalType": "address",
          "name": "contributor",
          "type": "address"
        },
        {
          "indexed": false,
          "internalType": "uint256",
          "name": "amount",
          "type": "uint256"
        }
      ],
      "name": "FundsContributed",
      "type": "event"
    },
    {
      "anonymous": false,
      "inputs": [
        {
          "indexed": true,
          "internalType": "address",
          "name": "previousOwner",
          "type": "address"
        },
        {
          "indexed": true,
          "internalType": "address",
          "name": "newOwner",
          "type": "address"
        }
      ],
      "name": "OwnershipTransferred",
      "type": "event"
    },
    {
      "inputs": [],
      "name": "campaignCount",
      "outputs": [
        {
          "internalType": "uint256",
          "name": "",
          "type": "uint256"
        }
      ],
      "stateMutability": "view",
      "type": "function"
    },
    {
      "inputs": [
        {
          "internalType": "uint256",
          "name": "",
          "type": "uint256"
        }
      ],
      "name": "campaigns",
      "outputs": [
        {
          "internalType": "string",
          "name": "name",
          "type": "string"
        },
        {
          "internalType": "string",
          "name": "description",
          "type": "string"
        },
        {
          "internalType": "uint256",
          "name": "goal",
          "type": "uint256"
        },
        {
          "internalType": "uint256",
          "name": "collected",
          "type": "uint256"
        },
        {
          "internalType": "uint256",
          "name": "deadline",
          "type": "uint256"
        },
        {
          "internalType": "enum FundingPool.FundingType",
          "name": "fundingType",
          "type": "uint8"
        },
        {
          "internalType": "enum FundingPool.FundingStatus",
          "name": "status",
          "type": "uint8"
        },
        {
          "internalType": "address",
          "name": "organization",
          "type": "address"
        }
      ],
      "stateMutability": "view",
      "type": "function"
    },
    {
      "inputs": [
        {
          "internalType": "uint256",
          "name": "campaignId",
          "type": "uint256"
        }
      ],
      "name": "cancelCampaign",
      "outputs": [],
      "stateMutability": "nonpayable",
      "type": "function"
    },
    {
      "inputs": [
        {
          "internalType": "uint256",
          "name": "campaignId",
          "type": "uint256"
        }
      ],
      "name": "contribute",
      "outputs": [],
      "stateMutability": "payable",
      "type": "function"
    },
    {
      "inputs": [
        {
          "internalType": "uint256",
          "name": "",
          "type": "uint256"
        },
        {
          "internalType": "address",
          "name": "",
          "type": "address"
        }
      ],
      "name": "contributions",
      "outputs": [
        {
          "internalType": "uint256",
          "name": "",
          "type": "uint256"
        }
      ],
      "stateMutability": "view",
      "type": "function"
    },
    {
      "inputs": [
        {
          "internalType": "string",
          "name": "name",
          "type": "string"
        },
        {
          "internalType": "string",
          "name": "description",
          "type": "string"
        },
        {
          "internalType": "uint256",
          "name": "goal",
          "type": "uint256"
        },
        {
          "internalType": "uint256",
          "name": "deadline",
          "type": "uint256"
        },
        {
          "internalType": "enum FundingPool.FundingType",
          "name": "fundingType",
          "type": "uint8"
        },
        {
          "internalType": "string[]",
          "name": "expenseItems",
          "type": "string[]"
        },
        {
          "internalType": "uint256[]",
          "name": "expenseAmounts",
          "type": "uint256[]"
        }
      ],
      "name": "createCampaign",
      "outputs": [
        {
          "internalType": "uint256",
          "name": "",
          "type": "uint256"
        }
      ],
      "stateMutability": "nonpayable",
      "type": "function"
    },
    {
      "inputs": [
        {
          "internalType": "uint256",
          "name": "campaignId",
          "type": "uint256"
        }
      ],
      "name": "getCampaignDetails",
      "outputs": [
        {
          "internalType": "string",
          "name": "name",
          "type": "string"
        },
        {
          "internalType": "string",
          "name": "description",
          "type": "string"
        },
        {
          "internalType": "uint256",
          "name": "goal",
          "type": "uint256"
        },
        {
          "internalType": "uint256",
          "name": "collected",
          "type": "uint256"
        },
        {
          "internalType": "uint256",
          "name": "deadline",
          "type": "uint256"
        },
        {
          "internalType": "enum FundingPool.FundingType",
          "name": "fundingType",
          "type": "uint8"
        },
        {
          "internalType": "enum FundingPool.FundingStatus",
          "name": "status",
          "type": "uint8"
        }
      ],
      "stateMutability": "view",
      "type": "function"
    },
    {
      "inputs": [
        {
          "internalType": "uint256",
          "name": "campaignId",
          "type": "uint256"
        },
        {
          "internalType": "address",
          "name": "contributor",
          "type": "address"
        }
      ],
      "name": "getContribution",
      "outputs": [
        {
          "internalType": "uint256",
          "name": "",
          "type": "uint256"
        }
      ],
      "stateMutability": "view",
      "type": "function"
    },
    {
      "inputs": [
        {
          "internalType": "uint256",
          "name": "campaignId",
          "type": "uint256"
        }
      ],
      "name": "getExpenseItems",
      "outputs": [
        {
          "internalType": "string[]",
          "name": "",
          "type": "string[]"
        },
        {
          "internalType": "uint256[]",
          "name": "",
          "type": "uint256[]"
        }
      ],
      "stateMutability": "view",
      "type": "function"
    },
    {
      "inputs": [],
      "name": "organizationContract",
      "outputs": [
        {
          "internalType": "contract IOrganization",
          "name": "",
          "type": "address"
        }
      ],
      "stateMutability": "view",
      "type": "function"
    },
    {
      "inputs": [],
      "name": "owner",
      "outputs": [
        {
          "internalType": "address",
          "name": "",
          "type": "address"
        }
      ],
      "stateMutability": "view",
      "type": "function"
    },
    {
      "inputs": [],
      "name": "renounceOwnership",
      "outputs": [],
      "stateMutability": "nonpayable",
      "type": "function"
    },
    {
      "inputs": [
        {
          "internalType": "address",
          "name": "newOwner",
          "type": "address"
        }
      ],
      "name": "transferOwnership",
      "outputs": [],
      "stateMutability": "nonpayable",
      "type": "function"
    },
    {
      "inputs": [
        {
          "internalType": "uint256",
          "name": "campaignId",
          "type": "uint256"
        },
        {
          "internalType": "address payable",
          "name": "recipient",
          "type": "address"
        },
        {
          "internalType": "uint256",
          "name": "amount",
          "type": "uint256"
        }
      ],
      "name": "withdrawFunds",
      "outputs": [],
      "stateMutability": "nonpayable",
      "type": "function"
    }
  ],
  "bytecode": "0x608060405234801561001057600080fd5b50604051612bbe380380612bbe83398181016040528101906100329190610223565b33600073ffffffffffffffffffffffffffffffffffffffff168173ffffffffffffffffffffffffffffffffffffffff16036100a55760006040517f1e4fbdf700000000000000000000000000000000000000000000000000000000815260040161009c919061025f565b60405180910390fd5b6100b4816100fc60201b60201c565b5080600460006101000a81548173ffffffffffffffffffffffffffffffffffffffff021916908373ffffffffffffffffffffffffffffffffffffffff1602179055505061027a565b60008060009054906101000a900473ffffffffffffffffffffffffffffffffffffffff169050816000806101000a81548173ffffffffffffffffffffffffffffffffffffffff021916908373ffffffffffffffffffffffffffffffffffffffff1602179055508173ffffffffffffffffffffffffffffffffffffffff168173ffffffffffffffffffffffffffffffffffffffff167f8be0079c531659141344cd1fd0a4f28419497f9722a3daafe3b4186f6b6457e060405160405180910390a35050565b600080fd5b600073ffffffffffffffffffffffffffffffffffffffff82169050919050565b60006101f0826101c5565b9050919050565b610200816101e5565b811461020b57600080fd5b50565b60008151905061021d816101f7565b92915050565b600060208284031215610239576102386101c0565b5b60006102478482850161020e565b91505092915050565b610259816101e5565b82525050565b60006020820190506102746000830184610250565b92915050565b612935806102896000396000f3fe6080604052600436106100dd5760003560e01c80638135f3cc1161007f578063d993de6211610059578063d993de62146102bb578063e081dbf9146102fe578063f2fde38b1461033b578063f8f34cde14610364576100dd565b80638135f3cc146102365780638da5cb5b14610274578063c1cbbca71461029f576100dd565b80633d891f59116100bb5780633d891f591461018e57806345598b4a146101cb578063715018a6146101f45780637274e30d1461020b576100dd565b80630b5c2cbd146100e2578063141961bc1461011f57806336abac2914610163575b600080fd5b3480156100ee57600080fd5b5061010960048036038101906101049190611895565b61038d565b60405161011691906119b6565b60405180910390f35b34801561012b57600080fd5b50610146600480360381019061014191906119d1565b610696565b60405161015a989796959493929190611b7d565b60405180910390f35b34801561016f57600080fd5b50610178610828565b6040516101859190611c68565b60405180910390f35b34801561019a57600080fd5b506101b560048036038101906101b09190611caf565b61084e565b6040516101c291906119b6565b60405180910390f35b3480156101d757600080fd5b506101f260048036038101906101ed91906119d1565b610873565b005b34801561020057600080fd5b50610209610a45565b005b34801561021757600080fd5b50610220610a59565b60405161022d91906119b6565b60405180910390f35b34801561024257600080fd5b5061025d600480360381019061025891906119d1565b610a5f565b60405161026b929190611eb9565b60405180910390f35b34801561028057600080fd5b50610289610bb0565b6040516102969190611ef0565b60405180910390f35b6102b960048036038101906102b491906119d1565b610bd9565b005b3480156102c757600080fd5b506102e260048036038101906102dd91906119d1565b610e35565b6040516102f59796959493929190611f0b565b60405180910390f35b34801561030a57600080fd5b5061032560048036038101906103209190611caf565b610fc3565b60405161033291906119b6565b60405180910390f35b34801561034757600080fd5b50610362600480360381019061035d9190611f88565b61101e565b005b34801561037057600080fd5b5061038b60048036038101906103869190611ff3565b6110a4565b005b6000600460009054906101000a900473ffffffffffffffffffffffffffffffffffffffff1673ffffffffffffffffffffffffffffffffffffffff1663cc0d50e6336040518263ffffffff1660e01b81526004016103ea9190611ef0565b602060405180830381865afa158015610407573d6000803e3d6000fd5b505050506040513d601f19601f8201168201806040525081019061042b919061207e565b61046a576040517f08c379a00000000000000000000000000000000000000000000000000000000081526004016104619061211d565b60405180910390fd5b60006003600081548092919061047f9061216c565b9190505590506040518061014001604052808a8152602001898152602001888152602001600081526020018781526020018660028111156104c3576104c2611a7d565b5b8152602001600060028111156104dc576104db611a7d565b5b81526020013373ffffffffffffffffffffffffffffffffffffffff1681526020018581526020018481525060016000838152602001908152602001600020600082015181600001908161052f91906123b6565b50602082015181600101908161054591906123b6565b5060408201518160020155606082015181600301556080820151816004015560a08201518160050160006101000a81548160ff0219169083600281111561058f5761058e611a7d565b5b021790555060c08201518160050160016101000a81548160ff021916908360028111156105bf576105be611a7d565b5b021790555060e08201518160050160026101000a81548173ffffffffffffffffffffffffffffffffffffffff021916908373ffffffffffffffffffffffffffffffffffffffff160217905550610100820151816006019080519060200190610628929190611410565b50610120820151816007019080519060200190610646929190611469565b509050507f6fc7a1de3ccfc251acab8f2f41819123cd49f5da653ad8e7d5ca2f5e8ff76572818a893360405161067f9493929190612488565b60405180910390a180915050979650505050505050565b60016020528060005260406000206000915090508060000180546106b9906121e3565b80601f01602080910402602001604051908101604052809291908181526020018280546106e5906121e3565b80156107325780601f1061070757610100808354040283529160200191610732565b820191906000526020600020905b81548152906001019060200180831161071557829003601f168201915b505050505090806001018054610747906121e3565b80601f0160208091040260200160405190810160405280929190818152602001828054610773906121e3565b80156107c05780601f10610795576101008083540402835291602001916107c0565b820191906000526020600020905b8154815290600101906020018083116107a357829003601f168201915b5050505050908060020154908060030154908060040154908060050160009054906101000a900460ff16908060050160019054906101000a900460ff16908060050160029054906101000a900473ffffffffffffffffffffffffffffffffffffffff16905088565b600460009054906101000a900473ffffffffffffffffffffffffffffffffffffffff1681565b6002602052816000526040600020602052806000526040600020600091509150505481565b6000600160008381526020019081526020016000209050600460009054906101000a900473ffffffffffffffffffffffffffffffffffffffff1673ffffffffffffffffffffffffffffffffffffffff1663cc0d50e6336040518263ffffffff1660e01b81526004016108e59190611ef0565b602060405180830381865afa158015610902573d6000803e3d6000fd5b505050506040513d601f19601f82011682018060405250810190610926919061207e565b610965576040517f08c379a000000000000000000000000000000000000000000000000000000000815260040161095c90612546565b60405180910390fd5b6000600281111561097957610978611a7d565b5b8160050160019054906101000a900460ff16600281111561099d5761099c611a7d565b5b146109dd576040517f08c379a00000000000000000000000000000000000000000000000000000000081526004016109d4906125b2565b60405180910390fd5b60028160050160016101000a81548160ff02191690836002811115610a0557610a04611a7d565b5b02179055507f403b6718db13878ac16c27decb08f09d3a10f116c7c25af575ff5bfbc11ae9e682604051610a3991906119b6565b60405180910390a15050565b610a4d6112bd565b610a576000611344565b565b60035481565b6060806000600160008581526020019081526020016000209050806006018160070181805480602002602001604051908101604052809291908181526020016000905b82821015610b4e578382906000526020600020018054610ac1906121e3565b80601f0160208091040260200160405190810160405280929190818152602001828054610aed906121e3565b8015610b3a5780601f10610b0f57610100808354040283529160200191610b3a565b820191906000526020600020905b815481529060010190602001808311610b1d57829003601f168201915b505050505081526020019060010190610aa2565b50505050915080805480602002602001604051908101604052809291908181526020018280548015610b9f57602002820191906000526020600020905b815481526020019060010190808311610b8b575b505050505090509250925050915091565b60008060009054906101000a900473ffffffffffffffffffffffffffffffffffffffff16905090565b600060016000838152602001908152602001600020905060006002811115610c0457610c03611a7d565b5b8160050160019054906101000a900460ff166002811115610c2857610c27611a7d565b5b14610c68576040517f08c379a0000000000000000000000000000000000000000000000000000000008152600401610c5f906125b2565b60405180910390fd5b8060040154421080610c7e575060008160040154145b610cbd576040517f08c379a0000000000000000000000000000000000000000000000000000000008152600401610cb49061261e565b60405180910390fd5b60003411610d00576040517f08c379a0000000000000000000000000000000000000000000000000000000008152600401610cf7906126b0565b60405180910390fd5b34816003016000828254610d1491906126d0565b92505081905550346002600084815260200190815260200160002060003373ffffffffffffffffffffffffffffffffffffffff1673ffffffffffffffffffffffffffffffffffffffff1681526020019081526020016000206000828254610d7b91906126d0565b925050819055507fb5c5ea1a898780d7e2fa7e4b8ec6d8ba4fdcf3be360bb5e76ae40e4769053a19823334604051610db593929190612704565b60405180910390a18060020154816003015410610e315760018160050160016101000a81548160ff02191690836002811115610df457610df3611a7d565b5b02179055507fbdef6a2e3aa892961a2dab48272f72f2bc1c7121eb1c0ed7e4a58e081c1e4be082604051610e2891906119b6565b60405180910390a15b5050565b606080600080600080600080600160008a8152602001908152602001600020905080600001816001018260020154836003015484600401548560050160009054906101000a900460ff168660050160019054906101000a900460ff16868054610e9d906121e3565b80601f0160208091040260200160405190810160405280929190818152602001828054610ec9906121e3565b8015610f165780601f10610eeb57610100808354040283529160200191610f16565b820191906000526020600020905b815481529060010190602001808311610ef957829003601f168201915b50505050509650858054610f29906121e3565b80601f0160208091040260200160405190810160405280929190818152602001828054610f55906121e3565b8015610fa25780601f10610f7757610100808354040283529160200191610fa2565b820191906000526020600020905b815481529060010190602001808311610f8557829003601f168201915b50505050509550975097509750975097509750975050919395979092949650565b60006002600084815260200190815260200160002060008373ffffffffffffffffffffffffffffffffffffffff1673ffffffffffffffffffffffffffffffffffffffff16815260200190815260200160002054905092915050565b6110266112bd565b600073ffffffffffffffffffffffffffffffffffffffff168173ffffffffffffffffffffffffffffffffffffffff16036110985760006040517f1e4fbdf700000000000000000000000000000000000000000000000000000000815260040161108f9190611ef0565b60405180910390fd5b6110a181611344565b50565b6000600160008581526020019081526020016000209050600460009054906101000a900473ffffffffffffffffffffffffffffffffffffffff1673ffffffffffffffffffffffffffffffffffffffff1663cc0d50e6336040518263ffffffff1660e01b81526004016111169190611ef0565b602060405180830381865afa158015611133573d6000803e3d6000fd5b505050506040513d601f19601f82011682018060405250810190611157919061207e565b611196576040517f08c379a000000000000000000000000000000000000000000000000000000000815260040161118d906127ad565b60405180910390fd5b600160028111156111aa576111a9611a7d565b5b8160050160019054906101000a900460ff1660028111156111ce576111cd611a7d565b5b1461120e576040517f08c379a000000000000000000000000000000000000000000000000000000000815260040161120590612819565b60405180910390fd5b8060030154821115611255576040517f08c379a000000000000000000000000000000000000000000000000000000000815260040161124c906128ab565b60405180910390fd5b8181600301600082825461126991906128cb565b925050819055508273ffffffffffffffffffffffffffffffffffffffff166108fc839081150290604051600060405180830381858888f193505050501580156112b6573d6000803e3d6000fd5b5050505050565b6112c5611408565b73ffffffffffffffffffffffffffffffffffffffff166112e3610bb0565b73ffffffffffffffffffffffffffffffffffffffff161461134257611306611408565b6040517f118cdaa70000000000000000000000000000000000000000000000000000000081526004016113399190611ef0565b60405180910390fd5b565b60008060009054906101000a900473ffffffffffffffffffffffffffffffffffffffff169050816000806101000a81548173ffffffffffffffffffffffffffffffffffffffff021916908373ffffffffffffffffffffffffffffffffffffffff1602179055508173ffffffffffffffffffffffffffffffffffffffff168173ffffffffffffffffffffffffffffffffffffffff167f8be0079c531659141344cd1fd0a4f28419497f9722a3daafe3b4186f6b6457e060405160405180910390a35050565b600033905090565b828054828255906000526020600020908101928215611458579160200282015b8281111561145757825182908161144791906123b6565b5091602001919060010190611430565b5b50905061146591906114b6565b5090565b8280548282559060005260206000209081019282156114a5579160200282015b828111156114a4578251825591602001919060010190611489565b5b5090506114b291906114da565b5090565b5b808211156114d657600081816114cd91906114f7565b506001016114b7565b5090565b5b808211156114f35760008160009055506001016114db565b5090565b508054611503906121e3565b6000825580601f106115155750611534565b601f01602090049060005260206000209081019061153391906114da565b5b50565b6000604051905090565b600080fd5b600080fd5b600080fd5b600080fd5b6000601f19601f8301169050919050565b7f4e487b7100000000000000000000000000000000000000000000000000000000600052604160045260246000fd5b61159e82611555565b810181811067ffffffffffffffff821117156115bd576115bc611566565b5b80604052505050565b60006115d0611537565b90506115dc8282611595565b919050565b600067ffffffffffffffff8211156115fc576115fb611566565b5b61160582611555565b9050602081019050919050565b82818337600083830152505050565b600061163461162f846115e1565b6115c6565b9050828152602081018484840111156116505761164f611550565b5b61165b848285611612565b509392505050565b600082601f8301126116785761167761154b565b5b8135611688848260208601611621565b91505092915050565b6000819050919050565b6116a481611691565b81146116af57600080fd5b50565b6000813590506116c18161169b565b92915050565b600381106116d457600080fd5b50565b6000813590506116e6816116c7565b92915050565b600067ffffffffffffffff82111561170757611706611566565b5b602082029050602081019050919050565b600080fd5b600061173061172b846116ec565b6115c6565b9050808382526020820190506020840283018581111561175357611752611718565b5b835b8181101561179a57803567ffffffffffffffff8111156117785761177761154b565b5b8086016117858982611663565b85526020850194505050602081019050611755565b5050509392505050565b600082601f8301126117b9576117b861154b565b5b81356117c984826020860161171d565b91505092915050565b600067ffffffffffffffff8211156117ed576117ec611566565b5b602082029050602081019050919050565b600061181161180c846117d2565b6115c6565b9050808382526020820190506020840283018581111561183457611833611718565b5b835b8181101561185d578061184988826116b2565b845260208401935050602081019050611836565b5050509392505050565b600082601f83011261187c5761187b61154b565b5b813561188c8482602086016117fe565b91505092915050565b600080600080600080600060e0888a0312156118b4576118b3611541565b5b600088013567ffffffffffffffff8111156118d2576118d1611546565b5b6118de8a828b01611663565b975050602088013567ffffffffffffffff8111156118ff576118fe611546565b5b61190b8a828b01611663565b965050604061191c8a828b016116b2565b955050606061192d8a828b016116b2565b945050608061193e8a828b016116d7565b93505060a088013567ffffffffffffffff81111561195f5761195e611546565b5b61196b8a828b016117a4565b92505060c088013567ffffffffffffffff81111561198c5761198b611546565b5b6119988a828b01611867565b91505092959891949750929550565b6119b081611691565b82525050565b60006020820190506119cb60008301846119a7565b92915050565b6000602082840312156119e7576119e6611541565b5b60006119f5848285016116b2565b91505092915050565b600081519050919050565b600082825260208201905092915050565b60005b83811015611a38578082015181840152602081019050611a1d565b60008484015250505050565b6000611a4f826119fe565b611a598185611a09565b9350611a69818560208601611a1a565b611a7281611555565b840191505092915050565b7f4e487b7100000000000000000000000000000000000000000000000000000000600052602160045260246000fd5b60038110611abd57611abc611a7d565b5b50565b6000819050611ace82611aac565b919050565b6000611ade82611ac0565b9050919050565b611aee81611ad3565b82525050565b60038110611b0557611b04611a7d565b5b50565b6000819050611b1682611af4565b919050565b6000611b2682611b08565b9050919050565b611b3681611b1b565b82525050565b600073ffffffffffffffffffffffffffffffffffffffff82169050919050565b6000611b6782611b3c565b9050919050565b611b7781611b5c565b82525050565b6000610100820190508181036000830152611b98818b611a44565b90508181036020830152611bac818a611a44565b9050611bbb60408301896119a7565b611bc860608301886119a7565b611bd560808301876119a7565b611be260a0830186611ae5565b611bef60c0830185611b2d565b611bfc60e0830184611b6e565b9998505050505050505050565b6000819050919050565b6000611c2e611c29611c2484611b3c565b611c09565b611b3c565b9050919050565b6000611c4082611c13565b9050919050565b6000611c5282611c35565b9050919050565b611c6281611c47565b82525050565b6000602082019050611c7d6000830184611c59565b92915050565b611c8c81611b5c565b8114611c9757600080fd5b50565b600081359050611ca981611c83565b92915050565b60008060408385031215611cc657611cc5611541565b5b6000611cd4858286016116b2565b9250506020611ce585828601611c9a565b9150509250929050565b600081519050919050565b600082825260208201905092915050565b6000819050602082019050919050565b600082825260208201905092915050565b6000611d37826119fe565b611d418185611d1b565b9350611d51818560208601611a1a565b611d5a81611555565b840191505092915050565b6000611d718383611d2c565b905092915050565b6000602082019050919050565b6000611d9182611cef565b611d9b8185611cfa565b935083602082028501611dad85611d0b565b8060005b85811015611de95784840389528151611dca8582611d65565b9450611dd583611d79565b925060208a01995050600181019050611db1565b50829750879550505050505092915050565b600081519050919050565b600082825260208201905092915050565b6000819050602082019050919050565b611e3081611691565b82525050565b6000611e428383611e27565b60208301905092915050565b6000602082019050919050565b6000611e6682611dfb565b611e708185611e06565b9350611e7b83611e17565b8060005b83811015611eac578151611e938882611e36565b9750611e9e83611e4e565b925050600181019050611e7f565b5085935050505092915050565b60006040820190508181036000830152611ed38185611d86565b90508181036020830152611ee78184611e5b565b90509392505050565b6000602082019050611f056000830184611b6e565b92915050565b600060e0820190508181036000830152611f25818a611a44565b90508181036020830152611f398189611a44565b9050611f4860408301886119a7565b611f5560608301876119a7565b611f6260808301866119a7565b611f6f60a0830185611ae5565b611f7c60c0830184611b2d565b98975050505050505050565b600060208284031215611f9e57611f9d611541565b5b6000611fac84828501611c9a565b91505092915050565b6000611fc082611b3c565b9050919050565b611fd081611fb5565b8114611fdb57600080fd5b50565b600081359050611fed81611fc7565b92915050565b60008060006060848603121561200c5761200b611541565b5b600061201a868287016116b2565b935050602061202b86828701611fde565b925050604061203c868287016116b2565b9150509250925092565b60008115159050919050565b61205b81612046565b811461206657600080fd5b50565b60008151905061207881612052565b92915050565b60006020828403121561209457612093611541565b5b60006120a284828501612069565b91505092915050565b7f4f6e6c7920747265617375726572732063616e206372656174652063616d706160008201527f69676e7300000000000000000000000000000000000000000000000000000000602082015250565b6000612107602483611a09565b9150612112826120ab565b604082019050919050565b60006020820190508181036000830152612136816120fa565b9050919050565b7f4e487b7100000000000000000000000000000000000000000000000000000000600052601160045260246000fd5b600061217782611691565b91507fffffffffffffffffffffffffffffffffffffffffffffffffffffffffffffffff82036121a9576121a861213d565b5b600182019050919050565b7f4e487b7100000000000000000000000000000000000000000000000000000000600052602260045260246000fd5b600060028204905060018216806121fb57607f821691505b60208210810361220e5761220d6121b4565b5b50919050565b60008190508160005260206000209050919050565b60006020601f8301049050919050565b600082821b905092915050565b6000600883026122767fffffffffffffffffffffffffffffffffffffffffffffffffffffffffffffffff82612239565b6122808683612239565b95508019841693508086168417925050509392505050565b60006122b36122ae6122a984611691565b611c09565b611691565b9050919050565b6000819050919050565b6122cd83612298565b6122e16122d9826122ba565b848454612246565b825550505050565b600090565b6122f66122e9565b6123018184846122c4565b505050565b5b818110156123255761231a6000826122ee565b600181019050612307565b5050565b601f82111561236a5761233b81612214565b61234484612229565b81016020851015612353578190505b61236761235f85612229565b830182612306565b50505b505050565b600082821c905092915050565b600061238d6000198460080261236f565b1980831691505092915050565b60006123a6838361237c565b9150826002028217905092915050565b6123bf826119fe565b67ffffffffffffffff8111156123d8576123d7611566565b5b6123e282546121e3565b6123ed828285612329565b600060209050601f831160018114612420576000841561240e578287015190505b612418858261239a565b865550612480565b601f19841661242e86612214565b60005b8281101561245657848901518255600182019150602085019450602081019050612431565b86831015612473578489015161246f601f89168261237c565b8355505b6001600288020188555050505b505050505050565b600060808201905061249d60008301876119a7565b81810360208301526124af8186611a44565b90506124be60408301856119a7565b6124cb6060830184611b6e565b95945050505050565b7f4f6e6c7920747265617375726572732063616e2063616e63656c2063616d706160008201527f69676e7300000000000000000000000000000000000000000000000000000000602082015250565b6000612530602483611a09565b915061253b826124d4565b604082019050919050565b6000602082019050818103600083015261255f81612523565b9050919050565b7f43616d706169676e206973206e6f742061637469766500000000000000000000600082015250565b600061259c601683611a09565b91506125a782612566565b602082019050919050565b600060208201905081810360008301526125cb8161258f565b9050919050565b7f43616d706169676e20646561646c696e65206861732070617373656400000000600082015250565b6000612608601c83611a09565b9150612613826125d2565b602082019050919050565b60006020820190508181036000830152612637816125fb565b9050919050565b7f436f6e747269627574696f6e206d75737420626520677265617465722074686160008201527f6e20300000000000000000000000000000000000000000000000000000000000602082015250565b600061269a602383611a09565b91506126a58261263e565b604082019050919050565b600060208201905081810360008301526126c98161268d565b9050919050565b60006126db82611691565b91506126e683611691565b92508282019050808211156126fe576126fd61213d565b5b92915050565b600060608201905061271960008301866119a7565b6127266020830185611b6e565b61273360408301846119a7565b949350505050565b7f4f6e6c7920747265617375726572732063616e2077697468647261772066756e60008201527f6473000000000000000000000000000000000000000000000000000000000000602082015250565b6000612797602283611a09565b91506127a28261273b565b604082019050919050565b600060208201905081810360008301526127c68161278a565b9050919050565b7f43616d706169676e206d75737420626520636f6d706c65746564000000000000600082015250565b6000612803601a83611a09565b915061280e826127cd565b602082019050919050565b60006020820190508181036000830152612832816127f6565b9050919050565b7f43616e6e6f74207769746864726177206d6f7265207468616e20636f6c6c656360008201527f7465640000000000000000000000000000000000000000000000000000000000602082015250565b6000612895602383611a09565b91506128a082612839565b604082019050919050565b600060208201905081810360008301526128c481612888565b9050919050565b60006128d682611691565b91506128e183611691565b92508282039050818111156128f9576128f861213d565b5b9291505056fea2646970667358221220d9eb9490181b989aff4e0be50047af78a1c1f9d0c0df3ba9a4ea2db6a37b57ce64736f6c634300081c0033",
  "linkReferences": {},
  "deployedLinkReferences": {}
}